:020000041000EA
:1000000000B5324B212058609868022188439860DF
:10001000D860186158612E4B002199600221596106
:100020000121F02299502B49196001219960352056
:1000300000F044F80222904214D00621196600F024
:1000400034F8196E01211966002018661A6600F04E
:100050002CF8196E196E196E052000F02FF8012189
:100060000842F9D1002199601B49196000215960AB
:100070001A491B48016001219960EB211966A021F2
:10008000196600F012F800219960164914480160C1
:100090000121996001BC002800D000471248134993
:1000A000086003C880F30888084703B5996A0420EC
:1000B0000142FBD001200142F8D103BD02B5186610
:1000C0001866FFF7F2FF186E186E02BD00000240BE
:1000D000000000180000070000035F00212200005C
:1000E000F4000018222000A00001001008ED00E03C
:1000F00000000000000000000000000074B24E7A12
:1001000000200420F7010010C3010010C5010010F9
:10011000C1010010C1010010C1010010C101001097
:10012000C1010010C1010010C1010010C701001081
:10013000C1010010C1010010C9010010CB01001065
:10014000CD010010CD010010CD010010CD01001037
:10015000CD010010CD010010CD010010CD01001027
:10016000CD010010CD010010CD010010CD01001017
:10017000CD010010CD010010CD010010CD01001007
:10018000CD010010CD010010CD010010CD010010F7
:10019000CD010010CD010010CD010010CD010010E7
:1001A000CD010010CD010010CD010010CD010010D7
:1001B000CD010010CD010010CD010010CD010010C7
:1001C00000BE00BE00BE00BE00BE00BEEFF3058054
:1001D000103800BEF2EB887184780110A478011009
:1001E0003802001090A31AE71E481F49086006C88D
:1001F00081F3088810471D480068002801D019487D
:10020000F3E70DA40ECC002902D000F012F8F9E7B4
:100210001749184A002000E001C19142FCD116495B
:100220008847164988471649884700BEFDE701C937
:1002300001C29A42FBD37047A4780110C00000208D
:10024000DC190020C09101100000042000000420EF
:10025000C0910110001004200010042000000000D4
:10026000704700000000000008ED00E0000000D032
:10027000DC190020882C0020915800101D0300106C
:1002800051580010F8B5C04606480749091A8B10A6
:10029000C90FC91810B5491003D0044B002B00D06A
:1002A000984710BDDC190020DC1900200000000078
:1002B000054B10B5002B03D00449054800E000BFF2
:1002C000FFF7E2FF10BDC04600000000082C002030
:1002D000BCF7001010B50E4C06210E4A200000F0AD
:1002E0007BF843425841C0B200F060F8200000F0B3
:1002F00099F900220849200000F044F9434258418E
:10030000C0B200F053F820000FF0DEF910BDC04677
:10031000681D002080DF1710B16CC90170B584B072
:100320001D4803AB02AA01A902F0ECFA002803D190
:100330001A48194900F0D0FF039A0299019802F077
:1003400005FA05F0E3FBFA20800001F0ABFE14484B
:1003500005F076FC01200021404200F011FDD02480
:10036000802510490600240600F0A0FDAD041920E8
:1003700000F08CFF0C48656208F0F4F80520A561D8
:1003800001F090FE0A21300000F056FD0120656169
:1003900001F088FEF2E7C046B01E0400C8F7001066
:1003A000C0F70010F90A0010D502001070B500283F
:1003B00000D070BDD024802519302406AD0400F093
:1003C00065FF65623220656101F06CFEFA20A5616F
:1003D000400001F067FEF5E7F0B5DE4657464E46B1
:1003E00045460400431E9841E0B515008BB0C0B2ED
:1003F0000E00FFF7DBFF2800431E9841C0B2FFF755
:10040000D5FF5C220021200003F060FD5548A56463
:10041000A6605549606008F0EDF80121206260682F
:1004200008F0CCF8E061A06800F030FF4F4B616845
:100430009C466144090D0631A068C9B200F0A4FED3
:10044000E36980229846236A52029946A36806AD62
:100450009A4600239B460593F8235B02029203937E
:10046000C02302A91B03102228006768049303F02D
:1004700033FD49460C310B034946CA011343290099
:10048000102202A8079303F027FD51461F22384B84
:100490000126049380230A4034495B037918090D2F
:1004A000063113435046C9B2059300F06DFE524623
:1004B000414600960123380008F018F9802302A96C
:1004C0005B024A46029338000B00414608F068F987
:1004D00041468E403B6880221E43F82352025B0255
:1004E000069207935946C0233E60266A09911B0372
:1004F0002900102202A8089303F0EEFC33000C330D
:10050000F2011B03134302A910222800039303F0F6
:10051000E3FC23000C3307CD07C3164B61692A683F
:100520001940154B60680B43F8216361A36889008B
:100530005B010B4011490A401343114AE169134022
:100540008022D2041343A361230032000C3308F04D
:1005500027F900200BB0F0BCBB46B246A946A04626
:10056000F0BDC04600002050540101100000E0AF73
:1005700000000E40FFFFF50100000A401FFCFFFFD6
:10058000FFFFFFE3F0B5D6464F4646468046431E82
:100590009841C0B5C0B282B08A469146FFF706FFC7
:1005A000FA2200235046D200002103F0B5FB4A4650
:1005B0004446D31712184B410021A06CC70E4601C8
:1005C000361A8F4100960197019FB40F009EBD001F
:1005D0002543B40024184D41E9066009084305008D
:1005E000D9075608E4060E43200029005F10801941
:1005F000794102F0FFFC43465862FC231B069C46EF
:10060000074B604452461860434600201A654A462C
:100610005A6502B0E0BCBA46B146A846F0BDC04635
:10062000502C002070B50400431E9841C0B2FFF763
:10063000BDFE01221500E36961689D402B0008683A
:1006400003430B60A26570BD10B50400431E9841C2
:10065000C0B2FFF7ABFE0122E069616882400B681F
:1006600093430B600023A36510BDC046F0B5012382
:10067000002504000020C646A3426841884600B514
:10068000C0B21700FFF792FE4346D80FE12342465F
:100690005B0293426841C0B2FFF788FE1C23F80F4B
:1006A000BB426841C0B2FFF781FE4146002C57D0E3
:1006B000304801F04BFE0820022100F065FD0920C2
:1006C0002C4E022100F060FD98210120890003F0EA
:1006D000A3FB0500431E9841C0B2FFF767FE4346E7
:1006E0002A006B60244B38001D60244B2C60AF60E7
:1006F00010321A6000F0CAFD0123D022BB4012065E
:1007000038009362082101221D4B00F057FDC022E2
:10071000336B120213401B4A3000B21813600821D9
:100720000023012201F0B4FE631E9C41300014340A
:10073000002101F0E9FE2000134900F0DBFE20005B
:10074000012100F09BFE5023B363726B183B1340F2
:100750000E4A280094466644336080BCB846F0BD1B
:100760000B4801F0F3FD0020022100F00DFD084EC2
:100770000120A6E700800340582C00205C2C0020BC
:10078000F100002030100000FD01002034100000B6
:100790000040034070B50400431E9841C0B2FFF70B
:1007A00005FE20680025431E9841C0B2FFF7FEFDFC
:1007B0000A4B1D600A4B1D6023681B685A42534157
:1007C0005B429B0B9803074B9C46604401F04EFE36
:1007D000206803F063FB256070BDC046582C0020E4
:1007E0005C2C00200080034070B50400431E98413B
:1007F0000D008AB0C0B2FFF7D9FD2800431E984112
:10080000C0B2FFF7D3FD20000BF0A6FA00260628A1
:1008100002D030000AB070BD28000BF09DFA052808
:10082000F7D90C22002106A803F050FB2279684674
:10083000303A93009B1862795B0034329B18A2789F
:100840000593303A93009B18E2785B00313A9B188D
:1008500022780493303A93009B1862785B00303A18
:100860009B182A780393303A93009B186A785B00B0
:10087000303A9B18AA780293303A93009B18EA7892
:100880005B00303A9B182A790193303A93009B1809
:100890006A795B00303A9B1800930AF04DFC060021
:1008A000B7E7C046F0B5DE464F464646C0B506003F
:1008B000431E9841340088B0C0B2FFF777FD802214
:1008C0005934FF3420004A49520009F0CDFE8146D8
:1008D000002827D0336B04AD01333363454B00212F
:1008E000DA689B689346280010229846002703F098
:1008F000EDFA00200023E21811780133DBB22C2935
:10090000F9D117702B540B2802D00130C0B2F2E796
:100910004A466B78D25C1300413B59424B413374D9
:10092000412A06D0002008B0E0BCBB46B146A8462C
:10093000F0BDA878484407F081FF00222E4B02F05A
:100940009EFD00222D4B02F073FD02F063FE00902D
:10095000484601910099019A31627262EB78C35C5A
:100960004E2B08D0532B30D10800110000234242F7
:100970008B41326273622879484407F05FFF00229E
:100980001D4B02F07CFD00221C4B02F051FD02F0D9
:1009900041FE0290484603910299039AB162F262C5
:1009A0006B79C35C452B08D0572B11D1080011007F
:1009B000002342428B41B262F362EB7A4B445B7894
:1009C0002A2B08D004204042ADE702204042AAE78B
:1009D00003204042A7E72978287A49444844FFF792
:1009E00003FF5B46B36143467061F3619AE7C0461B
:1009F000FCF7001000400540006AF8400000E03FAE
:100A000010B52C4805F01CF92B4C2C48626D216D5B
:100A100005F09AF92A4805F097F9A36D002B3FD00D
:100A2000284805F091F9E36C002B3FD0196826485F
:100A300005F08AF9E36C2548596805F085F9E36CFF
:100A40002348996805F080F99723E26C9B00D15800
:100A5000204805F079F9E36C1F48197C05F074F91A
:100A6000E36C1E48196B05F06FF9E36C1C481A6CB7
:100A70005B6C05F069F9E36C1A485133FF331A686F
:100A80005B6805F061F9E36C17481A6A5B6A05F068
:100A90005BF9E36C15489A6ADB6A05F055F910BDFD
:100AA000134805F051F9E36C002BBFD1114805F054
:100AB0004BF9F4E774F80010681D002098F8001056
:100AC000BCF80010C8F80010DCF80010ECF80010BA
:100AD00000F9001018F9001030F900104CF900105E
:100AE00068F9001080F90010A4F90010BCF900109A
:100AF000D0F80010D4F90010F0B5C6460400431E2B
:100B0000984100B5C0B20E001500FFF74FFC200061
:100B1000764909F071FF002814D12000744909F0CA
:100B20006BFF002854D0022E4ED1280007F08CFE17
:100B3000704B0400C218704B9A4267D96F4805F099
:100B400003F93EE00A2005F031F86D4805F078F829
:100B50006C4805F075F86C4A6C496D4805F0F4F87E
:100B60006C4805F06DF86C4805F06AF86B4C200095
:100B700005F066F86A4805F063F8200005F060F8B3
:100B8000684805F05DF8200005F05AF8664805F061
:100B900057F8664805F054F8200005F051F864480D
:100BA00005F04EF8634805F04BF8200005F048F8D2
:100BB000614805F045F8614805F042F8604805F0E5
:100BC0003FF880BCB846F0BD5E4805F0BDF8F8E7D8
:100BD00020005D4909F010FF002821D120005B4969
:100BE00009F00AFF002825D0022EEDD1280058492F
:100BF00009F002FF002816D12800564909F0FCFE32
:100C000000282CD1544805F09FF8DAE72100002293
:100C10005248FFF7B7FC2100514805F095F8D0E79E
:100C2000FFF7EEFECDE74D48FFF7FCFC4D4805F021
:100C30008BF8C6E720004C4909F0DEFE0028E1D021
:100C4000042E13D0022EDDD14448C36C002BB8D043
:100C50004C30FFF79FFD454805F076F8B1E73F4877
:100C6000FFF7F2FC424805F06FF8AAE7280007F00A
:100C7000EBFD0400012834D828000BF06DF801309A
:100C80002B5C2E18002B9FD0300007F0DDFD0700F5
:100C900030000BF061F80130301807F0D5FD060088
:100CA000052001F0FFF92D4DEB6C002B05D03148EC
:100CB000FFF770FD2D4805F047F83A00310020009D
:100CC000FFF7D4FCB0460600431E9841C0B2FFF7C0
:100CD0006DFB3B00424621002748EE6405F034F8E6
:100CE0006FE7264805F030F86BE7C046FCF90010C6
:100CF000F0FC0010C0BDF0FFD51BDE0118F800109D
:100D000004FA00102CFA001054FA001060FA0010D7
:100D10006CFA001080FA0010BCFA0010F8FA00100B
:100D2000FCFA001010FB001030FB00105CFB001000
:100D3000A4FB0010CCFB0010F8FB001044FC0010DA
:100D4000B4FC001004F800101CFD001024FD00107D
:100D50002CFD001044FD001050F80010681D00200C
:100D6000F8FC001030FD00105CFD001064FD001068
:100D700048FD0010B41D002080FD00102CF800106C
:100D800070B5012305000022C00FAB425041C0B234
:100D90000E00FFF70BFB88210120490003F03CF80F
:100DA0000400431E9841C0B2FFF700FB20008022E0
:100DB000002152000C3003F089F8200025606660A5
:100DC00070BDC0460C23F0B5C64698468044070067
:100DD0002021404600B509F0B1FB061E1FD0037864
:100DE000002B24D0134D4046290009F05DFC00245F
:100DF000002806D029000020013409F055FC002805
:100E0000F8D1BB68002B06D0002333702100404688
:100E1000BB68721C9847002080BCB846F0BDBB6818
:100E2000002BF8D04246002140469847F3E70120C6
:100E30004042F1E7BCFD001010B50400080004F0CA
:100E400069FE00282DDB082820D00D280AD0862234
:100E50005200A35C591CA154E418207304F0A6FEB0
:100E6000002010BD2000FFF7ADFF002C0AD02000AD
:100E70008022002152000C3003F028F88623002243
:100E80005B00E254084804F05FFFE9E78622520065
:100E9000A35C002B01D0013BA354082004F086FE84
:100EA000DEE701204042DCE7C0FD001070B5040021
:100EB000431E98410D00C0B2FFF778FAA56070BDDF
:100EC000D0231B061B68AC4A9900F0B5DE468B4662
:100ED00051585A4253412F2257464E4645465B428F
:100EE00093439A46A54BE0B59C4683B000260191FA
:100EF000E244002938D0A24B99465246F308083301
:100F00009B009D580123340098460836002D22D0BE
:100F10000F212000294001342D09002919D04B460A
:100F20005A469A580300C240203BDB171340424602
:100F300013420CD107220F000240920097403A0062
:100F4000C308904F3C339B00DA51019B9847002D1A
:100F500001D0B442DCD3202ECFD103B0F0BCBB46CD
:100F6000B246A946A046F0BD854E5F4600210F233C
:100F7000B346CC0822005046083292001258002A8C
:100F800000D1D0E0180010408046100913421AD05A
:100F90005D46ED59A94620256D42AC468C44654618
:100FA000ED17AC464D46CD40A94665464E46354008
:100FB0000126354204D14646724D3C34A4006651A8
:100FC000002800D1AFE01C000440A446140A0342EC
:100FD0001AD0481C80465846C059464681464D4660
:100FE0000800F5401F38C01728400125284208D1C5
:100FF00065462D01AC46F0086646624D3C308000E7
:101000004651002C00D18EE0180020408446100B81
:10101000234211D08C1CA0465C46E4594646A146AA
:101020004D460C00F5401E3CE4172C4001252C4297
:1010300000D182E0002876D01C000440A446140CA5
:10104000034210D0C81C80465846C05946468146C7
:101050004D460800F5401D38C0172840012528429C
:1010600075D0002C5FD0180020408046100D234220
:101070000ED00C1DA4466546414CE459EC40A146F7
:101080000C004D461C3CE40F2C426AD000284AD08C
:101090001C000440A446140E034218D0481D80468C
:1010A00045463748C059E840814608004D461B3840
:1010B000C00F284209D165462D05AC46404666461C
:1010C000C008304D3C3080004651002C2BD0180019
:1010D00020408446120F23422AD029488C1D814685
:1010E000C059E0408046080045461A38C00F2842E3
:1010F00006D1E0086446234D3C302406800044516C
:10110000002A10D04846C059CC1DE0408446080053
:1011100065461938C00F284205D1E0083C30194C0B
:101120001207800002510831202900D021E714E77E
:10113000002AF8D012488146E4E765462D02AC4605
:10114000F40866460F4D3C34A400665172E76546CC
:101150002D03AC46F00866460A4D3C3080004651EF
:101160007FE745462D04A84664464646E408054DFB
:101170003C34A400665189E77827002030410140C3
:101180003C2C002000400140094A83009A1810B509
:1011900014684022544080322240064CC000A446CD
:1011A00063441A60044B9C466044416010BDC046D5
:1011B00004C0014004D0014000400140F8B545465C
:1011C0009846D0231B06DE461C689B462B4B574691
:1011D0009A46A3004E469946E0B5534616004A4645
:1011E0009B5807000D00002B34D04346002B3FD006
:1011F00053464A4641469950D0231B061C68634219
:101200005C412F220720634293431D4A3840944695
:10121000FA081100800085403C311A486344890077
:1012200092000D509B18002E0ED080229201944601
:10123000634401210D201D6000F020F9F0BCBB4685
:10124000B246A946A046F8BDC02292019446634426
:101250001D60F3E74346002BD1D0534641460D2095
:1012600099500022084900F06FF95B461C68C6E7F8
:101270000D20054900F062FABAE7C0467827002041
:101280003041014000400140C10E00100123D02236
:101290008340120693629361094A83009A18116889
:1012A0004022514080320A400649C0008C466344C7
:1012B0001A60054B9C460523604443607047C04656
:1012C00004C0014004D00140004001408023DB0500
:1012D0001868000F7047C0460FB400B5084883B0C7
:1012E00004F0AEFC049B002B07D005A91800019167
:1012F00004F07AFA034804F0A3FC012004F08CFA0D
:10130000C8FD0010D8FD0010EFF3108072B6034A3C
:101310001368002BFCD0BFF35F8F70472C0100D007
:10132000BFF35F8F0022024B1A6080F31088704772
:101330002C0100D070B5EFF3108C72B60D4D2B68F8
:10134000002BFCD0BFF35F8F0724CB08C618C05C0E
:1013500001230C40A3401C000440034207D1184362
:101360003070BFF35F8F2C608CF3108870BD10005D
:10137000FFF7B2FF2C0100D0F8B54746CE468846AD
:1013800080B5EFF3108C72B61C4D2C68002CFCD08D
:10139000BFF35F8F9A4222D807210126894602E0D7
:1013A0000132934218D34D4637001540AF40D40860
:1013B0000119045D2742F3D110003C430C70BFF3C8
:1013C0005F8F00220D4B1A608CF3108800280EDB13
:1013D000C0BCB946B046F8BD01204042EFE7BFF3BC
:1013E0005F8F00232B608CF310880120404243461E
:1013F000002BEDD00898FFF76FFFC0462C0100D0FE
:10140000044A1078431CDBB2172B00D91023137049
:101410007047C046E811002010B5064B064C82B05C
:101420000100009318221F232000FFF7A5FF02B040
:1014300010BDC046DCFD0010882700200021044BB1
:10144000044ABFF35F8F02C39342FAD17047C0468C
:10145000000100D0800100D0054B064A1360064A07
:10146000136053609360D36013615361936170475D
:101470008080808000E400E004E400E01F23184046
:101480001E3B8340002905D0C021044A4900535027
:1014900013607047802201498B50FAE700E100E0B9
:1014A00001228240034B1B6813405A1E9341D8B25D
:1014B0007047C04600E100E001238340014A136009
:1014C0007047C04600E200E0084B10309B68800087
:1014D000C358002B07D0064A00209B1A2F229A429D
:1014E0004041C0B270470020FCE7C04600ED00E07C
:1014F000EC11002070B50D00EFF3108672B60F4AA4
:101500001368002BFCD0BFF35F8F0D4B10309B682E
:1015100084001B590B4A934203D09D4201D001F035
:1015200029FC074B9B681D51BFF35F8FBFF35F8F93
:101530000022024B1A6086F3108870BD240100D08F
:1015400000ED00E0CD010010F0B557464E46DE46F6
:101550004546E0B585B0060000911700EFF3108B0B
:1015600072B66A4A1368002BFCD0BFF35F8F002568
:10157000674B5D579A46002D00DAA9E06B00654C79
:1015800001935B199B009846A146C1444B465246C5
:101590009B7910361370604BB6009B6899590B1BF2
:1015A0002F2B33D95D4B994200D0ACE0019B4246D2
:1015B0009C465B4B6544AD0063535A4B0232A21804
:1015C000043B9B1A1B05584A5B0D651913436B803E
:1015D000564B0121AB80FF23AB71009BEF71AB60D9
:1015E0004B460B4319004C4B9B689951BFF35F8FDF
:1015F000BFF35F8F0022454B1A608BF3108805B054
:10160000F0BCBB46B246A946A046F0BD01200A0088
:101610008243D3798C46BB4231D8454613004449B6
:101620001B1B5B415943090D3D4B63533D4B023539
:101630006519043B5B1B1B053B4D5B0D2B43AA4609
:101640004D466B800425AC465546E044131F444488
:101650001B1B1B055B0D1D434B46997100999D801B
:1016600099604946DF71334B01431360BBE7580073
:10167000C01880002018C179B9422FD90200062372
:10168000D356002BF3DA02932B4B61460393131DC1
:101690009A4604235B429C46E14450464B461B1A43
:1016A0001B055B0D9C46204B957198466346404652
:1016B00003439380019B5A199200039BA418A380B3
:1016C000029B1C4AA371009B2260E771A3608AE71A
:1016D00001F050FB002553465D574FE79088029379
:1016E0004005131D9A46031561469C464046D44466
:1016F000634604302018181AE0230005400D1B0231
:1017000018430390C5E701F035FB4FE7240100D0F3
:10171000812C0020EC11002000ED00E0CD01001034
:1017200000A1FFFF1C12002000E0FFFF01BDFFFF32
:10173000AAAA00000148804701BD0000F0B5DE46BE
:1017400057464E464546E0B50C0083B0EFF310888F
:1017500072B6634A1368002BFCD0BFF35F8F614BF6
:1017600061499A68030010339F00D55901938D4257
:1017700043D0A54254D05D4EAA1B2F2A3DD85C4BC6
:101780009B461B68994601231A009C4682404B46A3
:1017900013401F2299466346024093409A46802296
:1017A0005B4650469850BFF35F8FEFF305839B462F
:1017B000002B37D0019B5B4501D001F0DBFA012300
:1017C0002A009A439068844208D176E04B005B1867
:1017D0009B00F3189868844236D01A0006215156AF
:1017E0000029F3DA844254D04B46002B27D0C02284
:1017F00051463F4B5200995019603A4B9B68DD515E
:10180000BFF35F8FBFF35F8F0022354B1A6088F301
:10181000108803B0F0BCBB46B246A946A046F0BD56
:101820000D00EAE72A0063469A4390688442D5D1C6
:1018300006201056130000280ADA0D0031E080233C
:1018400051462B4AD150D8E706201856002821DBF4
:1018500042001118890074188B46A1689960E179DB
:10186000D971062161569971002924DBA488F11AE7
:10187000640524155C44091909051E4C490D2143D2
:10188000998013181C4A9B001178F31899711070F5
:10189000AAE713005946002914D1FF319171174965
:1018A000918015490A789A71154A9B1B5B415A43EE
:1018B000120D0A7098E71149E2E70620105613004E
:1018C0000028C5DA0F4A1049D21A083A5002400DD2
:1018D000014399800D4952080A43DA8084E7C046E3
:1018E000240100D000ED00E0CD010010EC1100203B
:1018F00000E100E000E0FFFF812C002001BDFFFFC0
:10190000AAAA00002612002000F0FFFF00F8FFFF47
:1019100070B501240443EFF30581EFF3108C72B628
:10192000214A1368002BFCD0BFF35F8F1F4B0500CB
:101930001F4AED1A6D416A43120D1E4D8900AE68B3
:1019400052B27658A6421CD00621595691421CD05C
:1019500012215956914222D01E215956914220D02F
:101960002A2159560324914210D0134B19781A702A
:101970008171BFF35F8F00220B4B1A608CF31088CC
:1019800070BDAB680D4C5C50EFE700246100091995
:1019900089005B18FF21997109499980E5E70124C5
:1019A000F4E70224F2E7C046240100D0EC11002045
:1019B000AAAA000000ED00E0812C0020CD0100105B
:1019C00001BDFFFF10B5084B084C82B00100009329
:1019D000002205232000FFF7CFFC002801DB1F2396
:1019E000181A02B010BDC046F8FD0010852C00206A
:1019F000024B9C46614489000160704740000034FE
:101A000070B5114C114DAC420FD2FF262368002B4C
:101A10000CD0FFF7F5FC01002000FFF7E9FFA680DE
:101A2000BFF35F8F0834AC42F0D370BDFFF7E8FC22
:101A300001002000FFF7DCFF2671BFF35F8F083441
:101A4000AC42E3D3F1E7C046CC190020DC190020FA
:101A500010B50400FFF7D4FC01002000FFF7C8FF19
:101A6000FF232371BFF35F8F10BDC04610B5040084
:101A70000120FFF7D1FC034BC3189B002360BFF389
:101A80005F8F10BD40000034034B9C4661448900C9
:101A90000160BFF35F8F7047400000340A4B196844
:101AA000EFF3108072B60A68002AFCD0BFF35F8F94
:101AB0001B68BFF35F8F00221A6080F3108840BF5D
:101AC000002000217047C046542C0020F0B5DE46AF
:101AD00057464E464546E0B587B0EFF305820323EF
:101AE000012513409D409900B34AB44B54581D60E2
:101AF000B34B8846A946049329E0A3881BB2002B68
:101B000000DBA5E0A379002B00D0E6E00823E05E2F
:101B1000002800DA0FE1430062691B18DB00D318CC
:101B20009E68DD68731C00D111E1A64B1900414489
:101B30009A6A0B69B01A9B1A984200D20E61A148AA
:101B400000F0AEFB8D4200DDF5E000D12BE14B460D
:101B50009C4843630823E55E002DCEDB62696B0081
:101B600092465B19DB009A4453469E68DF6800F09A
:101B700097FB8F42C1DC00D10BE1002F00DAF0E0CF
:101B80005246534652691B699346049A934200D1C8
:101B9000E1E052460821605E528800045946104335
:101BA0009847029003910299039A0B001000134387
:101BB00000D1D6E013000A00B61A9F41002806DBC8
:101BC000804800F06DFB029E039F36184F4153463C
:101BD0009E60DF6000229A5E002A8EDB5300991817
:101BE0006069C900411801938B68C9689B46B94276
:101BF00000DD82E702D1B34200D97EE708239C468C
:101C0000A444059565462281A446019B2C0006E06C
:101C100053009918C90041188D68C968AB469B18D4
:101C2000DB00C318B94206DC00D1C0E01C00002371
:101C3000E25E002AECDA230064469C4653461A8092
:101C40006346059D1D80A3881BB2002B00DA59E76F
:101C50002269EFF3108172B61368002BFCD0BFF33A
:101C60005F8F0123A7885B42A3803FB22369BFF344
:101C70005F8F00221A6081F31088002F00DA41E79D
:101C80002300083322009A4666697B00DB19DB00DB
:101C9000F318996850468C460824115FDD680029C6
:101CA00010DB019306E0AB424DD00023E15E200043
:101CB000002906DB4C006418E4003419E368AB42E9
:101CC000F1DD019B078000201F5E1980002FDCDA08
:101CD0001400A379002B00D118E70023A37126007C
:101CE0000823E15E08364B1C25D00800A246656932
:101CF00002E03E004B1C1AD04B005B18DB00EF18D3
:101D00000A008C46E95E7B881BB2002BF1DA0123C6
:101D10005B42DC17BB60FC60824205D053463180D9
:101D20001B893B8053461A8160464B1CE4D15446C4
:101D3000002800DBEFE640BF07B0F0BCBB46B24670
:101D4000A946A046F0BDA3686345AED9B9E76B1CB0
:101D500000D0EAE6F3E65B4658461B699847002840
:101D60001BD153461B8822692381EFF3108372B67F
:101D700011680029FCD0BFF35F8F514662880A804A
:101D800022696580BFF35F8F0021116083F31088A3
:101D9000B3E6864200D8F0E6AFE65B461A685B68B9
:101DA00002920393FFE6864200D8D0E6C3E7B3452C
:101DB00000D83BE73FE7C046282C00203C70054098
:101DC000CD1A00100040054070B52E4C2569002D3D
:101DD00004D00A212C48FFF70BFE70BD2B4E0321C7
:101DE000300000F053FAE660FFF70AFB284B0322AD
:101DF0009C46D02322701B061B6801216370254B73
:101E00006044A3600F238000206102206380636927
:101E10004942A18019800231198647311D835852E9
:101E200018315A5275325C3999521832013199522F
:101E3000183201319952183201319952083518324D
:101E40009D5202311832995218320131995218328A
:101E50000131995218320131995218320131995297
:101E60001832013199520C4B0C49DC60013035625B
:101E7000FFF740FB01210320FFF700FB084B1D602B
:101E8000A7E7C04634120020542C00200040054033
:101E900040000034FFFF1000282C0020CD1A001055
:101EA000386005400048704734120020F8B51F0024
:101EB00008AB1B7804001600002B08D100F0F8F9DD
:101EC00032003B00121A8B41002B00DA52E02269EB
:101ED000EFF3108072B61368002BFCD0BFF35F8F56
:101EE0000223E15E63694A005218D2009B182269FE
:101EF000002936DB1D886580BFF35F8F00251560E4
:101F000080F31088069A9E60DF601A61079A5A6112
:101F10005A8801325204520C101C002A1FD082B27F
:101F20005880080410432669EFF3108772B63268B0
:101F3000002AFCD0BFF35F8FA2881A80A18023699A
:101F4000BFF35F8F00221A6087F310880A49237855
:101F50008C4601329A40E36863441A60F8BD012060
:101F6000DDE7BFF35F8F0023136080F3108801204B
:101F70004042F3E70020F1E73C20000070B501008B
:101F80000469EFF3108C72B620680028FCD0BFF310
:101F90005F8F02200D5E4C6968004019C000241854
:101FA0000869002D36DB26884E80BFF35F8F002640
:101FB00006608CF31088E360638804980133206125
:101FC0005B0405985B0CA26060611A1C002B1FD09B
:101FD00093B22804628018430A69EFF3108C72B63A
:101FE0001368002BFCD0BFF35F8F8B8823808D801C
:101FF0000B69BFF35F8F00221A608CF310880B7897
:1020000001329A40CB6808498C4663441A6070BD1F
:102010000122DDE7BFF35F8F002303608CF310889C
:1020200001204042F3E7C0463C20000010B5438940
:102030000A1493421ADD53009B184269DB00D3183F
:102040000469EFF3108C72B62268002AFCD0BFF34B
:102050005F8F5A88090494B2090C8A4208D0036938
:10206000BFF35F8F00221A608CF31088002010BD30
:102070008022120214435C80012302698371BFF342
:102080005F8F002111608CF31088044902788C4620
:102090009340C268012062441360E8E73C200000DE
:1020A00040787047F0B5C64600B582B0040000F035
:1020B000FFF8FA2206000F00200000230021920002
:1020C00001F02AFE8019794104000D1E02DA012474
:1020D0002E4D644206267642F71736196F41AF42FD
:1020E00014D811D000F0E4F832003B00121A8B41F2
:1020F000002B15DC002B46D02000290000F016F93B
:1021000002B080BCB846F0BDA642EBD9002600273D
:1021100000F0CEF832003B00121A8B41002BE9DDB3
:1021200000F0C6F832003B00121A8B41002B0ADB8C
:1021300000230193164B3200009316483B00FFF733
:102140001DFF0130D8D000233900B0469C46124A0A
:102150001248536A994204D8966A4645CCD29942AD
:10216000CAD10668EFF3108772B63368002BFCD033
:10217000BFF35F8F0368BFF35F8F66461E6087F310
:10218000108820BFE5E7002AB6D0C9E7FFFFFF7F30
:102190009D1A00103412002000400540542C0020ED
:1021A000F0B5CE46474680B504000D0083B0EFF38E
:1021B000058399460F00002B42D1314EA04633785B
:1021C000F06804339B00816A1B58601A5B1A9842BE
:1021D00012D320BF2B4900204B6AAB4207D38A6A37
:1021E0005B1B591E8B4141468A424041184303B054
:1021F000C0BCB946B046F0BD00F05AF822002B0032
:10220000121A8B41002B28DB4B4601931E4B2200F8
:10221000009330002B00FFF7B1FE011E1DDD194BAE
:102220005A6AAA422AD39B6A9C4225D83000FFF7FB
:10223000FDFE144A0020536ABB42D8D3926ACFE70E
:10224000104900204B6AAB42D1D38A6A5B1B591EEE
:102250008B41A24240411843C9E70A4A0020536A11
:10226000BB42C4D300204146926A5B1B8A42404174
:102270005A1E93411843BAE7AA42D7D120BFD5E7E7
:1022800034120020004005409D1A001010B5024A8B
:102290000248FFF74FF810BD14FE00108C270020F5
:1022A0000300416A0A00986A596A8A42FAD1704763
:1022B000034B596A0A00986A596A9142FAD17047E9
:1022C0000040054070B504000D00174A536A19001C
:1022D000966A536A8B42FAD13000190024184D4196
:1022E000AB4216D813D0104B2A005B6A9D4203D92B
:1022F0000D494B6A9342FCD3934207D10A4A02E04C
:10230000516A994202D1916AA142F9D370BDA642A5
:10231000E9D9054B5B6A1C005A1CEFD0012201244D
:102320006442E5175242E3E700400540064A536A1B
:102330009942FCD807D1044B02E05A6A914202D17B
:102340009A6A9042F9D8704700400540F8B50400F9
:1023500006200D0000F0F4F9002844D0374B38492E
:10236000E3185A1E93418022120494465B429B0D4F
:10237000344A9B0563441360334A136018000A68AB
:102380009043FBD12D4B314AE31859424B418021F8
:102390005B0049000620995200F0D2F92900C000E4
:1023A00000F002FE0130C3091ED140270122626203
:1023B000A362266BF30722D4E36A254B0620E518B7
:1023C00000232B60266300F0BBF93900800000F089
:1023D000EBFD7023E26A5A400E3313402B601D4B15
:1023E00023630323A364F8BD1B4A93421ED9002331
:1023F0001A4A1B4F6262A362266BF307DCD5194BA6
:10240000144AE3181A60656AA36A0620AD01ED1844
:1024100000F096F9144900F0C7FDAD020100280054
:1024200000F0C2FD0021FFF74DFFC5E74006800E1A
:102430009F011A003F180300B9E7C0460080FCBFA7
:1024400008C0004000E0004000F00040682C002080
:102450002C10000001030000FEFF0000FFFF000041
:10246000C0FF3F00303000004E0E0000064BC31886
:102470005A1E93418022120494465B429B0D034AEC
:102480009B056344136070470080FCBF00E0004080
:102490000539013AF8B5D2004C0105001443002B70
:1024A00006D0013B5A4253419B00234302241C4364
:1024B0002E6BF30708D46E23EA6A624013400E4A7B
:1024C000AA1813602E63F8BD0C4B0D4AEB181A6066
:1024D0006F6AAB6A0620BF01FF1800F031F90949A5
:1024E00000F062FDBF020100380000F05DFD002138
:1024F000FFF7E8FEDFE7C0462C1000003030000098
:10250000010300004E0E0000F8B5066B04000D013B
:10251000F30708D4E36A5D4010231D400D4BE31818
:102520001D602663F8BD0C4B0C4AC3181A60476A3D
:10253000836ABF010620FF1800F002F9084900F085
:1025400033FDBF020100380000F02EFD0021FFF72F
:10255000B9FEDFE72C10000030300000010300005E
:102560004E0E0000F8B5DE464E4657464546E0B5ED
:102570008B4605000A991800160000F015FD0A9B0D
:102580006C001F02324B64199C46A40064446368CB
:1025900081469F4200D967602B1FDBB29846012B12
:1025A00030D9C02380229B01E31812011A60294B05
:1025B000AD0059599A4600291BD17301E0262268C3
:1025C00053401E40802342465B01E3181E60012AEF
:1025D00030D9802380229B01E31812011A605346F0
:1025E0004A4667605A51F0BCBB46B246A946A0466F
:1025F000F8BD586900F0D8FC013043001B18033BBC
:10260000FDD2DAE75B46012BCBD1C02303229B012D
:10261000E3181A60023AA3681A42FCD07301E0265C
:102620002268AD0053401E4080230A4A5B01924657
:10263000E3181E605A462168514003220A401A607E
:1026400001225B469A40A3681A42FCD0C1E7C0460B
:102650000080004094270020F0B546464F46D646FD
:10266000C0B51F00344B44009C462418A4006444A9
:10267000636888461600FF2B02D880235B006360E6
:10268000031FDBB29A46012B30D9C02380229B0165
:10269000E31812011A60294B8500595999460029FF
:1026A0001BD17301E026226853401E40802352460E
:1026B0005B01E3181E60012A30D9802380229B0130
:1026C000E31812011A6080235B0063604B465F5180
:1026D000E0BCBA46B146A846F0BD586900F064FCBB
:1026E000013043001B18033BFDD2DAE74346012BC0
:1026F000CBD1C02303229B01E3181A60023AA368DE
:102700001A42FCD07301E0262268850053401E4027
:1027100080230A4A5B019146E3181E604246216805
:10272000514003220A401A60012342469340A268A6
:102730001342FCD0C1E7C04600800040942700202F
:10274000014B8000C058704794270020F0B54746E1
:10275000CE4680B55B4B16005A680700884683B0AA
:10276000FF2A02D8802252005A600322564B554D50
:102770001A600123AC682342FCD020222968514012
:10278000C0320A4051490A602A684E4D5A4003231C
:1027900013400B600223AC682342FCD080224C4BD8
:1027A00012011A6080235B006B604A4C99464A4BC9
:1027B0003A006361012143464848009600F0D8F989
:1027C00041463800714300F0EFFB454B05005A6865
:1027D000FF2A01D84A465A608022424B12011A60F1
:1027E0002169002907D0606900F0DEFB0130430059
:1027F0001B18033BFDD2E023394A3B4811680B40CC
:10280000036002231168594001330B400421036027
:1028100093681942FCD08021344B09011960802152
:10282000334B490051602361264B5A68FF2A00D878
:10283000596003220121244B1A60224A93681942ED
:10284000FCD0E02310680340204803601268032393
:102850004A40022113401B4A036093681942FCD08E
:1028600080211B4B090119608021224B49005160D6
:1028700065615A68FF2A00D8596080221E4B1201F8
:102880001A60A169002907D0606900F08DFB013052
:1028900043001B18033BFDD2402316490A685A40E7
:1028A000A0331340154A13608022154B12011A60A1
:1028B00080235B004B60084BA36103B0C0BCB946EA
:1028C000B046F0BD3C8000403CB000403C90004031
:1028D0003CA0004094270020006CDC0200800240F5
:1028E0003080004030B000403090004030A00040C8
:1028F000001BB7004880004048B0004048900040AE
:1029000048A00040F0B54E46DE4657464546E0B585
:102910001600924A85B09346A022520091465A462C
:1029200003969B46060001920291019B8C4A9342BA
:102930000DD901235B429C468A4AE1449446019B9F
:10294000634401934B460F2BEFD100208EE01F0014
:10295000854B07249C4667442300634338001900D5
:10296000984600F021FBA246651E864250D06C437B
:102970003800210000F018FB864259D06B1E9846A3
:10298000012D00D1D3E05346E41A2100380000F0B5
:102990000BFB864258D0AB1E9846022D00D1B9E001
:1029A0005346E41A2100380000F0FEFA864264D053
:1029B000EB1E9846032D66D05346E41A21003800DA
:1029C00000F0F2FA864200D172E02B1F9846042DE7
:1029D00000D174E05346E41A2100380000F0E4FA14
:1029E000864200D17DE0052D00D17FE053463800BE
:1029F000E11A00F0D9FA06248642ADD10029ABD104
:102A0000C8465B46D14601250298039E26E0A846AB
:102A10004146380000F0C8FA002900D197E0651E51
:102A2000A2466C433800210000F0BEFA8642A5D1D0
:102A30002100380000F0B8FA00299FD1C8465B4653
:102A4000D1460298039E09E00029A4D15246C2460D
:102A50005B46C846554691460298039E4246434906
:102A600051434A460160012032601D6005B0F0BC50
:102A7000BB46B246A946A046F0BD0029E6D0EB1EF3
:102A80009846032D98D1092138000324092500F028
:102A90008BFA8642BBD00323062138009A460334C2
:102AA000073D00F081FA8642C2D0012398466AE7CA
:102AB0000029CBD02B1F9846042D00D08AE7042490
:102AC0000C353B099E42A2D004230C2138009A46C3
:102AD00008340D3D00F068FA8642A9D002239846DA
:102AE00051E70029B2D0052D00D07FE71921380029
:102AF000192500F059FA864226D01421380000F03A
:102B000053FA052314249A4686421BD0023B98466A
:102B1000153D38E7042302249846BB089E4200D1A5
:102B200076E7A246013D7B089E4200D180E7B7428E
:102B300000D0FEE60122C8465B4691460125029878
:102B4000039E8BE7042573E7A846052460E7C84683
:102B50005B46A14625000298039E7FE750262F0082
:102B600050F80C0020D1FFFFB0710B00001BB70024
:102B7000F8B5040021481E0017000D0000F014FAFB
:102B80000100380000F010FA069B36041B031E43B8
:102B90002368002B20DB1A4B1A49E3185A1E934175
:102BA0008022920194465B421B0B174A1B0363442D
:102BB0001360164A13601F000A689743FBD1144B39
:102BC0002560E2182123A06013602368002BFCDA43
:102BD0000823E6601360F8BD3F2322681340AB4230
:102BE000D9D1A3681B051B0D8342D4D1EE22E36823
:102BF000D2021340B342CED1EDE7C046001BB7006E
:102C00000040FDBF08C0004000E0004000F0004070
:102C10000430000010B580241C4BE4051C60002823
:102C20001AD001231A4C18431A4BDC611A4C444049
:102C30001C62596298628021144BC90519601748BB
:102C400017490860E021C9041960002A07D18022D1
:102C5000144B12061A6010BD0E4BD861EBE75301FE
:102C60009B1A9B009A18802312015B049A4209D296
:102C700013000D490B60074B5A608022094BD205A7
:102C80001A60E8E7094B1A00F3E7C04600B00540B8
:102C9000D3C007B0008005402D3FF84FFCFF010076
:102CA0000820014000A00540002C0020FFFFFF008D
:102CB0008023024A9B000B43D3627047008005408B
:102CC000002310B50100988A1B8B984710BDC046A1
:102CD000162310B50100188802331B88984710BDD1
:102CE000F8B54746CE4680B50F1E18D01423994636
:102CF000043304000025012698464B4618884346B5
:102D000021681B88984701C4431E9841013506403D
:102D1000AF42F2D13000C0BCB946B046F8BD012682
:102D2000F8E7C046002370B504000D00988A0549F5
:102D30001B8B984703000020002C01DB0130A040D2
:102D40002900984755420000AA23064A1B01136038
:102D50002F230549D360054B19605368002BFCDA1B
:102D60007047C0460040024000B0FA0000600240D8
:102D70007047C04610B50148FEF7AEFA38FE0010A5
:102D800070B5074D074EB54209D20024013E761BAF
:102D9000B60808CD984723000134B342F9D170BD7D
:102DA00078F70010B4F7001070B5074D074EB54224
:102DB00009D20024013E761BB60808CD98472300AF
:102DC0000134B342F9D170BDACF70010B4F7001074
:102DD000054B064A06491A60064A074B1A6010005E
:102DE0000B689843FBD1704700E00040BFCDFBFE6D
:102DF00008C00040FE7F3C0000F00040044BDB6C4C
:102E0000002B03D18022034BD2021A607047C046C8
:102E1000000011504C201150044A054B1A60054A1D
:102E20001368DB018033FBD17047C046FFFFFF0111
:102E300000F0004008C000404022034B9A675A67E8
:102E40001A67DA667047C04600F0014010B5FEF719
:102E5000F5FA10BD70B5044D044CA968C0222000DD
:102E600001F03AF8AC6070BD00ED00E00000002019
:102E7000002310B5294C82B0A367FFF765FF01223C
:102E8000274B1A60636C012BFCD10322254B1A607F
:102E9000224A936B012BFCD1013300930121224A7A
:102EA00022480433FFF764FE052301210093204AE2
:102EB0002048FFF75DFE0022022104201E4BFFF791
:102EC000CBFB0022012105201C4BFFF7C5FB002294
:102ED000002107201A4BFFF7BFFB0022002108202A
:102EE000174BFFF7B9FB8023DB0000930022002182
:102EF0000920134BFFF736FB0022104B0021062060
:102F0000FFF7AAFB0420FFF71BFC0E4900F04CF86A
:102F100001000020FFF7CCFE02B010BD0080004091
:102F20003CB0004030B00040002F685900800240A3
:102F3000008C864700C00240001BB7004059730751
:102F4000006CDC0240420F0001480421014B18478D
:102F500050120020E12C0010124A936F9B0815D2EA
:102F60009066D166002905D0FFE7FFE7FFE7516FC4
:102F7000106F704704B580210906C2175140002820
:102F800000D0C8430CF0B0FB002104BDF0B5146EB6
:102F9000556E576F166FFFF7E3FF14665566576758
:102FA0001667F0BD000000D0114A936F9B0813D242
:102FB00010665166002905D0FFE7FFE7FFE7516F74
:102FC000106F704704B5002801D00020C0430CF0FA
:102FD0008BFB002104BDC046F0B5146E556E576FD3
:102FE000166FFFF7E5FF1466556657671667F0BD65
:102FF000000000D094464A4A926F9208624601D27D
:1030000028E0C046F0B5464E346E756E776F366F69
:1030100000F020F89446424A1466556657671667D2
:103020006246F0BD94463E4A926F9208624601D2D3
:1030300054E0C046F0B53A4E346E756E776F366F19
:1030400000F04CF89446364A146655665767166782
:103050006246F0BD002B24DB11D000293EDA00B51A
:10306000C943404200D1013100F038F8C943404221
:1030700000D10131DB43524200D1013300BD002AAF
:10308000EBD1002801D1002905D00020C90FC907C4
:1030900001D1C043410800B50CF00EFB0022002313
:1030A00000BD00B500290ADBDB43524200D10133E9
:1030B00000F014F8C943404200D1013100BDC943BA
:1030C000404200D10131DB43524200D1013300F0D4
:1030D00005F8DB43524200D1013300BD002923D162
:1030E000002B18D1002A0CD0BC460D4F38667A66EA
:1030F00000210023FFE7FFE7FFE77A6F386F67469D
:103100007047002801D00748010000B50CF0D4FA40
:103110000022002300BD02000B00002000217047A8
:10312000000000D0FFFFFFFF002B00D0BFE0130C1A
:1031300028D1002AE7D080B4114F39667A66FFE7BC
:10314000FFE730B4040C7B6F396F1B0423433B66ED
:103150007A66FFE7FFE7FFE7C04684B27B6F3D6F0B
:103160001B0423433B667A66FFE7FFE7C046002364
:103170002C042D0C7A6F386F00196941B0BC704770
:10318000000000D0F0B594460025140E01D11202C3
:103190000835140F01D112010435940F01D19200AA
:1031A0000235D40F01D152000135D40B0134254F23
:1031B0007C66254C3C660E0C93B2FFE7FFE7FFE709
:1031C0003C6F6643360C7703BE467343DF0B5B04EC
:1031D000C01AB941130C7343DB18C91ACE086643F1
:1031E000360CB64493B273431F0F1B01C01AB9418A
:1031F000130C73431F0B1B05C01AB941860D8F02B8
:103200003E436643360C092D24DB520A7243801A72
:103210007703460A6643360C16235B1BDE40DF400D
:10322000BF1964466643821B7046043506330100AD
:10323000D940A840C01900D30131A24206D20023D0
:10324000F0BD0000000000D0FFFFFFFF121B0130A7
:10325000F3D3F1E709277F1BFE406446A2B2724315
:10326000801A00D20139220C7243130C1204821A04
:1032700099410B007046043513370100F940A8400E
:10328000801900D30131002B02D1A2420AD2F0BD35
:10329000013000D30131121BFAD2013BF8D1A24216
:1032A00000D2F0BD013000D30131121BF7E7F0B5B9
:1032B0001C0C00D080E00CB400251C0A04D11B02B9
:1032C000160E3343120208351C0B04D11B01160FD6
:1032D0003343120104359C0B04D19B00960F3343FA
:1032E00092000235DC0B02D192185B4101351C00C3
:1032F000971864410134464F7C66464C3C660E0C80
:10330000FFE7FFE7FFE7C0463C6F6643360C7703F5
:10331000BE4697B27743C01B00D20139C01B00D212
:1033200001399FB27743C91BC91B170C77437E0431
:10333000FF0B801BB941CE086643360C0C2D33DBE6
:10334000B644120B1F053A431B0B97B27743C01BC1
:1033500000D201399FB27743C91B170C77433E0453
:103360003F0C801BB941860D8F023E4366432927DF
:103370007F1BFE400C3D7746AF40BF1930BCA2B268
:10338000ABB272437343801A9941220C7243130CFF
:103390001204801A994102000B000137001BA94159
:1033A000F9D2781E0021F0BD0C277F1BFE40774626
:1033B0007F0BAF40FF19E0E700245D1C07D0144FDE
:1033C0007D663966FFE7FFE7FFE7FFE73C6F95B2F1
:1033D0009EB265436643401BB141150C1E0C65430C
:1033E000664336042F0C3E432D04401BB1419942E5
:1033F00004D202000B0020000021F0BD01D1904258
:10340000F7D3801A994101349942F2D3F6E70000CC
:10341000000000D0FFFFFFFF48404140484018B483
:103420001B4B5B68FC46019308BD04DF433700106B
:1034300018B4174B1B68FC46019308BD00DF4D37DD
:1034400000109446134A926F920809D2624618B44B
:103450000F4BDB68FC46019308BD0CDF053A0010FA
:103460000C4AF0B5146E556E576F166F6246FFF733
:10347000EEFF084A1466556657671667F0BD18B424
:10348000034B9B68FC46019308BD08DFA938001078
:10349000681B0020000000D0FFB550404240504063
:1034A00059404B40594000E0FFB5154F4C00640DAA
:1034B00003D0BC4204D10C0314D80020090D090527
:1034C0005C00640D03D0BC4204D11C030AD8002266
:1034D0001B0D1B0501264B4009D44B4003D58B42E5
:1034E00000D18242FFBD9942FCD19042FFBD0B4307
:1034F000DB1803431343F5D0C9434918FFBD00004F
:10350000FF07000000B5FFF7CFFF01D0002000BD8E
:10351000012000BD00B5FFF7C7FF804100BDC046D8
:1035200000B5FFF7C1FF01D9002000BD012000BD9B
:1035300000B5FFF7B1FF01D9002000BD012000BD9B
:1035400000B5FFF7A9FF804100BD012040054A00FA
:10355000121804D85A00121801D800207047012010
:10356000704700000021002805D17047C11748406E
:10357000401AFAD0C90713B5064B1B6898470CBC14
:10358000441CA2401005120B0349091B09051943ED
:10359000114310BD4C2C00201F04000010B54C003E
:1035A000620D8023D218DB00D21A5B057E2A10DD63
:1035B0009E3A13DACC170903490819435242D14005
:1035C000640001341532202A05DAD04008436043F4
:1035D00010BD002010BD0846604310BDC80FC018C4
:1035E000013810BD18B4044B5B6AFC46019308BD5A
:1035F00024DFB53B00100000681B002018B4044B0A
:10360000DB6DFC46019308BD5CDF653C00100000EB
:10361000681B0020C94211D300B5490049080022A7
:1036200000F018F8002904D4002240428A411146D3
:1036300000BD80210906002000BD000018B4044B25
:10364000DB6EFC46019308BD6CDFC33B001000003D
:10365000681B002018B4044B9B6FFC46019308BD07
:1036600078DFDF3B00100000681B0020132370B5DB
:103670001D78012D19D014DD1F48FFF729FB060026
:103680001E48FFF725FB1E4C80223100200000F071
:1036900023FC022D2DD01B48FFF712FB1A4B18609C
:1036A00070BD1A4B164CA364F5E7184B144C2360FD
:1036B0006360A360E36023616361A361E3612362EC
:1036C0006362A362E36223636363A363E3632364CC
:1036D0006364A364E36423656365A365E3652366AC
:1036E0006366A366E36623676367A367E367A36410
:1036F000D1E7064BA364CEE75344000053460000D5
:10370000681B00204C3300004C2C002011370010A7
:1037100007B5604601880A0A0230DF2AFAD1C9B229
:10372000820804D3028840880004104300E0006847
:10373000014A5050039007BD681B00200FB403BC22
:103740000CBCF0B50124E407634000E0F0B50C0DBB
:10375000CF0F661E3605891B640503D3C94340425B
:1037600000D30131640D03D0661CF60A07D0E41BB8
:1037700000207F00791C89078912803C24031D0DDD
:10378000DF0F6E1E36059B1B6D0503D3DB435242D4
:1037900000D301336D0D03D06E1CF60A07D0ED1B6C
:1037A00000227F007B1C9B079B12803D2D032F1B5B
:1037B000661B58D4A446202E46DA20371400BC409D
:1037C0001D00BD40F24033412A4380185941CB0FC0
:1037D00005D0C943C0430022644250415141624672
:1037E0004D0D28D10D0D07D100281FD024194041BF
:1037F0004941013A0D0DF9D0640006D3013000D3E0
:103800000131002C01D140084000013A0BD4941C36
:10381000E40A04D112051144DB071944F0BDD907AD
:10382000204B194300E0D9070020F0BD0029DDD16D
:10383000002CDBD1F0BD0132C6074008CD0728437C
:103840004908002EE1D0D9E73C2E29DA203E403746
:103850001400BC4000D00124F24014431A00BB40C5
:103860001C43D317ACE7AC46202F08DA20360400FF
:10387000B4400D00B540F84039412843A5E73C2F3E
:103880000CDA203F40360400B44000D00124F84058
:1038900004430800B1400C43C117EAE710001900C7
:1038A000002494E70000F07FF0B50C0D661E36058D
:1038B000891BE60A6405640D02D0651CED0A04D07C
:1038C000002001210905803C2403A4461C0D671E2D
:1038D0003F05DB1BE70A6405640D02D0651CED0A99
:1038E00004D0002201231B05803C2403774064445C
:1038F00097B484B296B27443070C7E43150C6F43A1
:1039000080B26843361802D3012000043F18300407
:10391000350C00197D41844688B29AB250430C0C94
:1039200062431F0C7C438EB27E43921902D3012660
:103930003604A4191604170C3618674101BC81B26D
:103940009AB25143040C62431B0C5C4380B258434F
:10395000121802D30120000424181004130C40187C
:1039600063412D185E410020474106BC88B293B2E6
:1039700058430C0C6343120C544389B251435B18F7
:1039800002D301210904641819041A0C09186241B0
:103990006D1856410020474118BCF902720D1143C1
:1039A000F0026A0D1043ED020A0D03D16D1940417A
:1039B0004941013B124E9B1B7600B3420ED26D0073
:1039C00007D30130002671416646354301D14008D6
:1039D00040001B05C918E4072144F0BD0BDA013390
:1039E00006D1013004D101314F0D01D04908F2E771
:1039F000E1070020F0BD013631050020EBE70000B3
:103A0000FF030000F0B51C0D671E3F05DB1BE70A36
:103A10006405640D02D0661CF60A04D0002201235E
:103A20001B05803C2403D0252D060026F6432E6678
:103A30001E096E66CE0FF619B44649004F0D02D02E
:103A40007E1CF60A03D000200021403F3F033E1BAE
:103A5000B600B444013F7F05C91B49082E6F0136EB
:103A600076089C02950D25437543ED137543AD1300
:103A700001356D10F603761B0CB4CC02450D2C43BA
:103A8000A2B2B3B25A43270C7B43350C6F43A4B2A6
:103A90006C431B1902D3012424043F191C041D0C80
:103AA000A4187D4124196D41009A91B2ACB26143D2
:103AB000170C7C432B0C5F4392B25A43A41802D3D9
:103AC00001221204BF182204230C52187B41019CCE
:103AD0006C431B19520ED9010A434401A01A81B24A
:103AE000B2B2514303145A43360C734387B277433F
:103AF000D617D21900277E4136049B191704160CDD
:103B00007F185E417316ED18F3010026803375416E
:103B1000A90F06D16400690AE8055B0A184309D2B7
:103B20002FE00422944480337541A90AA8059B0A1A
:103B3000184326D3404149412404009A019B0D00BB
:103B40005543641B4343E41A95B286B27543170C80
:103B50007E43030C5F4392B25A43B61802D301224C
:103B60001204BF183204330C52197B4152429C415B
:103B7000002C02D40022013051414008CA071043F2
:103B8000490802B06246D7079210084BD218084B7A
:103B90009A4203D212058918C919F0BD0020002AE3
:103BA00001DC3900F0BD01331905F5E7FD03000024
:103BB000FE070000002200B5203200F010F80800D7
:103BC00000BD002200B500F00CF8CA179A4200D1DF
:103BD00000BDD8430121C907414000BD00220B159B
:103BE0000AD410B5944600F079F81414013400DAC0
:103BF0000021CB17144C204700200021704762445D
:103C0000343A0CD40C2A07DA040091409040524216
:103C10002032D440214310BDD843D94310BD2032B7
:103C200007D40C469440524220321141D0402043E8
:103C300010BD0800C917203203D45242203210416F
:103C400010BD1800190010BDFF3B001000210A0034
:103C5000002104E000210A00C11704E00022002333
:103C600006E0C0460022CB1758405940C01A99417F
:103C700030B5184CA21A002903D1010010D0002041
:103C8000203A4C1512D104D2013A001849414C0D8A
:103C9000FAD3114CA24204D212058918DB07C918C5
:103CA00030BDD243520D00200021F5E703D4013A84
:103CB00000184941FBD50B324405C00A4D05284385
:103CC000C90A640003D0002460416141E1E7E0D308
:103CD0004408F8E732040000FE0700000A0DCC0F8C
:103CE000531E1B05C91A520503D3C943404200D3D2
:103CF0000131520D03D0531CDB0A07D0121B0020E8
:103D00006400611C89078912803A1203014BD21AA0
:103D100070470000FF03000051434343C9188C461D
:103D2000110C83B24B4310B4040C614392B280B2C5
:103D3000504362431C041B0C001910BC594113046E
:103D4000120CC0185141614470470000132310B594
:103D500012481C78FEF7BCFF0100012C0AD003DDDD
:103D600080220F4800F0B8F80E48FEF7A9FF0E4B6E
:103D7000186010BD0A4C5422200000F0ADF80B4B27
:103D80006365A365E36523666366A366E3662367ED
:103D90006367A367E3672362E361E5E753460000D7
:103DA000681C00204C3300004C2C0020B13D00105A
:103DB00007B5604601880A0A0230DF2AFAD1C9B283
:103DC000820804D3028840880004104300E00068A1
:103DD000014A5050039007BD681C002070B50400D4
:103DE0000A4E30000BF0C0FC200004F093FD0500EB
:103DF00030000BF059FC002D05D0054B2C199C42CE
:103E000001D8280070BD0348FDF766FACC190020E0
:103E10000000042044FE0010F8B506000C000C4F12
:103E200038000BF0A1FC2100300004F013FD050068
:103E300038000BF039FC7443002D05D0054B2C19CC
:103E40009C4201D82800F8BD0348FDF745FAC0465A
:103E5000CC1900200000042044FE001070B50500BD
:103E60000C000B4E30000BF07FFC2800210005F009
:103E70005BF8050030000BF017FC002D05D0054B5A
:103E80002C199C4201D8280070BD0348FDF724FA84
:103E9000CC1900200000042044FE001070B504007E
:103EA000054D28000BF060FC200004F03DFD2800CB
:103EB0000BF0FAFB70BDC046CC190020014804216C
:103EC000014B184760120020E12C0010014B1B68C9
:103ED0001847000060120020014B5B681847000083
:103EE000601200207047C046F8B55746DE464E4681
:103EF0004546E0B599460A9B07009A460D9B8846C1
:103F000093460B9C9B073BD10C9B9C423DD21E1BB6
:103F10000B9415000C005E442A004B46013521002D
:103F20002020B847B542F7D1A0460B9C002C20D0EA
:103F3000454636195346321B013C185D29004B4655
:103F4000B847002CF6D12B00350098460D9B9B07F7
:103F50000FD55B46EC1A0C9BA3420AD946469846FD
:103F60002A004B46310020200134B8470135444532
:103F7000F6D32800F0BCBB46B246A946A046F8BD21
:103F800016001500002CD3D1E0E716001500002C18
:103F9000CED1EEE7F0B54546DE4657464E46E0B593
:103FA00085B09C4610AB1B78149F934698460F9C97
:103FB000129E139DBB074CD4002D42D1B44248D26F
:103FC00001233B4099460E9B013B9A46302304E077
:103FD000524601341355A64201D9202CF8D14B4644
:103FE000002B00D183E00E9B013B99463023A54274
:103FF00005D82EE04A4601341355AC4229D0202C76
:10400000F8D1FB060CD57B0554D4A64263D0A5425B
:1040100061D0119B102B50D0022B57D0202C32D1C5
:10402000202301930E9B5A46009303976346029503
:10403000FFF75AFF05B0F0BCBB46B246A946A04602
:10404000F0BD01233B40994601233B422AD1B442B3
:10405000B9D3FB061CD57B05DBD4002CD5D1119B35
:10406000102B5BD0119B022B6BD0302301240E9AB6
:1040700013704346002B10D17B073ED52B260E9A9A
:10408000631C1655CDE72300013430260E9AD65412
:10409000202CC5D04346002BEED02D260E9A631C53
:1040A0001655BEE74346002B2FD0013DB44200D247
:1040B00089E798E7119B102BB2D1BB0637D5202C8E
:1040C000AED058230E9A13550134A7E7202CA7D061
:1040D0002300013407E0631E012CC0D0119A102A7E
:1040E00031D0022AD1D162260E9AD65496E7FB0629
:1040F000CED57B0500D488E78BE723003E0790D51B
:1041000020260E9A013316558BE70C233B405A1E8E
:104110009341ED1AB44200D255E764E7BB060ED4D2
:1041200078230E9A0224137030235370A1E7202CB9
:1041300000D175E778230E9A135501346EE75823A2
:10414000EFE76033EDE70E9AA61E91464E44BA069D
:1041500002D55822327098E77822327095E7C0462F
:1041600010B5002800D110BD01F020FDFBE7C046CE
:104170000B0010B5002802D049681B68984710BD95
:10418000F0B55746DE464E464546E0B595B0834607
:104190000F00924698461E9A1F9B10001900209E01
:1041A000FFF7D3F9002800D0EAE11E981F990122F9
:1041B000C54B5242FFF7AEF9002800D014E11E981B
:1041C0001F990122C14B5242FFF7BAF9002800D0D3
:1041D000E9E01E981F990022BD4BFFF7B1F90028B6
:1041E00000D0C8E01E981F990022BA4BFFF792F941
:1041F000002800D0BFE01E981F9900220023FFF77F
:1042000089F9002800D0E4E000230B93229B5B0592
:1042100000D406260024302307E0172106AA013423
:1042200052181355013E202C01D0092EF5D81E98A6
:104230001F99FFF7B3F9A84BF2009B181A685B6847
:10424000050008920993FFF791F902000B001E98F0
:104250001F99FFF7E4F8089A099BFFF710F90690F9
:104260000791FFF7BFF98146FFF77CF902000B00C9
:1042700006980799FFF7D3F80022984B069007910C
:10428000FFF75EF9002800D10DE101239C46E144CF
:104290004846FFF767F902000B0008980999FFF7F5
:1042A0003FF9002802D0002399460135002E00D1A5
:1042B000D9E006954D46B94614E006AA9446172360
:1042C0000A216344280001341F19FEF76DFE3031C6
:1042D000397028000A21013EFEF766FE092D00D83C
:1042E00017E10500202CE8D14F46069D20240CAE96
:1042F00006AA17239446634499465B46B346069341
:104300000FE04B4628000A210134E618FEF724FE90
:104310003031280031700A21FEF71EFE051E00D143
:10432000E4E0202CEDD1069B5E469B460323229AB7
:104330001340012B18D1219B002B15D00B9B002B78
:1043400000D1FDE0219B013B2193202B0CD9302390
:10435000219A07E0172006A9013409180B55944249
:1043600000D3CCE0202CF5D1229B01940393219B18
:104370000096029322E0229B52460493219B39002F
:10438000039358461E9B1F9C02960093019443463C
:1043900000F04AF90400200015B0F0BCBB46B2465C
:1043A000A946A046F0BD229B5B070FD403224C4BCD
:1043B000229901920391219900930291434652461A
:1043C00039005846FFF790FD0400E4E70422454B0E
:1043D000EEE71E9A1F9B00200021FFF720F8012323
:1043E0001E901F910B9311E7229B54469B0711D1FE
:1043F000219B042B0ED9219B55469C465E46043CCE
:1044000064442A004346013539002020B047A542C4
:10441000F7D1B346344D26002B1F99465B46A34681
:104420001C003200E87843463900013DA0470136C0
:104430004D45F6D123005C469B46229B04349B07E6
:10444000A9D55346219AE31A9A42A4D95E4615008B
:104450002200434639002020B04753460134E31A76
:104460009D42F5D897E72800FFF780F802000B007F
:104470001E981F99FEF7D3FF0022184B0690079154
:10448000FFF748F80CAE002800D031E706980799EE
:104490000022124BFFF754F8002800D028E7012330
:1044A00001359D4324E70022069807990B4BFFF73F
:1044B00031F8002800D0F9E64B46002B5CD10123EF
:1044C0009C46E144F2E6C046FFFFEFFFFFFFEF7FAF
:1044D00065CDCD4165CDCDC1680301100000E03F41
:1044E00090FE001088FE001098FE0010069B5E46AD
:1044F0009B460323229A1340012B00D181E0202CFC
:1045000000D131E70B9B002B27D02D2333550134ED
:104510002AE74F46069D202C00D1E7E630223319CA
:1045200007E0172006A9013409180A55202C00D1EC
:10453000DCE6A342F5D12E220CAE0134F254D7E6CC
:104540000C23229A134257D0219B013B2193A34273
:1045500000D9FCE6202C00D106E7229B5B0703D59F
:104560002B2333550134FFE6229B1B0700D4FBE6C7
:10457000202333550134F7E6DB0700D496E69EE7A7
:10458000229B55469B0711D1219B032B0ED9219BC2
:1045900054469C465E46033D654422004346013432
:1045A00039002020B047AC42F7D1B346B9465F4648
:1045B0001C4EEC1C2A00B078434649460135B847EA
:1045C000013EAC42F6D1229BBB464F469B0700D42E
:1045D000E1E65346219AE31A9A4200D8DBE65E46AA
:1045E00015002200434639002020B04753460134CD
:1045F000E31AAB42F5D3CEE6219BA34200D9A6E64F
:10460000B2E6219B002B00D179E70B9B002B97D0C2
:10461000219B013B21939C4200D298E6202C00D0A4
:1046200073E7A1E694FE0010F0B5DE4657464E460D
:104630004546E0B599B081468B4692469846229A07
:10464000239B10001900FEF780FF002800D0CAE06D
:10465000229823990122824B5242FEF771FF0028D3
:1046600000D0C0E02298239901227E4B5242FEF7EF
:1046700051FF002800D0B6E02298239900220023A1
:10468000FEF748FF002800D0C9E1229B239C089335
:104690000994089809998023269ADB001A400D9204
:1046A0008022269C1201144022000B94269C0700B5
:1046B0000E001C4200D0ADE00B00034300D0D5E05B
:1046C000002A00D00AE2220006332493022313407A
:1046D0000C930223134200D002E2259B042B00D24C
:1046E0000FE2043B0B93002304250A930022229837
:1046F00023990023FEF70EFF002800D003E25A4B57
:10470000269A134004930B9B0393249B0293089BCC
:10471000099C009301945946434652464846FFF788
:104720002FFD02002020269B1F27034059424B41AA
:104730005B421840531C0893594643464530C847CE
:104740000A9AD317D4185C40D30F0A936B1E0B93AD
:1047500008AB9C460025674401E0202D0FD02000C7
:104760000A21FEF721FC01357E193031317020001D
:104770000A21FEF719FC26000400092EEDD80523B6
:1047800006930B9B59460593002304930A33039326
:104790000A9B4846029310AB0093089A4346019542
:1047A000FFF7F8FB0C9B002B2DD05346C41A259B1A
:1047B000A34228D94D465F4681461E005346390024
:1047C0001A19202043460134A847A642F6D853467A
:1047D00048462599C21A01320023914200D386E14E
:1047E000013018180FE0269B0493259B0393249B0C
:1047F0000293229B239C00930194434652465946C0
:104800004846FFF7BDFC19B0F0BCBB46B246A9460E
:10481000A046F0BD01432BD10B9B2200002B00D101
:1048200054E700230A93249B0A9A0024934200DD54
:1048300085E12298239900220023FEF76BFE0028D1
:1048400000D035E1269B084A02941A408023DB0001
:1048500013430493259B0393089B099CCBE7C04615
:10486000FFFFEF7FFFFFEFFFFFF7FFFF062324931C
:10487000B44B70009C46400D6044FEF777FEB24A90
:10488000B24BFEF7FCFDB24AB24BFEF7D1FD360348
:10489000B14B360B334304000D00380019000022E1
:1048A000AE4BFEF7BCFDAE4AAE4BFEF7E8FD020094
:1048B0000B0020002900FEF7BBFDFEF76FFE0A90FB
:1048C000FEF754FEA84AA94B04000D00FEF7D7FDE1
:1048D0000022A74BFEF7ACFDFEF760FEA54A0600DE
:1048E000A54B20002900FEF7CAFD040030000D0092
:1048F0000C96FEF73BFEA14AA14BFEF7C0FD02005D
:104900000B0020002900FEF78AFD02000B000600C4
:104910000F00FEF7B4FD320004000D003B00300034
:104920003900FEF785FD00220E900F91954B200077
:104930002900FEF786FD0022934BFEF779FD020069
:104940000B0020002900FEF77CFD00228F4BFEF7B4
:104950006FFD02000B0020002900FEF772FD0D0024
:104960008021040032003B000020C905FEF757FDFE
:1049700002000B0020002900FEF75AFD02000B0088
:104980000E980F99FEF75DFD0022734BFEF750FD68
:104990007F4B0C9C9C46644400222305FEF76FFD70
:1049A00006000F0002000B0008980999FEF7B2FDFF
:1049B00000280AD00A9B3000013B39000A930022EC
:1049C000714BFEF73EFD06000F000A9A330063327A
:1049D0003900C62A12D802222698042510400B9AC4
:1049E0000C90002A25D1259B042B05D9002800D046
:1049F000A1E0259B043B0B93042541E0022226986D
:104A000010400B9A0C90002A12D1259B052B76D9C9
:104A1000002872D1259B0525053B0B9334E08022AD
:104A200012069446229B0893239B6344099330E625
:104A300005250B4300D1F6E608980999554A564BCF
:104A4000FEF776FD002808D0089809990022534BFC
:104A5000FEF760FD002800D0E5E6249B002B1CD06B
:104A60000D9B002B19D0249B013B2493259BAB422B
:104A700004D90C9B002B5AD002230C9300230B93D8
:104A80000A9B002B00D131E60898099932003B00BF
:104A9000FEF7D7FC0890099128E6259BAB42EDD99B
:104AA0000C9B002B43D000230B9302330C93E7E7BE
:104AB0008020269B3A4A00061A40802384460294AE
:104AC000089C099D2900DB0013430493259B614446
:104AD000220003930B00009201938EE60524A8E6C2
:104AE00000230B930A93023304250C93FEE55346EF
:104AF0008C46013B63441B1A72E602230C93052586
:104B0000C2E70423EDE58020089E099F00063900D6
:104B10008446269A224B6144134004930B9B320037
:104B20000393249B02930B0000920193F3E5259BD2
:104B30005B1B0B93A4E7022304250C93A0E79C1AAC
:104B4000013C76E601FCFFFFFB799F501344D33F05
:104B5000B3C8608B288AC63F0000F03F0000F83FD2
:104B600061436F63A787D23F71A379094F930A40CE
:104B70000000E03F1655B5BBB16B0240EF39FAFEBD
:104B8000422EE63F00002C40000024400000184068
:104B9000FF0300002D431CEBE2361A3F80842E41B8
:104BA000FFF7FFFFF0B5DE4657464E464546E0B5F7
:104BB000A5B01E002E9B92460C93CD4ACD4B80464D
:104BC0008B461A60002900D1EAE10023307899462B
:104BD000002800D1ECE1C84B4C460B93C74B45462F
:104BE00057460E930AE0631C984622003B00594644
:104BF000A84744463078002800D187E001362528B0
:104C0000F1D108239A46043B9946023B9846013B62
:104C100000229C460D943078711C0300203BDBB2CF
:104C2000102B03D80B9C9B00E3589F460300303B9E
:104C300089460D9C092B3AD9002398462A2800D191
:104C4000C1E000239A462E284BD00300683BDBB21C
:104C5000122B1ED80E999B00CB589F4663460E0020
:104C60001A43D8E743460E001A43D4E74B460E00DA
:104C70001A43D0E710230E001A43CCE753460E0028
:104C80001A43C8E780235B001A43FF3B9C467078B9
:104C9000E1444E4667284FD82428A4D90300253B79
:104CA000DBB2422B9FD896499B00CB589F460023EE
:104CB00094461E0000E00131B3009B195B001E18F2
:104CC0000878303E0300303B092BF4D901236246BB
:104CD00089469C460023B0469A460E00E1442E28A1
:104CE000B3D13021802049428C46C0000243707805
:104CF0004B4684446146092900D86CE12A2800D13A
:104D00007AE101239C464E46E1449EE7A146A8462F
:104D1000BA46CA4503D801235B42534499465346D9
:104D20004A4659460020C047200025B0F0BCBB468B
:104D3000B246A946A046F0BD0300693BDBB20D9325
:104D40000F2B00D94FE7012199408C466D498946C8
:104D500061464B4619400F91634649460B4200D0CD
:104D600028E10D9B0A2B3AD0072B00D03BE70C9B88
:104D7000190008C98846002B00D14BE121200243CD
:104D8000914614A98C461F220F2162448C4651463D
:104D90000D950C91A24615000F9902E020290CD028
:104DA000130064461C4020003730092C00D8073817
:104DB000013168541A090F2BF0D80C9B54460D9DF5
:104DC0009A460F9133E10C9B02CB8846002947DBC2
:104DD0000C9301239C4670784E46E14431E70C9BCE
:104DE00002CB14935346002B00D138E19C4608783F
:104DF0000B000C908C44002801D100F098FC8946EF
:104E00006146944603E05A780133002A01D08B4270
:104E1000F9D1494662465B1A0C900F93530500D5B1
:104E200020E10223180010400D90134200D1CBE383
:104E30000D930B1BB1469A465E460C9822003B0030
:104E40003100A84753460134185D0028F6D1B34617
:104E50004E460D9B002B00D0C7E1149B0C93C9E676
:104E60000C9301239C4628384942024388467078B7
:104E70004E46E144E5E670786C2800D17FE180235E
:104E80005B001A43FF3B9C46E14402E780239B0002
:104E90001A4301239C467078E144FAE6707868284A
:104EA00000D173E180231A437F3B9C46E144F0E646
:104EB000672800D103E1472800D15AE1452800D1F5
:104EC0005AE10492072142460C9B03920733524653
:104ED0008B43190002920CC92800009201930C9197
:104EE00022003B005946FFF79FFB040082E6C046C4
:104EF000A54B0010FC2B0020CC010110100201106A
:104F00005C02011041900000462800D1DBE00492D1
:104F1000072142460C9B0392073352468B431900EC
:104F200002920CC92800009201930C9122003B00D0
:104F30005946FFF725F904005CE6631C98462200F9
:104F40003B0059462520A847444653E60C9B0433B2
:104F50000D93631C9946920700D422E10C9B22001A
:104F6000187859463B00A84743464444012B00D8D3
:104F700085E23300B8462E005F4625004C46994630
:104F800022004346013439002020B047AC42F7D11B
:104F90002C00BB46350047464E460D9B0C9329E638
:104FA000DB4B3078984600239946002800D012E663
:104FB0000024AEE66F2800D188E000D80BE3102370
:104FC000782800D1CFE09A430A239C4600230F9310
:104FD0000A330D9380E05646B10089194900013328
:104FE0000E181878303E010030390929F4D9B2463C
:104FF0001E000133994628E60C9B023602CB8A46F6
:10500000C9435046C917084082460C933078731C38
:1050100099461AE61023100098431133184381462D
:1050200080201300C0000340024200D1A9E64B4695
:1050300006930823059353460493102303930023F8
:1050400002930F9B220001931CAB009359463B0037
:105050002800FEF79FFF434604000C93CAE5012396
:105060005B42C3E60F9B534501D953460F9302237E
:10507000180010400D90134200D1B7E10D93D146B6
:105080000B1B9A463300A1442E0022004D460C987B
:10509000B9465F469B4608E04B463900541CB04772
:1050A0005346185D002877D022009542F4D15B4624
:1050B000BB464F46A94635004C461E00C9E6802334
:1050C0001B011A43FDE620231A4320E708239C46D0
:1050D00000230F9308330D9380231100DB00194048
:1050E0001A4200D116E10D239A43100080230200DA
:1050F0009B001A401492184200D0C2E180230200A3
:105100005B001A4091460C9A04320F92184200D06C
:10511000B7E2430600D59FE1030600D419E30C9BD8
:105120001B880993002B00D0FCE110339843002921
:1051300000D1F7E100239946434605935346049373
:105140000D9B069003930023D2E0582808D06228D4
:1051500067D102239C4600230F9302330D93BBE7D4
:1051600020231A43103B9C4600230F9310330D93CA
:10517000B2E780231B011A4320231A43A1E6C02370
:105180009B001A43F31C9946B07882E5C0231A436A
:10519000F31C9946B0787CE535005E46BB464F4629
:1051A00057E64346012B00D863E1631E43449A4609
:1051B0003300B9462E005F4655469B46A246220064
:1051C0004B46013439002020B047AC42F7D13500BE
:1051D0005E46BB464F46A14654460C9B4A4618784D
:1051E00059463B004444A847D7E6A1460F9B984543
:1051F00000D832E64444E41A3300B8462E005F4635
:1052000025004C46994622004346013439002020AF
:10521000B047AC42F7D12C00BB46350047464E465E
:105220001BE680231000DB0018401A4200D10FE17A
:10523000112118008A430D920D9A802311009B00C2
:1052400019408C461A4269D1802311005B00194035
:1052500089460C9904310F911A4200D0CAE113001B
:105260005B0600D5F0E013001B0600D459E20C9B4E
:1052700000229B5ED9175A184A4092B2D90F0C915E
:10528000002B00D1F9E1100014AA944642461F23D6
:10529000149252466344A84616944D460400B946FB
:1052A000B2461F00159201E0202D0FD020000A21E8
:1052B000FDF77AFE01357E193031317020000A2168
:1052C000FDF772FE26000400092EEDD8149B4F4610
:1052D000A94645469846159B56469A46169C0D9BF0
:1052E000069343460593534604930A2303930C9B6A
:1052F00002934B4601931CAB2200009359463B009E
:105300002800FEF747FE0F9B04000C9372E4C04692
:10531000E53E00100C239A431000E7E607220C9BA1
:1053200007339343013294469C4462460C920CCB63
:10533000D90F0F911100194300D191E0D9171391A2
:10534000129151401091139959401191109811994F
:10535000129A139B801A99411090119114AA00235C
:10536000944642469946149252461F336344A846D7
:10537000B24616944E46109C119DB94615921F00D8
:1053800001E0202E10D0200029000A220023FDF782
:1053900049FE013630322B00BA550D0022000400C0
:1053A000002BEED1092AECD8149B10941195454698
:1053B0009846159B4F46B14656469A46169C0D9BFD
:1053C000069343460593534604930A2303930F9B86
:1053D00002934B4601931CAB2200009359463B00BD
:1053E0002800FEF7D7FD0400FFF704FC0F9B98454B
:1053F00000D8C1E18023DB000D9343460F9A1B19AF
:105400009B1A994633002E004D46B9465F469B468F
:105410000C9122004B46013439002020B047AC42A9
:10542000F7D143460C9901330F930B7835000C9359
:105430005E46BB464F46002B00D10EE50D9B002B70
:1054400000D1F6E4002319E60C9B1B781A0015E73F
:1054500010239A430D92EFE60C9B1B78099361E6AB
:10546000002399460028AAD100220023109211930C
:1054700074E70C9B2200187859463B00A8474C461D
:105480008BE50C9AFA3BFF3B07329A43013399466E
:1054900091444B460C931368526815921A4306D1F7
:1054A0001032904300220992002900D081E061224D
:1054B000810600D54122D2B20A9214AA91460A9AD4
:1054C00000210A3A149242461792524618925A46BE
:1054D0000991B3461F311E000F9B4944BA461994E7
:1054E0001A950024674698468946159D16901B928A
:1054F0000AE03032D2B24B4601341A55A8454AD0A0
:10550000202C4AD006000D003A000023300029006C
:10551000FDF788FDD2B2092AEBD9149B9C46624460
:10552000D2B2E8E76123820600D54123DBB20A3B11
:105530000C93434614A91F228C461593534662448C
:10554000A046B2464C461797A9461700099D0D9EE6
:105550001490169308E03033DBB201343B55B5426A
:105560000ED3202C0CD0050031002800FDF71CFDC7
:10557000CBB20929EFD90C9A94466344DBB2ECE72D
:10558000159B4D46A14644469846169B5646149890
:105590009A46179FD0E5B742B2D9179B574698460F
:1055A000189B5E469A461B9B09949B461698199C2D
:1055B0001A9D43460593534604930D9B069003930F
:1055C00000230293099B05E70F9B984500D914E738
:1055D00001330F932DE41023110099430D91692895
:1055E00000D0BAE080231000DB0018401A4200D13E
:1055F00022E61DE60C9B1B68DA0F1100002B00D180
:105600008CE0DA179818504014AA914642461F239E
:10561000149252464B44A046A9461697040065468C
:10562000B2461F000C91159201E0202D0FD02000F2
:105630000A21FDF7B9FC01357E19303131702000A7
:105640000A21FDF7B1FC26000400092EEDD8149BB9
:10565000444698460C9BAC461900159B56464D4651
:105660009A46169F0D9B0291069343460593534617
:1056700004930A23039363463CE6002800D02EE6F9
:1056800002E60C9B1B689946002B03D1103398430C
:10569000002938D16123820600D54123DBB20A3BC1
:1056A0000C9343461693534614A91F228C46179316
:1056B0002B006244A0464D46B24618979946170003
:1056C000149C0D9E159008E03033DBB201343B553D
:1056D000B5420ED3202C0CD0050031002800FDF778
:1056E00063FCCBB20929EFD90C9A94466344DBB230
:1056F000ECE7169B149444469846179B56464D4635
:105700009A461598189F43460593534604930D9B5C
:105710000690039300230293149BEBE50028A1D18C
:1057200072E70C9B1B68D9175A184A40A6E58023DC
:105730001000DB0018409C460F901A420FD0022048
:10574000030013400F93104219D00023A1460F937A
:105750004CE50C9B1B680993E4E40A0034E4022343
:10576000180010400D90134200D03EE54346002B38
:1057700000D042E6FFF771FB01330F937FE46346ED
:105780000D93F3E710B50C0084B00394012402A933
:1057900002900093034813006242FFF703FA04B03B
:1057A00010BDC046714100100FB430B50C4985B032
:1057B00008AA08CA0D680392002D0CD0009201229D
:1057C000084C5242200002A9A847012005B030BC75
:1057D00008BC04B01847180000F032FA0020F5E7C2
:1057E000FC2B00206141001010B5094A0300146829
:1057F00084B0002C08D0012200910648524203A92F
:10580000A047012004B010BD00F01AFA0020F9E70B
:10581000FC2B00206141001000BEFDE7094A030097
:105820001068002805D00849C3188B4207D81360B8
:10583000704706480449C31810608B42F7D901200D
:105840004042F5E7F427002000000420882C0020C7
:1058500010B5FFF7E1FFC04630B50D0083B0190069
:10586000002A0BD0074B084C0192009302002B003A
:105870002000FFF799FF0120FFF7CEFF034B1A002E
:10588000F1E7C046A0FE0010B0FE0010ACFE001014
:1058900070B5FDF775FA074D074EB54209D20024E1
:1058A000013E761BB60808CD984723000134B34269
:1058B000F9D170BDB4F70010BCF70010030010B5AB
:1058C000080011001B68984710BDC046F0B5C646D9
:1058D00000B5437D07000C001600002B46D0002ABF
:1058E00017DD0B780A2B24D000239846012E13D005
:1058F00001252900635C01350A2B26D0B542F8D179
:10590000464509DCA419013C23780D3B5A4253411A
:105910003B7580BCB846F0BD4346E018A419F11AA7
:10592000013C3B68984723780D3B5A4253413B75F5
:10593000EFE7037D002BD7D102210F483B68984742
:10594000012EDFD001239846D2E7631E5B5C0D2B4E
:10595000D4D0884504DA4346C91AE0183B68984712
:10596000022105483B68A8469847C7E7036811002D
:1059700020009847CDE7C046B8030110F0B5C646F1
:105980000B6806000C0000B5802B06D05A1C226064
:10599000E418267180BCB846F0BD0F4B1D68002D81
:1059A00016D00B1D98460D4F02E02D69002D0FD02B
:1059B0002B68002BF9D03B68002B01D0AB42F4D10F
:1059C000280041462268FFF781FF2D69002DEFD1A5
:1059D00001220023DBE7C046E4270020F027002057
:1059E000F0B54546DE464E465746E0B583B0914693
:1059F0001C0080460D00FCF75BFC0023304A1218A7
:105A00004B41002B02DA01222E4B52422E49080054
:105A10008A4609F089FE07006B1C03D1404606F058
:105A20009BF90500002C27D0284E294B1C68002C20
:105A300018D04B46002B21D1264B994602E0246911
:105A4000002C0FD02368002BF9D04B461B68002B8D
:105A500001D09C42F3D120002A004146B04724697E
:105A6000002CEFD1002F26D1280003B0F0BCBB469C
:105A7000B246A946A046F0BD174ED6E7154B99464B
:105A80000A239B4602E02469002CEBD02368002BFC
:105A9000F9D04B461B68002B01D0A342F3D12A005A
:105AA00041462000B0476B465A462000DA71D91DA6
:105AB0000122B047E7E7504609F0F6FDD4E7C046BB
:105AC00040420F00FFFFFF7FD4190020CD58001087
:105AD000E4270020F0270020BD5800100A4A136870
