:020000041000EA
:1000000000B5324B212058609868022188439860DF
:10001000D860186158612E4B002199600221596106
:100020000121F02299502B49196001219960352056
:1000300000F044F80222904214D00621196600F024
:1000400034F8196E01211966002018661A6600F04E
:100050002CF8196E196E196E052000F02FF8012189
:100060000842F9D1002199601B49196000215960AB
:100070001A491B48016001219960EB211966A021F2
:10008000196600F012F800219960164914480160C1
:100090000121996001BC002800D000471248134993
:1000A000086003C880F30888084703B5996A0420EC
:1000B0000142FBD001200142F8D103BD02B5186610
:1000C0001866FFF7F2FF186E186E02BD00000240BE
:1000D000000000180000070000035F00212200005C
:1000E000F4000018222000A00001001008ED00E03C
:1000F00000000000000000000000000074B24E7A12
:1001000000200420F7010010CB010010CD010010E9
:10011000C9010010C9010010C9010010C901001077
:10012000C9010010C9010010C9010010CF01001061
:10013000C9010010C9010010D1010010D301001045
:10014000C1010010C1010010C1010010C101001067
:10015000C1010010C1010010C1010010C101001057
:10016000C1010010C1010010C1010010C101001047
:10017000C1010010C1010010C1010010C101001037
:10018000C1010010C1010010C1010010C101001027
:10019000C1010010C1010010C1010010C101001017
:1001A000C1010010C1010010C1010010C101001007
:1001B000C1010010C1010010C1010010C1010010F7
:1001C000EFF30580103800BE00BE00BE00BE00BECA
:1001D00000BE00BEF2EB88713CA400105CA40010CD
:1001E0003802001090A31AE71E481F49086006C88D
:1001F00081F3088810471D480068002801D019487D
:10020000F3E70DA40ECC002902D000F012F8F9E7B4
:100210001749184A002000E001C19142FCD116495B
:100220008847164988471649884700BEFDE701C937
:1002300001C29A42FBD370475CA40010C0000020AA
:10024000C818002064BC0010000004200000042036
:1002500064BC001000100420001004200000000006
:10026000704700000000000008ED00E0000000D032
:10027000C8180020102A0020BD560010F9060010F2
:10028000B5560010F8B5C04606480749091A8B1044
:10029000C90FC91810B5491003D0044B002B00D06A
:1002A000984710BDC8180020C818002000000000A2
:1002B000054B10B5002B03D00449054800E000BFF2
:1002C000FFF7E2FF10BDC0460000000048290020F3
:1002D000D493001010B50F4805F0A6FB0E4C20007B
:1002E00000F0B0FB0D490E4805F020FC0D4B1B68DB
:1002F000986808F09BFB00220849200000F058FB9A
:1003000043425841C0B200F071FA200008F0F0FFFB
:1003100010BDC046D8930010201D002090C0D6000C
:10032000F4930010B4160020F0B5C646294C2A4FAD
:1003300000B53900206800F0CBFF21680500274890
:1003400005F0F4FB002D3DDB3E003C00244805F0A9
:10035000EDFB244D0A3621782800013405F0E6FB38
:10036000B442F8D10A2005F015FB1F4D38002E00CD
:10037000A8462C00290001F0B9F81C4805F0D6FB6E
:100380001B4F4F3629783800013505F0CFFBB542B9
:10039000F8D10A2005F0FEFA4F224046154903F035
:1003A00067FD154805F0C2FB21783800013405F0DF
:1003B000BDFBB442F8D10A2005F0ECFA002080BC65
:1003C000B846F0BD29000D4805F0B0FB02204042C0
:1003D000F5E7C046C0110020682900201C940010D9
:1003E0005894001068940010A02900207094001008
:1003F00088940010309A00108C94001038940010EB
:1004000000B585B0104803AB02AA01A902F0E6FAD4
:10041000002803D10D480C4901F09CF9039A029978
:10042000019802F001FA05F0B1FAFA20800001F01B
:1004300085FF192001F06AF9D02380221B0692045F
:100440005A6205B000BDC046B01E0400A49400105E
:1004500010B50220D02401F059F904232406636268
:100460000420A36101F052F9102305206362A36107
:1004700001F04CF9202306206362A36101F046F9E4
:10048000402307206362A36101F040F98023032029
:100490006362A36101F03AF9082308206362A36153
:1004A00001F034F980235B00A3620A2001F02EF9E9
:1004B0008023DB00A3620B2001F028F980231B01BD
:1004C000A3620D2001F022F980239B01A3620C207E
:1004D00001F01CF980235B010249A362024805F088
:1004E00025FB10BD249A0010D894001070B5D024BC
:1004F0002406636890B09B043AD480251F4EAD0457
:100500006420656101F01AFF6420A56101F016FF07
:100510006420656101F012FF6420A56101F00EFF07
:10052000642001F00BFF6420656101F007FF642087
:10053000A56101F003FF6420656101F0FFFE642006
:10054000A56101F0FBFE300008F0A2F863689B048F
:10055000D6D5300008F0F2F832004021684602F0AB
:100560004DF86946064805F0E1FA012010B070BD6B
:10057000044805F059FA0020F8E7C046C4110020ED
:1005800014950010FC940010F0B5D0254F46464657
:10059000D64680232D06C0B56E68DB001E406C6811
:1005A000454B7205D20F1A702405444AE30F1370AD
:1005B0001C006B689146DB05414ADB0F13706B68CA
:1005C000404F9B04DB0F3B703F4B90469A461B7895
:1005D000002E3FD1002B4AD13C4D2B78002C2DD141
:1005E000002B4ED142463A4C15782378002D19D174
:1005F000002B4FD1374C3D782378002D06D1002BAE
:1006000051D1E0BCBA46B146A846F0BD002BF8D1A6
:10061000314805F009FAD02380221B069A61012394
:100620002370EEE7002BE5D12C4805F0FDF9D0232F
:1006300008221B069A6101232370DBE7002BD1D12E
:10064000274805F0F1F9D02320221B069A610123E7
:100650002B70C7E7002BBFD1224805F0E5F9102326
:100660005246AB610F3B13704B461C78B4E71E48F3
:1006700005F0DAF910236B6153461E704B461C7867
:10068000AAE71A4805F0D0F9D02320221B065A61A8
:100690002C70A7E7164805F0C7F9D02308221B06DF
:1006A0005A612570A6E7134805F0BEF9D0238022D1
:1006B0001B065A612570A4E70E2A0020072A002095
:1006C0000D2A00200C2A0020CF110020CE1100207E
:1006D000CD110020CC110020C8950010A09500106D
:1006E000749500104C95001038950010609500101E
:1006F0008C950010B495001030B5D025802483B0BF
:10070000FFF77EFE07F0A8FF284807F0C1FF2D067F
:1007100005F02AFCA40407E016206C6101F00EFE2F
:100720001620AC6101F00AFE05F090FC0028F3D021
:100730001F4B204A2049214805F0F8F91223019364
:100740000B3B0522042100931D48013B05F0EEF907
:100750001C4B1B68986808F069F91B4805F064F9A0
:1007600012211A4A1A4800F057F843425841C0B2C1
:1007700000F03CF8174805F057F9FFF769FEFFF75E
:10078000B5FE154B187000280AD1144805F04CF935
:10079000134807F0EFFD134805F046F908F088FD0F
:1007A000114805F041F9FFF7BFFDEEE7C411002045
:1007B0008C96001090960010949600109C96001055
:1007C000C0960010B4160020F496001080DF1710B9
:1007D000201D002020970010042A002060970010A0
:1007E000D5020010849700104497001070B50028BF
:1007F00000D070BDD024802519302406AD0400F04F
:1008000085FF65623220656101F098FDFA20A561DF
:10081000400001F093FDF5E7F0B5C6460400431E25
:100820009841150000B5C0B28CB00E00FFF7DEFF96
:100830002800431E9841C0B2FFF7D8FF5C22002178
:10084000200003F00FFB5248A564A6605149606088
:1008500007F0DAFD01212062606807F0B9FDE06170
:10086000A06800F053FF61684B4BA068C918090DE0
:100870000631C9B200F032FFE369676802930023D2
:10088000266AA06880220793C021F82308AD5B0286
:10089000520209030492059303900691102204A9C1
:1008A000280003F0E5FA33000C33F2011B03134375
:1008B0002900102204A8099303F0DAFA374B1F220B
:1008C0000693802303985B0302401343324A804619
:1008D000B918090D0631C9B2079300F0FFFE0121D6
:1008E00000910299424601233800884607F008FE2D
:1008F00080235B02320041460493380004AB07F0CA
:1009000057FE0126404686403B6880221E43002356
:100910003E60C021266A0B93F82352025B02090352
:10092000089209930A911022290004A803F0A0FA62
:1009300033000C33F2011B03134304A910222800D7
:10094000059303F095FA23000C3307CD07C3144B2E
:1009500061692A681940134B60680B43F821636191
:10096000A36889005B010B400F490A4013430F4AFB
:10097000E16913408022D2041343A36123003200B3
:100980000C3307F015FE00200CB080BCB846F0BD5B
:1009900000002050809A00100000E0AF00000E40E0
:1009A000FFFFF50100000A401FFCFFFFFFFFFFE310
:1009B000F0B5CE4647468046431E984180B5C0B24A
:1009C00083B014008946FFF711FFFA22002348463E
:1009D000D200002103F0DAF94246260000250194F6
:1009E000E717946C36184F41E10E6001001BA941D6
:1009F000820F94468B006344820012196B41D40627
:100A000050092200D9064318FC07700820187910F5
:100A10008018594132003B0002F0BAFB4246506256
:100A2000FC22074B120680181860424649460020F7
:100A3000019B1165536503B0C0BCB946B046F0BD1B
:100A40009029002070B50400431E9841C0B2FFF702
:100A5000CDFE01221500E36961689D402B00086806
:100A600003430B60A26570BD3038C3B20922002079
:100A70009A4240417047C046202203000020934321
:100A8000413BDBB2073A9A4240417047002310B520
:100A90001C0082425C4188425B412340180010BD2B
:100AA00070B5050008000C0008F0CCF92100020028
:100AB000280008F0D9F843425841C0B270BDC04682
:100AC00010B508F073F943425841C0B210BDC0469A
:100AD0000378002B09D0002203E00132835C002B55
:100AE00003D09942F9D11000704701225242FAE72F
:100AF00030B5037804000D0083B02D2B1AD02B3BAA
:100B000059425941A9421ADA00239C46002006E0C6
:100B100083001B185B000131D0188D4204DD625C3C
:100B2000303AD3B2092BF3D96346002B00D04042B0
:100B300003B030BD012301219C46012DE6DC0020DD
:100B4000F6E7C046F0B5D6464F4646460500C0B566
:100B5000794984B0FFF7A4FF2B780024202B05D11E
:100B600039E001342B5D2600202B02D0002BF8D178
:100B7000260028007149FFF793FF002802D0221FAA
:100B8000072C31DD28006E49FFF78AFF00280ED0C0
:100B9000A878FFF771FF002809D0072C00DCB3E02C
:100BA000A878FFF761FF6878FFF75EFF0BE0A87891
:100BB000FFF75AFF002800D170E0062C00DC8DE022
:100BC0006878FFF751FF202320259A469946202672
:100BD0002027202119E028005849FFF761FF00264F
:100BE0000028CFD004225242202302AEF370554B8E
:100BF000291DF01CB38003F03BF93379F578994651
:100C0000737944279A46302633214F48FFF760FF17
:100C10008046002800DA74E039004C48FFF758FF9E
:100C2000071E00DA6DE031004948FFF751FF0190DF
:100C3000002866DB474E29003000FFF749FF051EFC
:100C40005FDB49463000FFF743FF041E59DB514686
:100C50003000FFF73DFF002853DB4146CB005B1817
:100C60009B00DB199A00D318019A5B00D618730019
:100C70009B19DA009B18ED186B005B19DA009B18C2
:100C8000E41863001B19DA009B18C018324BC01817
:100C900004B0E0BCBA46B146A846F0BD6878FFF79C
:100CA000E3FE002800D18EE7052C00DD8BE7202332
:100CB00002AA5370234B29005380938002AB320069
:100CC000581C03F0D5F802AB5F789E78DD781B796D
:100CD0002021994602AB5B799A4696E71F4B02ACFE
:100CE0000293184B290032002000A38003F0C0F8C3
:100CF000237921789946637967789A46A678E578CA
:100D000083E701204042C3E7202302AA53700D4B22
:100D1000A91C5380938002AB581CA21E03F0A8F8B4
:100D200002AB5F789E78DD781B795121994602AB42
:100D30005B799A4669E7C046A0970010A497001017
:100D4000AC97001020200000E89E0010C09E00100C
:100D5000B49E0010989E0010E87C5F0020202020A8
:100D600010B5041E57D02E49FFF7AAFE00281DD14A
:100D700020002C49FFF7A4FE002819D120002A49A1
:100D8000FFF79EFE002848D1522241212078FFF72C
:100D90007DFE002818D12378522B0BD00321200090
:100DA000FFF7A6FE214BC01880B200E0204810BD1E
:100DB0002048FCE70321601CFFF79AFE1B4BC31879
:100DC0001D48184380B2F2E7522241216078FFF7B4
:100DD0005DFE0028DFD0A078FFF746FE0028DAD0BD
:100DE000E078FFF741FE0028D5D02378413BDA00B8
:100DF0009B1862785B00413A9B189A009B18A27876
:100E00005B00303A9B1898001818E3784000303B9C
:100E1000C01880B2CBE70948C9E70948C7E7C04610
:100E2000C0970010C4970010CC970010B37E00004C
:100E3000927E0000937E00000080FFFF917E000004
:100E4000947E0000F0B54E46DE4657464546E0B576
:100E50000C0083B02021060007F028FF002800D1F5
:100E60000CE1884F451C39003000FFF719FE0028BF
:100E700040D039002800FFF713FE00282FD00023B0
:100E8000019300939B469A46002700269946984670
:100E90002021280007F00AFF002848D00130FFF782
:100EA0005FFF0821830A82088001084341462170C0
:100EB0004946617051462171594660720020617146
:100EC0000099A670A1710199E7701943E17122722E
:100ED00003B0F0BCBB46B246A946A046F0BD280010
:100EE0006949FFF7DDFD002859D0802301930023D5
:100EF0000093C7E7644B300019009846FFF7D0FD18
:100F0000002818D039002800FFF7CAFD002834D087
:100F10000023202128009B469A4610270026994648
:100F200098460193009307F0C1FE0028B6D14820EF
:100F3000A4221F23BAE7554B300019009946FFF74A
:100F4000AFFD00284CD13000FFF7FCFD3900060052
:100F50002800FFF7A5FD002859D0331E00DA8DE0E8
:100F60001F010023760072159046721391469B462E
:100F70009A467611019300938AE71027012641468D
:100F80002800FFF78DFD00283AD08023019300232D
:100F900000269B469A4699469846009378E7280093
:100FA0003A49FFF77DFD002862D100262800FFF7AF
:100FB000C9FD33003200034360D4760073159846B0
:100FC0007313994643009F16120117439A149246D1
:100FD0009A129B100093C30193467611019357E731
:100FE00039002800FFF75CFD002826D000232027C9
:100FF0009B469A460026994698460193009347E7F8
:1010000028002249FFF74CFD0028CFD020E04146C0
:101010002800FFF745FD002812D0331E2EDB1F01EC
:101020008023019300237600721590467213914637
:101030009B469A46761100932AE7202702269EE7D0
:1010400049462800FFF72CFD0028AFD0002E15DB05
:1010500033001F0100230193013300930023760026
:1010600072159046721391469B469A4676110FE789
:101070000023019301330093002303E70120404242
:1010800026E7C046B0970010B4970010BC97001038
:10109000F0B5DE46454657464E46E0B5050083B0FE
:1010A0000C0007F0CFFE2B78202B00D00BE1A846D8
:1010B0000123984443461B78202BF9D04346ED1A70
:1010C0002E1843465A1E002E04DC86E0013E002EF8
:1010D00000D182E0935D202BF8D00922002120006E
:1010E00002F0C0FE37000D2E00DDEAE00023994635
:1010F000764B2A259A46237AE2796B436A439BB260
:1011000023721B0A9B18A2799BB26A43E3711B0AE4
:101110009B1862799BB26A43A3711B0A9B182279C0
:101120009BB26A4363711B0A9B18E2789BB26A43C5
:1011300023711B0A9B18A2789BB26A43E3701B0AB7
:101140009B1862789BB26A43A3701B0A9B18227893
:1011500063706A431B0A9B1823704A4643465046F5
:10116000995CFFF7B5FCC343DB1703405B009BB200
:10117000002B2BD0227A9B189BB223721B0A25D0FE
:10118000E2799B18E3711B0A20D0A3795A1CA27143
:10119000130A1BD063795A1C6271130A16D0237983
:1011A0005A1C2271130A11D0E3785A1CE270130AF8
:1011B0000CD0A3785A1CA270130A07D063785A1C6B
:1011C0006270130A02D023780133237001239944FB
:1011D0004F4590DC0C2E06DD66E009220021200040
:1011E00002F040FE0027237AE6789B46E379A57853
:1011F0009A46A379607899466379984623799C4604
:10120000237801932A235A465A4392B2D1B28B468D
:10121000514659438A46120A92445146C9B252462F
:101220008A4649465943894692B2120A9144494630
:10123000C9B24A46894641465943884692B2120A83
:1012400090444146C9B242468846614659438C465D
:1012500092B2120A9444624661465E4392B2120A06
:101260005D439619C9B2B2B25843120A8C4601992D
:101270005519AAB25943120A1218D0B2120A5218BA
:101280000137F6B2EDB201920D2FBCD15B4623724D
:101290005346E3714B46A371434663716346E67060
:1012A0002371A570607022700122237A9343237208
:1012B0000023637203B0F0BCBB46B246A946A04609
:1012C000F0BD0D2712E70600A846FAE6109F0010B1
:1012D00070B504000D00FFF7B5FD002803D029000C
:1012E0002000FFF7D5FE002070BDC046F0B5574680
:1012F000DE464E464546E0B50B1A87B0013B8246B6
:101300000591022B00D8C6E00B0003439B0700D0D9
:10131000C1E003680B6043684B60836808008B6022
:101320000A2200210C3002F09DFD6E4B56461A0039
:101330000B230493053398463378147850781C4077
:1013400023095C40A3085C40737891781840030936
:10135000584083085840B378F57819400B09594034
:101360008B085940D37800912B401D096B409D0894
:101370006B400193357913792B401D096B401F0099
:101380009D086F405379757902972B401D096B407A
:101390009D086B4003939579B379F7791D402B092C
:1013A0005D40AB085D40D3791F403B097B409F08FF
:1013B0007B409B46377A137A1F403B097B409F084E
:1013C0007B409A46777A537A1F403B097B409F08BF
:1013D0007B409946B77A937A1F403B097B409F0830
:1013E0007B409C46D77AF37A3B401F095F40BB089D
:1013F0005F40230043404B40019964084B400299F1
:1014000040084B4003994B4059466B404B40514676
:101410004B4049464B4061464B407B405C40009B03
:1014200060405908019B41405B084B4002996D08A0
:1014300049084B4003997F0849084B4059466B4087
:1014400049084B40514649084B40494649084B40E2
:10145000614649084B405F4001233B4205D044466A
:10146000059904980B5C23430B5443465B0898464C
:1014700005D1049B0133DBB20493802398461A4BB9
:101480000C32934200D057E707B0F0BCBB46B246DF
:10149000A946A046F0BD5346059A1B78100013706C
:1014A00053465B78537053469B7893705346DB7872
:1014B000D37053461B79137153465B79537153466E
:1014C0009B7993715346DB79D37153461B7A137220
:1014D00053465B7A537253469B7A93725346DB7A38
:1014E000D3721DE7A49A0010889E0010F0B5DE4666
:1014F0004E4645465746E0B58DB00E0006AD03A9F1
:1015000000F096F8290003A8FFF7F0FE45490B000C
:10151000334301919B0768D14B780A781B02134330
:101520008A7812041A43CB781B06134333600B7975
:1015300033714B7973718B79B3713B4B1D220093DF
:101540003A4B00209B4640239C46012399460223A8
:101550009846032380219A465242243610E064467E
:101560000130295C0C4049B2002928DA002C2AD02D
:1015700051460B432021DBB25C46E35CB35401329D
:10158000062A49D91300243B062B21D92C5C2300C1
:101590000B405F1EBB414F089B00002FDFD03C4239
:1015A00002D047463B43DBB28F082CD101302C5C84
:1015B00040217F2CE0D94C462343DBB2DCE72021DD
:1015C000002CD9D0F7E741460B43DBB22021D3E70B
:1015D000009B9B5CB35401322B2AD1D10DB0F0BCDF
:1015E000BB46B246A946A046F0BD0B7833704B7897
:1015F00073708B78B370CB78F3700B7933714B7950
:1016000073718B7998E73C4201D001242343C908C8
:10161000B2D101308031AFE7019B9B5CB354013202
:10162000AEE7C046909E00106C9E0010889E001091
:101630000B1A013BF0B5022B39D90B0003439B0772
:1016400035D103680B6043684B60037A0B72437AB1
:10165000072293439C4680264B72002300240022DD
:1016600007251D4F8B72B60115420AD1085D013462
:1016700080014340334217D05B0001327B4015426A
:10168000F4D033420ED05B007B400132522AEBD1C2
:1016900060469B045A0F10435A0D5B0B48728A72C6
:1016A000CB72F0BD5B00F0E75B000132DCE7037852
:1016B0000B7043784B7083788B70C378CB70037951
:1016C0000B7143794B7183798B71C379CB71037A39
:1016D0000B72437ABCE7C0465727000010B5402480
:1016E000074A83009A181268C0005440C022224062
:1016F000044C1B191A60044BC018416010BDC04651
:1017000004C0014004D00140004001400123D02228
:101710008340120693629361084A83009A18116805
:101720004022514080320A400549C0005B181A60CF
:10173000044BC018052343607047C04604C00140F5
:1017400004D00140004001408023DB051868000FF1
:101750007047C0460FB400B5084883B004F064F980
:10176000049B002B07D005A91800019103F046FF48
:10177000034804F059F9012003F058FFD0970010F6
:10178000E0970010EFF3108072B6034A1368002B45
:10179000FCD0BFF35F8F70472C0100D0BFF35F8F89
:1017A0000022024B1A6080F3108870472C0100D091
:1017B00070B58C461600EFF3108472B60F490B68B3
:1017C000002BFCD0BFF35F8F6346DB08C5180722F0
:1017D000C05C63461A40012393401A000240034252
:1017E00007D118432870BFF35F8F0A6084F3108815
:1017F00070BD61463000FFF7ADFFC0462C0100D040
:10180000F8B5CE4647468C4680B51C00EFF31088ED
:1018100072B61C490B68002BFCD0BFF35F8FA2424D
:1018200021D80723994602E00132944218D3494651
:10183000012611408E40D308C718C35C1E42F3D165
:10184000100033433B70BFF35F8F00220D4B1A60D3
:1018500088F3108800280EDBC0BCB946B046F8BD3E
:1018600001204042EFE7BFF35F8F00230B6088F356
:101870001088012040426346002BEDD00898FFF706
:1018800069FFC0462C0100D0044A1078431CDBB22B
:10189000172B00D9102313707047C046D0110020B9
:1018A00000B5054B83B00100009318221F230348A5
:1018B000FFF7A6FF03B000BDE4970010CC24002082
:1018C0000021044B044ABFF35F8F02C39342FAD155
:1018D0007047C046000100D0800100D0084B094A83
:1018E0001360094A1360094A1360094A1360094AE0
:1018F0001360094A1360094A1360094A136070476C
:101900008080808000E400E004E400E008E400E07F
:101910000CE400E010E400E014E400E018E400E06F
:101920001CE400E01F2318401E3B8340002905D023
:10193000C021044A49005350136070478022014976
:101940008B50FAE700E100E001228240034B1B6864
:1019500013405A1E9341D8B27047C04600E100E0E0
:1019600001238340014A13607047C04600E200E053
:10197000054B10309B688000C358044A00209B1A16
:101980002F229A424041704700ED00E0D411002020
:1019900070B50D00EFF3108672B60F4A1368002B76
:1019A000FCD0BFF35F8F0D4B10309B6884001B5938
:1019B0000B4A934203D09D4201D001F05BFA074BE2
:1019C0009B681D51BFF35F8FBFF35F8F0022024BF7
:1019D0001A6086F3108870BD240100D000ED00E08D
:1019E000C1010010F0B5DE4657464E464546E0B50B
:1019F000824683B08B461700EFF3108872B6604AB8
:101A00001368002BFCD0BFF35F8F00255D4B5D5743
:101A10009946002D00DA9AE04A466B005A4C5E194E
:101A2000B6000193A31900939B791370574B9A68E2
:101A3000534610339B00D15899460B1B2F2B32D99C
:101A4000534B994200D098E0019B0236ED18514B60
:101A5000AD006353504BA619043B9B1B4F4A1B051B
:101A60005B0D651913436B804D4B0121AB80FF2348
:101A7000AB715B46AB60009BEF710B4319004A46AC
:101A8000424B9B689950BFF35F8FBFF35F8F00227B
:101A90003B4B1A6088F3108803B0F0BCBB46B246DB
:101AA000A946A046F0BD01200A008243D379B4467E
:101AB000BB422DD83B4BB51C190013001B1B5B41CF
:101AC0005943090D8C46334B6519A353324B00998A
:101AD000043B5B1B1B05314D5B0D2B4304364B80D8
:101AE000A619131F9B1B1B055B0D1D4363468B71C2
:101AF0005B468B602C4B8D80CF7113600143BEE73A
:101B00005800C01880002018C679BE4225D90200AE
:101B10000623D356002BF3DA9A46131D9C4623481E
:101B20006346009E9571043EF61A36051B4B760DF2
:101B30001E43019B96805A1953469200A418A37124
:101B40005B46194AA0802260E771A36097E701F025
:101B500091F900254B465D575EE766469A46131D90
:101B60009C469088043640050015A6196044801BE9
:101B700000050A4E400D3043D2E701F07BF963E7E0
:101B8000240100D0082A0020D411002000ED00E03C
:101B9000C101001000A1FFFF0412002000E0FFFFC0
:101BA00001BDFFFFAAAA00000148804701BD000057
:101BB0000123034370B59C46EFF30581EFF31085D5
:101BC00072B6214A1368002BFCD0BFF35F8F1F4B06
:101BD00004001F4AE41A64416243120D1D4C89003F
:101BE000A66852B2765866451CD0062159569142D5
:101BF0001CD012215956914222D01E215956914291
:101C000020D02A2159560324914210D0124B197822
:101C10001A708171BFF35F8F00220B4B1A6085F33E
:101C2000108870BDA3680D4C5C50EFE70024610084
:101C3000091989005B18FF21997109499980E5E725
:101C40000124F4E70224F2E7240100D0D41100209B
:101C5000AAAA000000ED00E0082A0020C10100103F
:101C600001BDFFFF00B5074B83B0010000930022C8
:101C700005230548FFF7C4FD002801DB1F23181AC0
:101C800003B000BD009800100F2A0020024BC918B5
:101C9000890001607047C0464000003470B5114CA7
:101CA000114DAC420FD2FF262368002B0CD0FFF75A
:101CB000EBFD01002000FFF7E9FFA680BFF35F8F77
:101CC0000834AC42F0D370BDFFF7DEFD0100200008
:101CD000FFF7DCFF2671BFF35F8F0834AC42E3D31C
:101CE000F1E7C046B8180020C818002010B504005D
:101CF000FFF7CAFD01002000FFF7C8FFFF23237193
:101D0000BFF35F8F10BDC04610B504000120FFF780
:101D1000C7FD034BC01880002060BFF35F8F10BD6C
:101D200040000034034BC91889000160BFF35F8F86
:101D30007047C046400000340A4B1968EFF310802A
:101D400072B60A68002AFCD0BFF35F8F1B68BFF32E
:101D50005F8F00221A6080F3108840BF00200021AE
:101D60007047C04694290020F0B5DE4657464E46DF
:101D70004546E0B585B0EFF3058303221A40B34B27
:101D800091005F58012393409B4602925A46884631
:101D9000AF4B1A60AF4B03935B46AF4843630823D6
:101DA000FE5E002E37DABB881BB2002B00DBA4E0FE
:101DB000BB79002B00D0E5E00823F95E002920DB89
:101DC0004B007A695B18DB00D3189D68DC686B1CDC
:101DD00000D104E1A04801004144826A0B69AE1AB7
:101DE0009B1A9E4215D30123026A029883401A422D
:101DF0000FD0994800F0AAFB8C4202DCCCD185427E
:101E0000CAD940BF05B0F0BCBB46B246A946A04601
:101E1000F0BD0D61EDE77A69730091469B19DB0017
:101E200099444B469C68DD6800F090FB8D42BADC1B
:101E300000D1F6E0002D00DADBE04A464B4652695D
:101E40001B699246039A934200D1CCE04A4608218E
:101E5000785E5288000451461043984700900191E3
:101E60000099019A0B00134300D1C2E013000A004D
:101E7000002B00DBD9E020002900801A99414B4655
:101E80009860D96000229B5E002B00DA8BE75D0032
:101E90007C69EA18D200A21800949468D268A2461D
:101EA0008A4200DD7FE702D1844200D97BE7082423
:101EB000A4463B81BC44009C00972F006546B44675
:101EC0003E0006E05E00F218D200A2189768D268C1
:101ED000BA468A4207DC00D1B4E0F318DB00E5180B
:101EE000E35E002BEEDA66464A46009F13802E80A2
:101EF000BB881BB2002B00DA5AE73A69EFF3108176
:101F000072B61368002BFCD0BFF35F8F0123BE882D
:101F10005B42BB8036B23B69BFF35F8F00221A6021
:101F200081F31088002E00DA42E73B0008333A00C4
:101F300099467D6973009B190824115FDB004846B0
:101F4000EB18002913DB9C680093A446DC6806E0CC
:101F5000A34240D00023F95E3800002906DB4F0081
:101F60007F18FF00EF19FB68A342F1DD009B06809C
:101F700000201E5E1980002EDCDA1700BB79002BD2
:101F800000D119E70023BB710823F95E4B1C00D177
:101F900037E73D000835AC467C6903E084464B1CBE
:101FA00000D109E74B005B18DB00E0180A00E15E96
:101FB00043881BB2002BF1DA01256D42EE178560D4
:101FC000C66008257B5F9342E9D0634619803B8950
:101FD00003803A81E3E7BB686345BBD9C6E7631C6E
:101FE00000D0F7E605E7534650461B69984700289E
:101FF00023D14B461B883A693B81EFF3108372B6BD
:1020000011680029FCD0BFF35F8F49467A880A80A7
:102010003A697E80BFF35F8F0021116083F31088DF
:10202000C1E6844200D805E7BDE60B4800F08EFA11
:10203000009B019CC018614121E753460CCB0092E4
:1020400001930DE7824500D847E74CE7742900204B
:102050003C700540691D00100040054070B52D4CD6
:102060002569002D04D00A212B48FFF70FFE70BD13
:102070002A4E0321294800F05FFAE660FFF704FCCE
:10208000274B0322C018D02322701B061B68012196
:102090006370244B8000A3600F23206102206380C3
:1020A00063694942A18019800231198647311D8335
:1020B000585218315A5275325C39995218320131DE
:1020C000995218320131995218320131995208351A
:1020D00018329D52023118329952183201319952F8
:1020E00018320131995218320131995218320131A6
:1020F00099521832013199520B4B0C49DC60013076
:102100003562FFF745FC01210320FFF70BFC084B6C
:102110001D60A8E71C120020942900200040054003
:1021200040000034FFFF100074290020691D0010DA
:1021300038600540004870471C120020F8B51F00A9
:1021400008AB1B7804001600002B07D100F006FA3C
:1021500032003B00121A8B41002B51DB2269EFF356
:10216000108C72B61368002BFCD0BFF35F8F022374
:10217000E15E256900293ADB4B0060695B18DB00F2
:10218000C218C35A6380BFF35F8F00232B608CF3A8
:102190001088069B9660D7601361079B5361538834
:1021A00001335B045B0C181C002B1ED083B25080E3
:1021B000080418432569EFF3108672B62B68002BCC
:1021C000FCD0BFF35F8FA3881380A1802369BFF386
:1021D0005F8F00221A6086F31088237801329A40BC
:1021E0000849E3685B181A60F8BD0120DEE7BFF319
:1021F0005F8F00232B608CF3108801204042F3E7AF
:102200000020F1E73C20000070B582B000920193FD
:1022100001000269EFF3108472B61368002BFCD042
:10222000BFF35F8F0223C85E0D6900283FDB4A6958
:10223000430016001B18DB00D218F35A4B80BFF383
:102240005F8F00232B6084F31088069B1361079B2C
:102250005361009B019C9360D460538801335B04FD
:102260005B0C1D1C002B20D0ACB203045580234313
:102270000D69EFF3108C72B62C68002CFCD0BFF304
:102280005F8F8C88148088800A69BFF35F8F00207D
:1022900010608CF310880A7801309040CA680849B1
:1022A00052181060180002B070BD0125DCE7BFF3C2
:1022B0005F8F00232B6084F31088013BF2E7C04658
:1022C0003C20000010B543890A1493421ADD5300E4
:1022D0009B184269DB00D3180469EFF3108C72B6C7
:1022E0002268002AFCD0BFF35F8F5A88090494B299
:1022F000090C8A4208D00369BFF35F8F00221A607D
:102300008CF31088002010BD094A22435A80012313
:1023100002698371BFF35F8F002111608CF3108815
:10232000027804499340C268012052181360EAE71A
:102330000080FFFF3C20000040787047F0B5C646A3
:1023400000B582B0040000F009F9FA2206000F007F
:10235000200000230021920001F018FD801979412E
:1023600004000D1E02DA01242E4D64420626764238
:10237000F71736196F41AF4214D811D000F0EEF8BC
:1023800032003B00121A8B41002B15DC002B46D08B
:102390002000290000F022F902B080BCB846F0BD50
:1023A000A642EBD90026002700F0D8F832003B0007
:1023B000121A8B41002BE9DD00F0D0F832003B000F
:1023C000121A8B41002B0ADB00230193164B3200BB
:1023D000009316483B00FFF717FF0130D8D00023C9
:1023E0003900B0469C46124A1248536A994204D8B2
:1023F000966A4645CCD29942CAD10668EFF3108757
:1024000072B63368002BFCD0BFF35F8F0368BFF355
:102410005F8F66461E6087F3108820BFE5E7002ABD
:10242000B6D0C9E7FFFFFF7F391D00101C12002046
:102430000040054094290020F0B5CE46474680B5BF
:1024400004000D0085B0EFF305868946002E10D0FC
:10245000364900204B6AAB4206D38A6A5B1B591E81
:102460008B41A2424041184305B0C0BCB946B046BA
:10247000F0BD2F4FFB683A7898461800039200F0A1
:1024800065F8039A131D42469B009B5822001B1AB5
:102490009C462B00121A8B419E4210DC0DD020BFAF
:1024A000224A0020536A4B45DED3926A5B1B591EB9
:1024B0008B41A24240411843D6E79445EFD900F042
:1024C0004DF822002B00121A8B41002B1BDB00233E
:1024D0000193184B2200009338002B00FFF794FE65
:1024E000002810DD114B5A6A4A451CD39B6AA3424F
:1024F00017D301003800FFF7E5FE0C4A0020536AAD
:102500004B45B1D3D1E7094A0020536A4B45ABD3C1
:102510000020926A5B1BA24240415A1E934118431D
:10252000A2E74A45E5D120BFE3E7C04600400540A9
:102530001C120020391D001010B5024A0248FFF796
:1025400037F910BD1C980010D02400200300416A08
:102550000A00986A596A8A42FAD17047034B596A4D
:102560000A00986A596A9142FAD1704700400540C2
:1025700070B505000E00184A536A1900946A536A30
:102580008B42FAD1200019002C00350024184D414F
:10259000AB4216D813D0104B2A005B6A9D4203D978
:1025A0000D494B6A9342FCD3934207D10A4A02E099
:1025B000516A994202D1916AA142F9D370BDA042F9
:1025C000E9D9054B5B6A1C005A1CEFD0012201249B
:1025D0006442E5175242E3E700400540064A536A69
:1025E0009942FCD807D1044B02E05A6A914202D1C9
:1025F0009A6A9042F9D870470040054030B50424EB
:102600001457104BA400E35887B09C460025535F35
:102610000D4D05930723D35604930623D3560393F6
:102620000523D35602930223D356013B9B005B59EB
:1026300001930323D356054A0093634602F0BAFF81
:1026400007B030BD489F0010649F001040980010F4
:10265000F8B5DE464E4645465746E0B505008B4682
:1026600018000A99914600F06DFD0A9B6C001E024D
:102670006419304BA400E418636880469E4200D978
:1026800066602F1FFBB29A46012B2FD9C0238022F0
:10269000294FAD009B0179591201E3181A600029F6
:1026A0001BD14B4622685B015340E022134080223D
:1026B0005201A21813605346012B2FD98023802288
:1026C0009B01E31812011A60434666607B51F0BC1F
:1026D000BB46B246A946A046F8BD786900F032FD77
:1026E000013043001B18033BFDD2DAE75B46012BA8
:1026F000CCD1C02303229B01E3181A60023AA368DD
:102700001A42FCD04A46236852015A40E023134043
:1027100080225201A218084F1360AD0058460323CF
:10272000216841400B40136001228240A3681A4295
:10273000FCD0C3E700800040D8240020F0B5D64686
:102740004F464646440098462418324BA400E418ED
:1027500063688A469146C0B5FF2B02D880235B0090
:102760006360061FF6B2012E2FD9C02380222A4FA4
:1027700085009B0179591201E3181A6000291BD1C9
:102780004B4622685B015340E022134080225201F5
:10279000A2181360012E30D9802380229B01E318F8
:1027A00012011A6080235B00636043467B51E0BCEA
:1027B000BA46B146A846F0BD786900F0C3FC0130C6
:1027C00043001B18033BFDD2DAE75346012BCCD163
:1027D000C02303229B01E3181A60023AA3681A423D
:1027E000FCD04A46236852015A40E023134080221D
:1027F0005201A218084F1360850050460323216838
:1028000041400B40136001228240A3681A42FCD071
:10281000C2E7C04600800040D8240020014B800061
:10282000C0587047D8240020F0B5C64600B55B4BB1
:1028300015005A6884460F0082B0FF2A02D8802211
:1028400052005A600322564B54481A600123826892
:102850001342FCD0202201685140C0320A40514945
:102860000A6002684D485A40032313400B6002235C
:1028700082681342FCD0802280264B4B12011A60E2
:102880004A4C4B4B760046606246636101213B0037
:1028900048480095E04600F0E5F9290040467943B4
:1028A00000F050FC444B05005A68FF2A00D85E60D7
:1028B0008022424B12011A602169002907D0606909
:1028C00000F040FC013043001B18033BFDD2E02325
:1028D000394A3B4811680B40036002231168594094
:1028E00001330B400421036093681942FCD080211E
:1028F000344B090119608021334B49005160236139
:10290000264B5A68FF2A00D8596003220121244B24
:102910001A60224A93681942FCD0E02310680340F1
:1029200020480360126803234A40022113401B4AD7
:10293000036093681942FCD080211B4B0901196088
:102940008021224B4900516065615A68FF2A00D8F6
:10295000596080221E4B12011A60A169002907D01C
:10296000606900F0EFFB013043001B18033BFDD210
:10297000402316490A685A40A0331340154A136091
:102980008022154B12011A6080235B004B60084BBC
:10299000A36102B080BCB846F0BDC0463C80004098
:1029A0003CB000403C9000403CA00040D8240020B7
:1029B000006CDC02008002403080004030B00040FB
:1029C0003090004030A00040001BB700488000401D
:1029D00048B000404890004048A00040F0B545464F
:1029E0008046A02057464E46DE461C00984B4000CD
:1029F00081469A46E0B585B0019102920394954BC9
:102A00009A4509D901235B429944934B9A444B461A
:102A10000F2BF4D100208EE00725904C54442F005A
:102A20006F432000390000F08DFBAB466E1E404521
:102A300053D07543200029002F0000F083FB804510
:102A40005CD04346751EA8461D005B46FF1A390040
:102A5000200000F077FB85425DD0B31E9846022E21
:102A600000D1BAE05B46FF1A3900200000F06AFB93
:102A7000854267D0F31E9846032E69D05B46FF1A45
:102A80003900200000F05EFB854200D176E0331F64
:102A90009846042E00D178E05B46FF1A39002000EA
:102AA00000F050FB854200D17EE0052E00D180E091
:102AB0005B462000F91AA84600F044FB0625804535
:102AC000ADD10029ABD1CA460199D946029A039CDF
:102AD000053D28E02B00454698463900200000F0CF
:102AE00031FB002900D1A4E06E1EAB4675432000E7
:102AF00029002F0000F026FB8045A2D139002000DC
:102B000000F020FB00299CD1CA463500D946019926
:102B1000029A039C07E000299FD1CA464546D94640
:102B20000199029A039C50464D4B43430B604B4620
:102B300001201360256005B0F0BCBB46B246A94633
:102B4000A046F0BD0029E8D0F31E9846032E95D18B
:102B50000323092120000927984600F0F3FAA84230
:102B6000B8D00323062120009B460226033F00F035
:102B7000E9FA854248D00123984666E70029CCD07F
:102B8000331F9846042E00D086E723099D4256D075
:102B90000C2720003900B346013E00F0D3FA8542ED
:102BA00032D00223984650E70029B6D0052E00D037
:102BB0007EE719212000192700F0C4FA85422DD0A4
:102BC00014212000053F00F0BDFA854217D00523EF
:102BD0009B46023B0426984637E7A846A1088D424B
:102BE00014D061088D421CD0444500D00AE701236F
:102BF000CA46012599460199029A039C93E7052349
:102C0000A8469B46042679E7A84677E70223CA46EA
:102C1000022599460199029A039C84E7A846052556
:102C20005BE70223CA46012599460199029A039C53
:102C300079E7CA460199A946029A039C73E70423DF
:102C4000CA461D0099460199029A039C6BE7C0464B
:102C500050262F0050F80C0020D1FFFFB0710B0060
:102C6000001BB700F0B5C646040000B523481600A7
:102C700098460D0000F066FA0100300000F062FA9C
:102C80004346069A1B04120313439C46236806001E
:102C9000002B22DB1A4B1B48E218531E9A4180235B
:102CA0005242120B9B011203D218174B1A60174B9A
:102CB0001A60130001688B43FBD12122144B25605D
:102CC000E318A6601A602268002AFCDA6246E26015
:102CD00008221A6080BCB846F0BD3F23226813402A
:102CE000AB42D7D1A3681B051B0D8342D2D1EE2284
:102CF000E368D20213406345CCD1EBE7001BB70079
:102D00000040FDBF08C0004000E0004000F000406F
:102D10000430000010B580241C4BE4051C60002822
:102D20001AD001231A4C18431A4BDC611A4C444048
:102D30001C62596298628021144BC90519601748BA
:102D400017490860E021C9041960002A07D18022D0
:102D5000144B12061A6010BD0E4BD861EBE75301FD
:102D60009B1A9B009A18802312015B049A4209D295
:102D700013000D490B60074B5A608022094BD205A6
:102D80001A60E8E7094B1A00F3E7C04600B00540B7
:102D9000D3C007B0008005402D3FF84FFCFF010075
:102DA0000820014000A0054040290020FFFFFF004F
:102DB0008023024A9B000B43D3627047008005408A
:102DC000002310B50100988A1B8B984710BDC046A0
:102DD000162310B5010018885B88984710BDC046BF
:102DE000F8B54746CE4680B50F1E18D01423994635
:102DF000043304000025012698464B4618884346B4
:102E000021681B88984701C4431E9841013506403C
:102E1000AF42F2D13000C0BCB946B046F8BD012681
:102E2000F8E7C046002370B504000D00988A0549F4
:102E30001B8B984703000020002C01DB0130A040D1
:102E40002900984755420000AA23064A1B01136037
:102E50008D235B00D3600449044B19605368002B39
:102E6000FCDA70470040024000B0FA000060024007
:102E70007047C04610B50148FEF76CFC0C99001075
:102E800070B5074D074EB54209D20024013E761BAE
:102E9000B608013608CD01349847B442FAD170BD66
:102EA00090930010CC93001070B5074D074EB542BB
:102EB00009D20024013E761BB608013608CD013444
:102EC0009847B442FAD170BDC4930010CC9300105F
:102ED000054B064A06491A60064A074B1A6010005D
:102EE0000B689843FBD1704700E00040BFCDFBFE6C
:102EF00008C00040FE7F3C0000F00040044BDB6C4B
:102F0000002B03D18022034BD2021A607047C046C7
:102F1000000011504C201150044A054B1A60054A1C
:102F20001368DB018033FBD17047C046FFFFFF0110
:102F300000F0004008C000404022034B9A675A67E7
:102F40001A67DA667047C04600F0014010B5FEF718
:102F5000B7FC10BD70B52849284D294E6D1AAC102C
:102F60002200302C00D930223000920000F080FF87
:102F7000BC2D3DD823002A3B224A052B1DD93020E9
:102F800075196D07A446001BEB0F002D03DA611CB9
:102F90008C46A1007250C01AE3189B004108F31838
:102FA000C900C9181A605A6008339942FAD101233E
:102FB00003421DD0984360440400A300F250631CF8
:102FC0002F2C15D09B00F250A31C2E2C10D09B0050
:102FD000F250E31C2D2C0BD09B00F250231D2C2C07
:102FE00006D09B00F250631D2B2C01D09B00F250A9
:102FF000054B9E6070BDC04600010010C00100106E
:1030000000000020C101001000ED00E0002310B519
:10301000294C82B0A367FFF717FF0122274B1A60E4
:10302000636C012BFCD10322254B1A60224A936B5F
:10303000012BFCD1013300930121224A22480433A1
:10304000FFF710FE052301210093204A2048FFF7D7
:1030500009FE0022022104201E4BFFF76FFB002215
:10306000012105201C4BFFF769FB002200210720EE
:103070001A4BFFF763FB002200210820174BFFF7D4
:103080005DFB8023DB000093002200210920134B0D
:10309000FFF7DEFA0022104B00210620FFF74EFB5F
:1030A0000420FFF7BBFB0E4900F04CF801000020A4
:1030B000FFF77EFE02B010BD008000403CB0004033
:1030C00030B00040002F685900800240008C8647D5
:1030D00000C00240001BB70040597307006CDC02BF
:1030E00040420F0001480421014B184740120020C4
:1030F000E12D0010124A936F9B0815D29066D1669D
:10310000002905D0FFE7FFE7FFE7516F106F704719
:1031100004B580210906C2175140002800D0C843D9
:1031200006F0EEF8002104BDF0B5146E556E576F31
:10313000166FFFF7E3FF1466556657671667F0BD15
:10314000000000D0114A936F9B0813D2106651669D
:10315000002905D0FFE7FFE7FFE7516F106F7047C9
:1031600004B5002801D00020C04306F0C9F80021B2
:1031700004BDC046F0B5146E556E576F166FFFF75D
:10318000E5FF1466556657671667F0BD000000D06E
:1031900094464A4A926F9208624601D228E0C0469D
:1031A000F0B5464E346E756E776F366F00F020F8CE
:1031B0009446424A14665566576716676246F0BDE4
:1031C00094463E4A926F9208624601D254E0C0464D
:1031D000F0B53A4E346E756E776F366F00F04CF87E
:1031E0009446364A14665566576716676246F0BDC0
:1031F000002B24DB11D000293EDA00B5C943404240
:1032000000D1013100F038F8C943404200D101310A
:10321000DB43524200D1013300BD002AEBD100282C
:1032200001D1002905D00020C90FC90701D1C04331
:10323000410800B506F054F80022002300BD00B597
:1032400000290ADBDB43524200D1013300F014F8BD
:10325000C943404200D1013100BDC943404200D1C1
:103260000131DB43524200D1013300F005F8DB436A
:10327000524200D1013300BD002923D1002B18D1C7
:10328000002A0CD0BC460D4F38667A660021002318
:10329000FFE7FFE7FFE77A6F386F67467047002860
:1032A00001D00748010000B506F01AF800220023FB
:1032B00000BD02000B00002000217047000000D07C
:1032C000FFFFFFFF002B00D0BFE0130C28D1002A26
:1032D000E7D080B4114F39667A66FFE7FFE730B474
:1032E000040C7B6F396F1B0423433B667A66FFE750
:1032F000FFE7FFE7C04684B27B6F3D6F1B042343AB
:103300003B667A66FFE7FFE7C04600232C042D0CDE
:103310007A6F386F00196941B0BC7047000000D067
:10332000F0B594460025140E01D112020835140F91
:1033300001D112010435940F01D192000235D40F4E
:1033400001D152000135D40B0134254F7C66254C48
:103350003C660E0C93B2FFE7FFE7FFE73C6F664366
:10336000360C7703BE467343DF0B5B04C01AB941CA
:10337000130C7343DB18C91ACE086643360CB644E7
:1033800093B273431F0F1B01C01AB941130C73434F
:103390001F0B1B05C01AB941860D8F023E436643C1
:1033A000360C092D24DB520A7243801A7703460A31
:1033B0006643360C16235B1BDE40DF40BF196446B4
:1033C0006643821B7046043506330100D940A8408D
:1033D000C01900D30131A24206D20023F0BD000083
:1033E000000000D0FFFFFFFF121B0130F3D3F1E715
:1033F00009277F1BFE406446A2B27243801A00D2A6
:103400000139220C7243130C1204821A99410B00E9
:103410007046043513370100F940A840801900D3E5
:103420000131002B02D1A2420AD2F0BD013000D3FB
:103430000131121BFAD2013BF8D1A24200D2F0BDF9
:10344000013000D30131121BF7E7F0B51C0C00D09E
:1034500080E00CB400251C0A04D11B02160E334375
:10346000120208351C0B04D11B01160F3343120145
:1034700004359C0B04D19B00960F33439200023518
:10348000DC0B02D192185B4101351C009718644196
:103490000134464F7C66464C3C660E0CFFE7FFE766
:1034A000FFE7C0463C6F6643360C7703BE4697B2D3
:1034B0007743C01B00D20139C01B00D201399FB233
:1034C0007743C91BC91B170C77437E04FF0B801B76
:1034D000B941CE086643360C0C2D33DBB644120BD3
:1034E0001F053A431B0B97B27743C01B00D201392B
:1034F0009FB27743C91B170C77433E043F0C801BD8
:10350000B941860D8F023E43664329277F1BFE404B
:103510000C3D7746AF40BF1930BCA2B2ABB272438C
:103520007343801A9941220C7243130C1204801ABF
:10353000994102000B000137001BA941F9D2781E06
:103540000021F0BD0C277F1BFE4077467F0BAF406C
:10355000FF19E0E700245D1C07D0144F7D66396633
:10356000FFE7FFE7FFE7FFE73C6F95B29EB26543D9
:103570006643401BB141150C1E0C6543664336047F
:103580002F0C3E432D04401BB141994204D202004E
:103590000B0020000021F0BD01D19042F7D3801A2A
:1035A000994101349942F2D3F6E70000000000D0BF
:1035B000FFFFFFFF48404140484018B41B4B5B6889
:1035C000FC46019308BD04DF5F38001018B4174BA8
:1035D0001B68FC46019308BD00DF69380010944663
:1035E000134A926F920809D2624618B40F4BDB68F7
:1035F000FC46019308BD0CDF213B00100C4AF0B5DE
:10360000146E556E576F166F6246FFF7EEFF084A4D
:103610001466556657671667F0BD18B4034B9B6870
:10362000FC46019308BD08DFC5390010181B0020B7
:10363000000000D0FFB550404240504059404B4040
:10364000594000E0FFB5154F4C00640D03D0BC425B
:1036500004D10C0314D80020090D09055C00640D89
:1036600003D0BC4204D11C030AD800221B0D1B0549
:1036700001264B4009D44B4003D58B4200D18242F6
:10368000FFBD9942FCD19042FFBD0B43DB180343C1
:103690001343F5D0C9434918FFBD0000FF070000E0
:1036A00000B5FFF7CFFF804100BDC04600B5FFF772
:1036B000C9FF01D9002000BD012000BD00B5FFF702
:1036C000B9FF01D9002000BD012000BD00B5FFF702
:1036D000B1FF804100BD012040054A00121804D806
:1036E0005A00121801D800207047012070470000CE
:1036F0000021002805D17047C1174840401AFAD070
:10370000C90713B5064B1B6898470CBC441CA24064
:103710001005120B0349091B09051943114310BD7C
:103720008C2900201F04000010B54C00620D80237E
:10373000D218DB00D21A5B057E2A10DD9E3A13DA1E
:10374000CC170903490819435242D140640001349F
:103750001532202A05DAD0400843604310BD00200E
:1037600010BD0846604310BDC80FC018013810BD19
:1037700018B4044B5B6AFC46019308BD24DFD13CBE
:1037800000100000181B0020132370B51D78012DB8
:1037900019D014DD1F48FFF71BFB06001E48FFF77A
:1037A00017FB1E4C80223100200000F061FB022D2F
:1037B0002DD01B48FFF704FB1A4B186070BD1A4B45
:1037C000164CA364F5E7184B144C23606360A360A8
:1037D000E36023616361A361E36123626362A362C7
:1037E000E36223636363A363E36323646364A364A7
:1037F000E36423656365A365E36523666366A36687
:10380000E36623676367A367E367A364D1E7064BB7
:10381000A364CEE75344000053460000181B002069
:103820004C3300008C2900202D38001007B560466D
:1038300001880A0A0230DF2AFAD1C9B2820804D309
:10384000028840880004104300E00068014A50509C
:10385000039007BD181B00200FB403BC0CBCF0B5CF
:103860000124E407634000E0F0B50C0DCF0F661EA5
:103870003605891B640503D3C943404200D3013197
:10388000640D03D0661CF60A07D0E41B00207F00FD
:10389000791C89078912803C24031D0DDF0F6E1EE1
:1038A00036059B1B6D0503D3DB43524200D3013326
:1038B0006D0D03D06E1CF60A07D0ED1B00227F00B1
:1038C0007B1C9B079B12803D2D032F1B661B58D42E
:1038D000A446202E46DA20371400BC401D00BD400F
:1038E000F24033412A4380185941CB0F05D0C943D8
:1038F000C043002264425041514162464D0D28D1DF
:103900000D0D07D100281FD0241940414941013A2B
:103910000D0DF9D0640006D3013000D30131002C25
:1039200001D140084000013A0BD4941CE40A04D1B0
:1039300012051144DB071944F0BDD907204B194388
:1039400000E0D9070020F0BD0029DDD1002CDBD13B
:10395000F0BD0132C6074008CD0728434908002EB4
:10396000E1D0D9E73C2E29DA203E40371400BC4094
:1039700000D00124F24014431A00BB401C43D3176B
:10398000ACE7AC46202F08DA20360400B4400D0026
:10399000B540F84039412843A5E73C2F0CDA203FD9
:1039A00040360400B44000D00124F840044308002D
:1039B000B1400C43C117EAE710001900002494E756
:1039C0000000F07FF0B50C0D661E3605891BE60A77
:1039D0006405640D02D0651CED0A04D000200121AD
:1039E0000905803C2403A4461C0D671E3F05DB1B14
:1039F000E70A6405640D02D0651CED0A04D00022BC
:103A000001231B05803C24037740644497B484B2AF
:103A100096B27443070C7E43150C6F4380B2684323
:103A2000361802D3012000043F183004350C001969
:103A30007D41844688B29AB250430C0C62431F0CFD
:103A40007C438EB27E43921902D301263604A41918
:103A50001604170C3618674101BC81B29AB2514363
:103A6000040C62431B0C5C4380B25843121802D30F
:103A70000120000424181004130C401863412D1871
:103A80005E410020474106BC88B293B258430C0CFB
:103A90006343120C544389B251435B1802D3012192
:103AA0000904641819041A0C091862416D1856416A
:103AB0000020474118BCF902720D1143F0026A0D53
:103AC0001043ED020A0D03D16D1940414941013BFC
:103AD000124E9B1B7600B3420ED26D0007D301300D
:103AE000002671416646354301D1400840001B0560
:103AF000C918E4072144F0BD0BDA013306D10130C7
:103B000004D101314F0D01D04908F2E7E10700204F
:103B1000F0BD013631050020EBE70000FF03000097
:103B2000F0B51C0D671E3F05DB1BE70A6405640D3D
:103B300002D0661CF60A04D0002201231B05803C3B
:103B40002403D0252D060026F6432E661E096E6638
:103B5000CE0FF619B44649004F0D02D07E1CF60A6E
:103B600003D000200021403F3F033E1BB600B44479
:103B7000013F7F05C91B49082E6F013676089C025C
:103B8000950D25437543ED137543AD1301356D1048
:103B9000F603761B0CB4CC02450D2C43A2B2B3B293
:103BA0005A43270C7B43350C6F43A4B26C431B195B
:103BB00002D3012424043F191C041D0CA4187D41C8
:103BC00024196D41009A91B2ACB26143170C7C4349
:103BD0002B0C5F4392B25A43A41802D30122120461
:103BE000BF182204230C52187B41019C6C431B1903
:103BF000520ED9010A434401A01A81B2B2B2514314
:103C000003145A43360C734387B27743D617D2193D
:103C100000277E4136049B191704160C7F185E415D
:103C20007316ED18F301002680337541A90F06D1F4
:103C30006400690AE8055B0A184309D22FE00422F0
:103C4000944480337541A90AA8059B0A184326D3DA
:103C5000404149412404009A019B0D005543641BD7
:103C60004343E41A95B286B27543170C7E43030CA6
:103C70005F4392B25A43B61802D301221204BF180E
:103C80003204330C52197B4152429C41002C02D425
:103C90000022013051414008CA071043490802B0D0
:103CA0006246D7079210084BD218084B9A4203D2AB
:103CB00012058918C919F0BD0020002A01DC39005D
:103CC000F0BD01331905F5E7FD030000FE07000014
:103CD000002200B5203200F004F8080000BD00000A
:103CE00000220B150AD410B5944600F031F81414D4
:103CF000013400DA0021CB17144C204700200021AA
:103D000070476244343A0CD40C2A07DA040091401C
:103D1000904052422032D440214310BDD843D94371
:103D200010BD203207D40C4694405242203211413B
:103D3000D040204310BD0800C917203203D452429E
:103D40002032104110BD1800190010BD033D0010B5
:103D50000A0DCC0F531E1B05C91A520503D3C943C4
:103D6000404200D30131520D03D0531CDB0A07D06F
:103D7000121B00206400611C89078912803A12031B
:103D8000014BD21A70470000FF0300005143434328
:103D9000C9188C46110C83B24B4310B4040C614318
:103DA00092B280B2504362431C041B0C001910BC39
:103DB00059411304120CC01851416144704700006E
:103DC000132310B51C781348FFF702F8012C0BD011
:103DD00004DD01008022104800F04AF80F48FEF789
:103DE000EFFF0F4B186010BD0B4C01005422200058
:103DF00000F03EF80B4B6365A365E36523666366DD
:103E0000A366E36623676367A367E3672362E361EF
:103E1000E4E7C04653460000181C00204C33000065
:103E20008C290020293E001007B5604601880A0A47
:103E30000230DF2AFAD1C9B2820804D3028840884E
:103E40000004104300E00068014A5050039007BD91
:103E5000181C002001480421014B18475012002073
:103E6000E12D0010014B1B68184700005012002084
:103E7000014B5B6818470000501200209A4200D2A4
:103E8000885470477047C046F8B5DE4657464E46E0
:103E90004546E0B599460D9B0700884693469B072B
:103EA00028D00B9B002B3CD016000B9C0A9D36198A
:103EB000321B013C4B464146285DB847002CF7D1E8
:103EC00035000D9B9B070ED55B46EC1A0C9BA3425D
:103ED00009D91E002A004B46414620200134B8472C
:103EE0000135B442F6D32800F0BCBB46B246A94621
:103EF000A046F8BD0B9B0C9A934214D213005D466A
:103F00000C000B9A9E1A76192A004B4601352100A7
:103F10002020B847B542F7D10B9BA046002BC4D157
:103F2000E1E71500CDE75E46002BBED15D46DAE73E
:103F3000F0B54F46D6464646C0B584B09C460EAB5B
:103F40001F78129B9146BA460D9C109E119D9B07AF
:103F50004CD4002D41D1B44248D20123129F1F40BE
:103F6000B8460C9B5F1E302303E001343B55A6424C
:103F700001D9202CF9D14346002B00D187E00C9BBE
:103F80005F1E3023A54204D830E001343B55AC42DB
:103F90002CD0202CF9D1129BDB060DD5129B5B0592
:103FA00057D4A64267D0A54265D00F9B102B53D0A3
:103FB000022B5BD0202C36D12023129C01930C9B2A
:103FC0004A460093039463460295FFF75DFF04B0F1
:103FD000E0BCBA46B146A846F0BD0123129A134090
:103FE0009846012313422DD1B442BAD3129BDB066B
:103FF0001ED5129B5B05D8D4002CD2D10F9B102B61
:1040000060D00F9B022B71D0302301240C9A1370C7
:104010005346002B11D1129B5B0740D52B260C9ADF
:10402000631C1655C9E72300013430260C9AD65478
:10403000202CC1D05346002BEDD02D260C9A631CAA
:104040001655BAE7002F34D0013DB44200D288E7BC
:1040500095E70F9B102BAFD1129B9B063CD5202CD4
:10406000AAD058230C9A13550134A3E7202CA3D0CF
:104070002300013407E0631E012CBFD00F9A102AE1
:1040800036D0022AD1D162260C9AD65492E7129BDE
:10409000DB06CDD5129B5B0500D482E785E7129A3B
:1040A0002300160700D488E720260C9A0133165502
:1040B00083E70C2313405F1EBB41ED1AB44200D2CC
:1040C0004FE75CE7129B9B060ED478230C9A0224E0
:1040D0001370302353709BE7202C00D16CE77823BA
:1040E0000C9A1355013465E75823EFE76033EDE789
:1040F0000C9AA61EB618129A920602D55822327051
:1041000093E77822327090E710B5002800D110BDF7
:1041100001F040FCFBE7C04610B5002803D04A6818
:104120000B681100984710BDF0B54E46DE46574665
:104130004546E0B595B083468946924698461E9A14
:104140001F9B10001900209EFFF7C5FA002800D021
:10415000D2E11E981F990122C44B5242FFF7A0FAE8
:10416000002800D001E11E981F990122C04B524245
:10417000FFF7ACFA002800D0D6E01E981F99002265
:10418000BC4BFFF7A3FA002800D0B5E01E981F999A
:104190000022B94BFFF784FA002800D0ACE01E984B
:1041A0001F9900220023FFF77BFA002800D0D1E0FE
:1041B00000230B93229B5B0500D4062600243023AA
:1041C00006E006AA013417321355013E202C01D017
:1041D000092EF6D81E981F99FFF7A6FAA74BF200F2
:1041E0009B180CCB050008920993FFF785FA020093
:1041F0000B001E981F99FFF7E0F9089A099BFFF73B
:104200000CFA06900791FFF7B3FA0700FFF770FA70
:1042100002000B0006980799FFF7CFF90022984B90
:1042200006900791FFF752FA002800D1E9E0013724
:104230003800FFF75DFA02000B0008980999FFF7B4
:1042400035FA002801D000270135002E00D1B7E053
:10425000069513E0172306AA9B180A21380001349B
:104260001D19FEF76FFF3031297038000A21013E19
:10427000FEF768FF092F00D8E1E00700202CE9D104
:10428000069D20240CAB0693172706ABFF180DE004
:1042900028000A21FEF72EFF01343031280039555D
:1042A0000A21FEF727FF051E00D1B7E0202CEFD131
:1042B0000323229A1340012B17D1219B002B14D0EA
:1042C0000B9B002B00D1E3E0219B013B2193202B92
:1042D0000BD93023219A06E006A9013417310B557A
:1042E000944200D3A0E0202CF6D1229B01940393AA
:1042F000219B0293069B21E0229B52460493219B23
:104300004946039358461E9B1F9C029600930194B6
:10431000434600F043F90400200015B0F0BCBB4652
:10432000B246A946A046F0BD229B5B070FD40322EC
:10433000544B229901920391219902910093524684
:10434000434649465846FFF79FFD0400E4E7042230
:104350004D4BEEE71E9A1F9B00200021FFF72DF921
:1043600001231E901F910B9324E70223229A5446A7
:104370001A40229B06929B0700D1ACE02600434DD9
:1043800008942F1F3200E87843464946013DD8473C
:104390000136BD42F6D1089C069B0434002BBBD0ED
:1043A0005746219AE31B9A42B6D91500220043468C
:1043B000494620200134D847E31BAB42F6D3ABE794
:1043C0002800FFF799F902000B001E981F99FFF7CC
:1043D000F4F82B4B002206000F00FFF761F90CAB3D
:1043E0000693002800D04FE7002230003900244B0C
:1043F000FFF76CF9002800D046E7012301359D4303
:1044000042E70022069807991D4BFFF749F900285B
:1044100000D01AE7002F59D1013716E70323229A5B
:104420001340012B00D1A6E0202C00D15DE70B9BAF
:10443000002B3AD02D23069A1355013455E7069DDB
:10444000202C00D11DE73023361906E006AA0134DE
:1044500017321355202C00D113E7A642F6D12E2394
:104460000CAA0134069293550EE7C046FFFFEFFFFA
:10447000FFFFEF7F65CDCD4165CDCDC188A1001097
:104480000000E03F549900104C9900105C99001016
:104490000C23229A134257D0219B013B2193A34224
:1044A00000D916E7202C00D11FE7229B5B0704D51B
:1044B0002B23069A1355013417E7229B1B0700D4C0
:1044C00013E72023069A135501340EE7FB0700D4A7
:1044D000BBE60137B9E6219B042B00D84EE75546D1
:1044E0004F46043CE4182A00434601353900202099
:1044F000D847AC42F7D141E70227229B55461F40DF
:104500009B0726D006975F46234EEC1C2A00B07806
:10451000434649460135B847013EAC42F6D1069FB5
:10452000002F00D1F8E65746219AE31B9A4200D8A3
:10453000F2E6150022004346494620200134D847C0
:10454000E31BAB42F6D3E7E6219BA34200D9C0E6CA
:10455000CBE6219B032BD5D9069754464F46033D06
:10456000ED1822004346013439002020D847A542E7
:10457000F7D1069FC6E7219B002B00D154E70B9B88
:10458000002B85D0219B013B21939C4200D2A0E6C9
:10459000202C00D04EE7A8E658990010F0B545460B
:1045A000DE4657464E46E0B59BB0249C259D82468C
:1045B00088469346994622002B0020002900FFF7E9
:1045C0008AF8002800D0C1E00122200029007C4B9D
:1045D0005242FFF77BF8002800D0B7E0012220000C
:1045E0002900784B5242FFF75BF8002800D0ADE07D
:1045F0000022002320002900FFF752F8002800D0F5
:10460000BBE108940995089809998023289ADB0052
:104610001A400F928022289E1201164032000E96F8
:10462000289E0F000A901E4200D0A4E00B00034316
:1046300000D0CBE0002A00D012E2320006332693ED
:10464000022313400C930223134200D00AE2279B5B
:10465000042B00D215E200270426043B0E9300220F
:10466000002320002900FFF71BF8002800D0C8E134
:10467000554B289A134004930E9B0393269B029359
:10468000089B099C0093019441464B465A4650466C
:10469000FFF74AFD02002020289B002503405942D5
:1046A0004B415B421840531C089341464B464530F2
:1046B000D047FB17FC185C40FB0F1F270A93731EA3
:1046C0000E930AABFF1806E020000A21FEF73AFD20
:1046D0000400202D08D00A212000FEF733FD01350B
:1046E00030317955092CEFD8052306930E9B564699
:1046F0000593002304930A3303930A9B41460293D4
:1047000012AB009330004B46089A0195FFF710FC5E
:104710000C9B002B28D05F46279BC41BA34223D9A8
:1047200082461D003A194B46414620200134B047CD
:10473000A542F7D850465946279C421A0132002319
:10474000944200D395E1013018180DE0289B0094A5
:1047500001950493279B0393269B02934B465A464D
:1047600041465046FFF7E0FC1BB0F0BCBB46B246EA
:10477000A946A046F0BD01432AD10E9B3200002B72
:1047800000D15DE70027269B0026BB4200DD82E1C9
:104790000022002320002900FEF782FF002800D01D
:1047A0004BE1289B084A02961A408023DB00134302
:1047B0000493279B0393089B099C00930194CDE7E6
:1047C000FFFFEF7FFFFFEFFFFFF7FFFF06232693BB
:1047D000B24B7800400DC018FEF78EFFB04AB14BC7
:1047E000FEF71BFFB04AB14BFEF7F0FE3F03B04BA4
:1047F0003F0B3B430C900D9100220A981900AD4BE2
:10480000FEF7DBFEAC4AAD4BFEF707FF02000B00E4
:104810000C980D99FEF7DAFEFEF786FF0700FEF70B
:104820006BFFA74AA74B0A900B91FEF7F6FE0022FA
:10483000A54BFEF7CBFEFEF777FFA44A06000A98C9
:104840000B99A34BFEF7E9FE0A900B913000FEF79F
:1048500053FFA04AA04BFEF7E0FE02000B000A98AF
:104860000B99FEF7AAFE02000B000A900B91FEF7CF
:10487000D4FE0C900D910A980B9902000B00FEF7E4
:10488000A5FE0022109011910C980D99934BFEF704
:10489000A6FE0022924BFEF799FE02000B000C9838
:1048A0000D99FEF79CFE00228E4BFEF78FFE020054
:1048B0000B000C980D99FEF792FE0A9A0B9B0C9038
:1048C0000D9180210020C905FEF777FE02000B0044
:1048D0000C980D99FEF77AFE02000B0010981199C2
:1048E000FEF77DFE0022724BFEF770FE7E4B00222B
:1048F000F6183305FEF791FE02000B000A900B91AB
:1049000008980999FEF7CCFE002808D00A980B9960
:104910000022734BFEF763FE0A900B91013F0A9948
:104920000B9A0B0011003A006332C62A12D80222F9
:104930002898042610400E9A0C90002A26D1279B16
:10494000042B05D9002800D0A1E0279B043B0E933F
:10495000042642E00222289810400E9A0C90002A69
:1049600013D1279B052B00D889E0002800D084E0D4
:10497000279B0526053B0E9332E080231B069C46B1
:10498000AC446346089409933DE605260B4300D1E9
:10499000F9E608980999554A554BFEF78FFE00280D
:1049A00008D0089809990022524BFEF779FE00289A
:1049B00000D0E8E6269B002B34D00F9B002B31D093
:1049C000269B013B2693279BB34204D90C9B002BCB
:1049D00059D002230C9300230E93002F00D13EE602
:1049E0000A9A0B9B08980999FEF7F9FD0022089096
:1049F0000991002320002900FEF752FE002800D173
:104A000036E6089C099D289A80203B4B00061340FF
:104A1000220004930E9B0393269B02932B18009273
:104A2000019331E6279BB342D5D90C9B002B2AD0AA
:104A300000230E9302330C93CFE7289B2E4A80204D
:104A4000089C099D1A408023DB0013432200049335
:104A5000279B000603932B180092019302967DE694
:104A6000052695E600230E930233002704260C93B7
:104A7000F5E54B1E1B191B1A65E602230C93052650
:104A8000AEE70423E7E5279B9B1B0E93A5E70223D4
:104A900004260C93A1E7DB1B5E1E79E601FCFFFFF9
:104AA000FB799F501344D33FB3C8608B288AC63F1D
:104AB0000000F03F0000F83F61436F63A787D23FDB
:104AC00071A379094F930A400000E03F1655B5BB2A
:104AD000B16B0240EF39FAFE422EE63F00002C4057
:104AE0000000244000001840FF0300002D431CEB91
:104AF000E2361A3F80842E41FFF7FFFFF0B557469C
:104B0000DE464E464546E0B5A3B01F002C9B9246BC
:104B10000C93C94AC94B8B460B901A60002900D1EF
:104B2000BFE1002338789946002800D1C1E1C44B89
:104B30004C460993C34B0E935B460A9308E0220050
:104B400053460A990B9DA84701343878002876D03F
:104B500001372528F3D110239B46083B9946043B97
:104B60009846033B002602259C463878791C0300B2
:104B7000203BDBB2102B03D8099A9B00D3589F46E9
:104B80000300303B092B36D900252A2800D1A7E0A5
:104B900000230D932E283FD00300683BDBB2122B7D
:104BA0001BD80E9A9B00D3589F4663460F001E43A6
:104BB000DBE70F002E43D8E743460F001E43D4E740
:104BC0005B460F001E43D0E74B460F001E43CCE769
:104BD000802378785B001E4301310F00672845D899
:104BE0002428ACD90300253BDBB2422BA7D8964939
:104BF0009B00CB589F460025AB005D196D002D181A
:104C000008780F000300303B303D0131092BF3D908
:104C100000230D932E28BFD130228020524290468F
:104C2000C000064378780B0080444246092A00D829
:104C300051E12A2800D15EE10F000131ACE70A9B67
:104C4000A1469B46CA4503D801235B42534499467B
:104C500053464A46594600200B9DA847200023B0E2
:104C6000F0BCBB46B246A946A046F0BD0300693B76
:104C7000DBB20F2B00D962E7012199408846734AC5
:104C800011408B46110042460A4200D013E10A2B24
:104C90002FD0072B00D052E70C9D01CD002800D16A
:104CA00034E121231E43B0461F260D9A12ABF6189D
:104CB000A14694465946340002E0000920290AD052
:104CC0000F26064032003732092E00D8073A01314C
:104CD00062540F28F1D863464C468B460D9322E16F
:104CE0000C9B20CB002D52DB78780C930F00013108
:104CF0004EE70C9B0D9904CB90469B46002900D1B2
:104D000028E1434618784144002801D100F029FCED
:104D10000D9A94460A0004E059780133002900D125
:104D200095E19A42F8D163460D934346D31A0F9307
:104D3000730500D46CE10F9B0D9A934200D90F923A
:104D400002231A0032400C92334200D191E20C93BC
:104D50000D9BB9461E1943461B1BA84622001F0087
:104D60000B9D08E0541C53460A99A847385D00285B
:104D700000D163E122009642F4D145464F4634000B
:104D80000C9B002B00D097E15B460C93DDE60222E2
:104D9000787816430F006D420C930131F8E678786D
:104DA0006C2800D159E180235B001E43013114E7D8
:104DB00080239B0078781E4301310EE778786828BD
:104DC00000D150E1802301311E4306E7672800D15E
:104DD000C2E0472800D134E1452800D134E1072161
:104DE0000C9B0D9A07338B4319000496039502928E
:104DF0000CC90B98009201930C91220053460A991A
:104E0000FFF7CCFB0400A0E6462800D1A8E007216C
:104E10000C9B0D9A07338B4319000496039502925D
:104E20000CC90B98009201930C91220053460A99E9
:104E3000FFF77AF9040088E6FD4A00103C290020BB
:104E4000E89F00102CA0001078A0001041900000F6
:104E50002200534625200A990B9DA847013474E689
:104E60000C9B04339B46631C9846B60700D4FFE0B6
:104E70000C9B220018780A9953460B9EB047641980
:104E8000012D00D849E245460B9EB8460A9F2A00EC
:104E90005346013539002020B047A542F7D1474697
:104EA00072E7DB4B38780B9300239946002800D03B
:104EB0003DE60024C6E66F2855D000D8BCE210239A
:104EC000782800D19EE09E430A239C4600230F933E
:104ED0000A339B464DE000218A00521852000133EC
:104EE0001118187830390200303A092AF4D90D9196
:104EF0001F00591C50E60C9BB87804CB0237D143F5
:104F0000C9170A400D920C93791C45E61023300016
:104F1000984311331843802380463000DB0018404B
:104F20001E4200D1C0E643460693082305930D9B1D
:104F30002200049310230393002302935B46019302
:104F40001AAB00930A9953460B98FEF7F1FF0C95A4
:104F50000400FAE50139D4E680231B011E433EE735
:104F600020231E4353E708239C4600230F93083356
:104F70009B4680233000DB0018401E4200D11AE11E
:104F80000D233100994380230A009B001A4091466B
:104F9000194200D0C3E180230A005B001A4090460A
:104FA0000C9A04320F92194200D08FE24B0600D5C2
:104FB00097E10B0600D4E5E20C9B1B8899464B4613
:104FC000002B00D005E210339943002800D100E205
:104FD000002398460D9B069104935B4603930023A0
:104FE000059502934346D9E0582808D0622878D125
:104FF00002239C4600230F9302339B46B9E72023EC
:105000001E43103B9C4600230F9310339B46B0E792
:1050100002231A0032400C92334200D105E20C9375
:105020004346B9460B9E0A9FA8461D1B22005346C5
:1050300039000134B047285D0028F7D145464F4676
:105040009EE680231B011E4320231E43C7E66246C3
:105050000D9242469B1A0F936AE6C0239B00B878D4
:105060001E43F91CB9E5C023B8781E43F91CB4E50A
:10507000012D00D84AE1631E9946A9444B46524689
:105080002600A146BA461C001700A8460B9D320018
:105090003B00013620200A99A847A642F7D13B00E1
:1050A00057469A464C460C9B320018780A9953464C
:1050B0000B9D4444A84767E6A0460F9B9D4200D83D
:1050C00062E62C190B9E4546B8460A9FE41A2A0050
:1050D0005346013539002020B047A542F7D1474655
:1050E00052E680233200DB001A4090461E4200D177
:1050F000F3E011218E43B4469846802362469B001C
:105100001A40934662461A4259D180235B001A40E6
:1051100091460C9A04320F9262461A4200D0A0E1E6
:1051200063465B0600D5D4E063461B0600D412E25A
:105130000C9B00229B5ED8171918414089B2DA0FE8
:105140000C92002B00D187E188461F2612ABBB468C
:105150001495F71845464E46E046A14606E028005D
:105160000A21FDF7EFFF0500202E08D00A212800B4
:10517000FDF7E8FF01363031B955092DEFD84C461F
:10518000C446B1465F46149D634606930D9B059544
:1051900004930A2303930C9B02934B4601931AAB8F
:1051A000220000930A9953460B98FEF7C1FE0F9B0D
:1051B00004000C93C9E40C2331009943E3E6082270
:1051C000072191460C9B07338B4399444A460ACBEF
:1051D00008000C92DA0F9346184300D085E00023B4
:1051E00099464346002B2FD10022002310921193A1
:1051F00000231F26994612ABF6185B461495BB4652
:10520000E04637000F934E46A146109C119D05E0E5
:10521000853E001004000D00202E0CD00A22002331
:1052200020002900FDF7CCFF01363032BA55002DA1
:10523000F0D1092CEED80F9B109411955F464C4687
:10524000C446B1469B46149D634606930D9B059547
:1052500004930A2303935B4602934B4601931AABD4
:10526000220000930A9953460B98FEF761FE040052
:105270006BE40F9B9D4200D896E18023DB000C93EA
:105280000F9B2E19F61A43460F930D9BA84699467D
:105290005346BA461F000B9D22003B0001342020DC
:1052A0000A99A847B442F7D10F9B454698464B460A
:1052B0000D933B0057469A4643461878002800D184
:1052C00062E56B1C0F930C9B002B00D1A8E600231A
:1052D0003DE50C9B1B78190031E710239E43B44633
:1052E0000BE70C9B1B78994669E6DA17129213922A
:1052F0004A401092129813990A005A401192109A3B
:10530000119B121A8B411092119371E70C9B220092
:1053100018780A9953460B9CA047444634E5082266
:10532000072690460C9B0733B343984442460C92A1
:105330001A685B68149208931300089A134305D106
:105340001033994300239846002838D161208B06FA
:1053500000D5412000231F2698465A4612ABF61866
:10536000030018920F9A0A3BB146169517941997A5
:105370004446664690469B46149F089D159103E05F
:1053800007000D00202C13D0320000233800290024
:10539000FDF716FF5B46D2B2D318092A01D81300D5
:1053A00030334A4601341355A845E9D1BE42E7D906
:1053B000189BA0469B461599169D179C199F0D9BFF
:1053C000069104935B46039300230595029343469D
:1053D00044E761208B0600D541201F2612ABF2184E
:1053E00003000A3B0C934B464646A146A8461C00C8
:1053F0005D461491BB46170002E00400202E0DD03C
:1054000029002000FDF79EFE0C9BCB18092901D82E
:105410000B0030330136BB55AC42EED25F464C46F2
:10542000AB4614994546B046D4E50F9B9D4200D942
:1054300026E701330F93F3E5102332009A43944695
:10544000692800D0A2E080233200DB001A40904699
:105450001E4200D151E64CE64346002B00D093E6B5
:1054600073E60C9B1B68DA0F002B70D0D9175B1802
:105470004B4098461F2612ABF618A14614955C4681
:105480004546BB46E04637000C9206E028000A215C
:10549000FDF758FE0500202C08D00A212800FDF752
:1054A00051FE013430313955092DEFD85F46C446DD
:1054B000A3464C46149D0C9A634606930D9B059596
:1054C00004930A23029203935B4667E60C9B1B68D6
:1054D0009846002B03D11033994300282DD1612029
:1054E0008B0600D541201F2612ABF61803000A3B9D
:1054F0004A460C93149143463100A846A1465E46A5
:105500001400BB461D000F0002E00500202C0DD04A
:1055100031002800FDF716FE0C9BCB18092901D895
:105520000B00303301343B55B542EED223005F46C9
:105530004C464546B346994614990D9B06910493F3
:105540005B4603930023059502934B4626E64346AC
:10555000002BB1D18EE70C9B1B68D817191841405E
:10556000EDE580233200DB001A400F921E420FD07F
:105570000230020032400F92304219D00023A04680
:105580000F939AE50C9B1B68994618E516009BE45F
:1055900002231A0032400C92334200D08CE5002DD9
:1055A00000D06DE6FFF7F0FB01330F93FFF7D0FB60
:1055B0000C93F4E784460CB400B585B006AB0A0042
:1055C00002CB0548039300930B006146FFF796FA60
:1055D00005B008BC02B018477D3E001000B585B08C
:1055E0000391012102900093034813004A4202A94B
:1055F000FFF784FA05B000BD1941001010B5094A43
:105600000300146884B0002C08D0012200910648E1
:10561000524203A9A047012004B010BD00F004FAD3
:105620000020F9E73C2900200941001000BEFDE7F9
:10563000094A1368002B06D008491818884208D870
:10564000106018007047064B044918181360884210
:10565000F6D901235B42F4E738250020000004203E
:10566000102A00208C4610B51100002805D1044BEB
:1056700060460CCB00F034F910BD01204042FBE73E
:10568000409F0010013810B51400012807D8080009
:1056900001230022210000F0A9F8200010BD012004
:1056A0004042FBE7012040427047C0460120404293
:1056B0007047C04610B5FFF7B9FFC04670B5FDF79B
:1056C000DFFB074D074EB54209D20024013E761B91
:1056D000B608013608CD01349847B442FAD170BDFE
:1056E000CC930010D4930010030010B508001100F3
:1056F0001B68984710BDC046F8B5437D07000D00F4
:105700001600002B38D0002A1ADD0B780A2B18D08F
:105710000020012E09D0012421006B5C01340A2BEA
:105720001AD0B442F8D1864203DD311A3B682818FA
:105730009847AD19013D2B780D3B5A4253413B75BB
:10574000F8BD037D002BE3D102210E483B6898474A
:10575000012EEED00120DEE76B1E5B5C0D2BE0D04E
:10576000884203DA091A3B6828189847054802213D
:105770003B6898472000D4E7036811002800984749
:10578000DEE7C046D8A10010F0B5C6460B6807009A
:105790000D0000B5802B06D05A1C2A60ED182F7121
:1057A00080BCB846F0BD0F4B1C68002C16D00B1DFA
:1057B00098460D4E02E02469002C0FD02368002B80
:1057C000F9D03368002B01D0A342F4D12000414628
:1057D0002A68FFF791FF2469002CEFD101220023F2
:1057E000DBE7C0462825002034250020F0B54646DA
:1057F000D6464F46C0B582B090461C0006000D004C
:10580000FCF7ACFE00232F4A12184B41002B02DAA2
:1058100001222D4B52422D4908008A4603F0A0FD7B
:1058200081466B1C03D1300003F00CFB0500002CFB
:1058300027D0274F274B1C68002C18D04346002B3D
:1058400021D1254B984602E02469002C0FD0236813
:10585000002BF9D043461B68002B01D09C42F3D1AA
:1058600020002A003100B8472469002CEFD14B46B4
:10587000002B23D1280002B0E0BCBA46B146A846AE
:10588000F0BD164FD6E7144B984602E02469002C71
:10589000EDD02368002BF9D043461B68002B01D0C4
:1058A000A342F3D12A0031002000B8476B460A22F8
:1058B0002000DA71D91D093AB847E7E7504603F0EE
:1058C00007FDD7E740420F00FFFFFF7FC018002011
:1058D000F95600102825002034250020E956001034
:1058E000F0B54F464646D6469946194BC0B5924646
:1058F00007000E009846174D43461C68002C03D144
:1059000014E02469002C11D02B68002B01D0A34295
:10591000F7D1A368002BF4D0310038009847002855
:10592000EFDDE0BCBA46B146A846F0BD0A4B5B6A63
:10593000994508D8084A926A524502D3022040424B
:10594000EFE79945FAD101200021FCF711FED3E7DA
:105950002825002034250020004005400A4A13680D
:10596000002B05D10CE01A001B691032002B07D068
:105970008342F8D1002902D118691060196170477B
:105980000029FCD01060FAE72825002010B500F0AF
:10599000EBFA10BDF0B5CE46474680B583B06B46F6
:1059A0000600DD1D2870FCF7D9FD0023194A1218E6
:1059B0004B41002B02DA0122174B524217490800D3
:1059C000894603F0CDFC164B80461C68002C14D091
:1059D000144F02E02469002C0FD02368002BF9D06B
:1059E0003B68002B01D09C42F4D120000122290009
:1059F000FFF782FE2469002CEFD14346002B05D12E
:105A0000300003B0C0BCB946B046F0BD484603F014
:105A10005FFCF5E740420F00FFFFFF7FC01800204A
:105A2000282500203425002070B5040003F00AFA70
:105A300001230100050001222000FFF7D7FE084BDB
:105A40001C68002C06D06368002B05D09847246999
:105A5000002CF8D1280070BD2469002CF3D1F9E79F
:105A600028250020F0B5CE46474680B5A3B00400F7
:105A70000E00FCF773FD0023264A12184B41002B41
:105A800002DA0122244B5242244803F069FC00232D
:105A90002200019380463300214801A9FFF79EFDB3
:105AA000204F019B81463C68002B19D0002C2FD041
:105AB0001D4E02E02469002C0FD02368002BF9D082
:105AC0003368002B01D0A342F4D12000019A02A92F
:105AD000FFF712FE2469002CEFD100233C680193EC
