:020000041000EA
:1000000000B5324B212058609868022188439860DF
:10001000D860186158612E4B002199600221596106
:100020000121F02299502B49196001219960352056
:1000300000F044F80222904214D00621196600F024
:1000400034F8196E01211966002018661A6600F04E
:100050002CF8196E196E196E052000F02FF8012189
:100060000842F9D1002199601B49196000215960AB
:100070001A491B48016001219960EB211966A021F2
:10008000196600F012F800219960164914480160C1
:100090000121996001BC002800D000471248134993
:1000A000086003C880F30888084703B5996A0420EC
:1000B0000142FBD001200142F8D103BD02B5186610
:1000C0001866FFF7F2FF186E186E02BD00000240BE
:1000D000000000180000070000035F00212200005C
:1000E000F4000018222000A00001001008ED00E03C
:1000F00000000000000000000000000074B24E7A12
:1001000000200420F7010010CB010010CD010010E9
:10011000C9010010C9010010C9010010C901001077
:10012000C9010010C9010010C9010010CF01001061
:10013000C9010010C9010010D1010010D301001045
:10014000C1010010C1010010C1010010C101001067
:10015000C1010010C1010010C1010010C101001057
:10016000C1010010C1010010C1010010C101001047
:10017000C1010010C1010010C1010010C101001037
:10018000C1010010C1010010C1010010C101001027
:10019000C1010010C1010010C1010010C101001017
:1001A000C1010010C1010010C1010010C101001007
:1001B000C1010010C1010010C1010010C1010010F7
:1001C000EFF30580103800BE00BE00BE00BE00BECA
:1001D00000BE00BEF2EB88711C9800103C98001025
:1001E0003802001090A31AE71E481F49086006C88D
:1001F00081F3088810471D480068002801D019487D
:10020000F3E70DA40ECC002902D000F012F8F9E7B4
:100210001749184A002000E001C19142FCD116495B
:100220008847164988471649884700BEFDE701C937
:1002300001C29A42FBD370473C980010C0000020D6
:10024000180D002094A400100000042000000420D9
:1002500094A40010001004200010042000000000EE
:10026000704700000000000008ED00E0000000D032
:10027000180D0020281D002029460010150500102B
:10028000E9450010F8B5C04606480749091A8B1021
:10029000C90FC91810B5491003D0044B002B00D06A
:1002A000984710BD180D0020180D00200000000018
:1002B000054B10B5002B03D00449054800E000BFF2
:1002C000FFF7E2FF10BDC04600000000641A0020E6
:1002D000D47E001070B584B006000C0001AB02AAF9
:1002E00003A901F0B1FE051E04D1002C09D12000A4
:1002F00004B070BD019A0299039801F071FE2C00C0
:10030000F5E70248310000F04BFEC046D87E0010F1
:1003100010B50E4C0E4A0021200000F09DF943421A
:100320005841C0B200F004F9200000F06DFA00223C
:100330000849200000F008FA43425841C0B200F0DA
:10034000F7F8200007F05CFD10BDC046A00E0020AD
:1003500080DF171090C0D60010B52349234B1868D2
:1003600000F0DEFC041E04DB214804F0BDFA00248A
:100370000FE0204804F088FA1F48210004F0B4FA86
:10038000022040422EE0184B195D1C4804F0ACFAE4
:100390000134092CF7DD0A2004F068FA18491248E4
:1003A00000F020FD174804F09FFA002405E0144BEC
:1003B000195D154804F098FA01344E2CF7DD0A2037
:1003C00004F054FA002407E00D4B195D0F4B19554A
:1003D0000F4804F089FA01344E2CF5D90D4804F089
:1003E00053FA002010BDC046841A0020480C00209B
:1003F000307F00100C7F0010247F0010407F001021
:10040000BC1C0020487F0010547F00100C160020F8
:10041000587F0010647F001070B50600D0242406B9
:100420008025AD04656101F06BFCA561300001F031
:1004300067FC70BD70B501211248FFF74BFF04F057
:1004400011FAFA20800001F05BFC192000F072FD27
:10045000D0231B06802292045A6204F0E3FB0BE0D7
:10046000D02424068025AD046561162001F048FCE7
:10047000A561162001F044FC04F044FC0028EFD0F4
:1004800070BDC046B01E040010B5022000F052FD41
:10049000D024240604236362A361042000F04AFDF3
:1004A00010236362A361052000F044FD20236362F2
:1004B000A361062000F03EFD40236362A361072094
:1004C00000F038FD80236362A361032000F032FD59
:1004D00008236362A3610A2000F02CFD8023DB0067
:1004E000A3620B2000F026FD80231B01A3620820DD
:1004F00000F020FD80235B00A3620D2000F01AFDB8
:1005000080239B01A3620E2000F014FD8023DB01F9
:10051000A36210BD10B5FFF78DFFFFF7B5FFFFF722
:100520001BFF024807F096F907F03AFC1103001090
:1005300070B5002800D070BD193000F0FBFCD0234E
:100540001B06802292045A62D02424068025AD0422
:100550006561322001F0D4FBA561FA20400001F072
:10056000CFFBF1E710B504001022002102F03AFFA2
:1005700080235B022360F8235B0263608023DB023D
:10058000A360C0231B03A360200010BD70B504004E
:100590000D00FFF7E7FF2A000C32636804490B40A7
:1005A000ED012B43120313436360200070BDC0466E
:1005B0007F00FEFFF0B5C64600B586B005000E0010
:1005C00090461F0002AC11002000FFF7DFFF0499E6
:1005D0001D4B0B40A0221203134304931B4B1940E5
:1005E0000A438023DB0513430493059B1F22934397
:1005F0003A4013430593164A134080225203134393
:100600000593144BE918090DC9B20631C9B2380077
:1006100000F076FC012300933A003100280007F037
:1006200015FA80235B020293230042463100280022
:1006300007F06AFA2A680123B34013432B6006B01F
:1006400080BCB846F0BDC046FFFFF5C1FFFFF50115
:10065000FFFF0FFC0000E0AF70B584B004000E0097
:100660001500431E9841C0B2FFF762FF2800431EE9
:100670009841C0B2FFF75CFF5C220021200002F02D
:10068000B1FEA56429486060A660294907F0C6F953
:1006900020626068012107F0A5F9E061A06800F020
:1006A00049FC6168A068234B9C466144090DC9B2AE
:1006B0000631C9B200F024FCE169226AA3686068CF
:1006C000FFF778FF266A6D4631006846FFF75EFF48
:1006D00023000C3307CD07C32A681A606169164BE3
:1006E0000B40A022120313436361144B19400A43C9
:1006F0008023DB0513436361A268A36910490B40A3
:100700005201F82189000A401343A3610D4A1340A6
:100710008022D2041343A361E16923000C33606893
:10072000320007F0F1F9002004B070BD0000205045
:10073000588D00100000E0AFFFFFF5C1FFFFF5018D
:100740001FFCFFFFFFFFFFE3F0B5D6464F464646CE
:10075000C0B582B080460C000192431E9841C0B2E1
:10076000FFF7E6FE43469B6C9A46002B3ED0FA22EA
:10077000D2000023A1462000002102F079FD019B58
:100780001E00DF1736184F4154460025E10E600168
:10079000001BA941820F94468B006344820012190A
:1007A0006B415009D906D40622004318F907740892
:1007B0000C197D1012196B411000190032003B001A
:1007C00001F040FF42465062FC221206944660440B
:1007D000094B1860424649461165019B536500204C
:1007E00002B0E0BCBA46B146A846F0BD034B044A8D
:1007F0000448792103F0FCFEAC1C0020847F00102B
:10080000488D0010987F001070B50400431E984179
:10081000C0B2FFF78DFE6168E0690B680122150028
:1008200085402B430B60A26570BD3038C3B20020F9
:1008300009229A424041C0B270470300413BDBB2FB
:10084000192B05D96138C0B2192803D8012000E05E
:10085000012070470020FCE7884203D3904203D96F
:10086000002000E0002070470120FCE770B5050083
:100870000C00080007F062FA02002100280007F0CF
:100880009DF943425841C0B270BD10B507F012FA4D
:1008900043425841C0B210BD0300002001E00130C6
:1008A00001331A78002A02D08A42F8D101E00120EF
:1008B00040427047F8B5CE46474680B506008846A8
:1008C00005782D2D20D02B3D6B425D41EDB20023EC
:1008D0009946002705E0BB00DB195B00303CE718B8
:1008E0000135454507DA745D002C04D02000FFF780
:1008F0009CFF0028EFD14B46002B00D07F423800F0
:10090000C0BCB946B046F8BD012501239946E0E7D1
:10091000F0B585B004006649FFF7A8FF002802D0B3
:10092000002005B0F0BD63492000FFF79FFF0028BD
:1009300001D00120F5E760492000FFF797FF00286C
:1009400000D0A0E05D492000FFF790FF5C4B1A68E3
:1009500002929A8802AB9A80002500E001352E00B1
:10096000635D202B01D0002BF8D156492000FFF702
:100970007DFF002801D0072D21DD53492000FFF71E
:1009800075FF002806D0A078FFF757FF002801D098
:10099000072D69DDA078FFF748FF002801D0062D5C
:1009A0006BDD6078FFF741FF002813D0052D11DCC7
:1009B0003200210002AB581C02F01AFD0AE002AB23
:1009C000424A1188198092789A70211D2A1FD81CDA
:1009D00002F00EFD02AB19783D48FFF75DFF041EE3
:1009E00053DB02AB59783B48FFF756FF051E4FDB40
:1009F00002AB99783848FFF74FFF061E4BDB02AB7E
:100A0000D9783648FFF748FF071E47DB02AB197954
:100A10003248FFF741FF0190002842DB02AB5979D1
:100A20002E48FFF739FF00283EDBE3001B199B002F
:100A30005B199A00D2185200B446624453009B18C6
:100A4000DA009B18BC4663445A00D218D300D2186F
:100A5000019B9C46624453009B18DA009B181818AF
:100A60001F4B9C4660445CE702AB51221A70A11CEC
:100A7000AA1E581C02F0BCFCACE73200210002A800
:100A800002F0B6FCA6E702204BE70120404248E70F
:100A90000120404245E70120404242E70120404218
:100AA0003FE7012040423CE70120404239E7C04691
:100AB000E07F0010E47F0010EC7F0010F07F00105A
:100AC00004800010F47F001000800010FC7F0010F4
:100AD000C0910010989100108C910010709100103E
:100AE000E87C5F0010B5041E5ED03349FFF7CDFEF1
:100AF00000285BD131492000FFF7C7FE002857D1FD
:100B00002F492000FFF7C1FE002853D12078522240
:100B10004121FFF7A1FE00280CD12378522B36D0BB
:100B200003212000FFF7C6FE80B2264B9C4660449E
:100B300080B23CE0607852224121FFF78DFE002810
:100B4000EBD0A078FFF771FE0028E6D0E078FFF741
:100B50006CFE0028E1D02378413B9BB26278D9003B
:100B60005B185B00D21892B2413A92B2A37891001E
:100B7000521852009B189BB2303B9BB2E0789A000F
:100B80009B185B00C01880B2303880B20FE0601C48
:100B90000321FFF78FFE83B20A4A944663449BB257
:100BA0000948184380B202E0084800E0084810BD38
:100BB0000848FCE70848FAE70C8000101080001095
:100BC00018800010B37E00000080FFFF917E0000BF
:100BD000927E0000937E0000947E0000F8B5040031
:100BE0000E00202107F00CF800283BD0471C200005
:100BF000FFF78EFE04003800FFF78AFE0500002C88
:100C000033DB002834DB2021380006F0F9FF002810
:100C100025D00130FFF766FF63006A005915317077
:100C2000591371705911B170DB00DBB29116C9B262
:100C30000B43F37093143371931273719310B37168
:100C40009201D2B2830ADBB21A43F2718308337283
:100C50008001C0B20823184370720020F8BDFFF76E
:100C600041FFD9E701204042F8E701204042F5E783
:100C700001204042F2E70000F8B507000C0007F041
:100C80005DF8050001E00137013D3B78202BFAD0EB
:100C900000E0013D002D0DDD6B1EFB5C202BF8D02C
:100CA000002303E0E218002111700133082BF9DD65
:100CB000002627E00023F9E7A05C2A2141435B18C6
:100CC0009BB2A3541B0A013A002AF5DAB5420EDCA6
:100CD0000021490089B20822002A12DB002910D025
:100CE000A35C5B189BB2A354190A013AF4E7B95DFF
:100CF0000A48FFF7D1FD002801DB81B2E9E70020B7
:100D0000FBE701360C2E02DC08220023DCE7237A05
:100D100001229343237200236372F8BDE89100100F
:100D200070B504000D00FFF759FF002801D1002025
:100D300070BD29002000FFF79FFFF8E7030943403B
:100D4000980858404308434001201840704700006D
:100D5000F0B5D6464F464646C0B507008A46002342
:100D600003E0FA5C5146CA540133152B03DC0B2B0C
:100D7000F7DD0022F6E700250B2399460533984658
:100D800023E0395D164B6A00521992009B18185DDA
:100D90000840FFF7D3FF4640F6B201340B2CF0DDDC
:100DA000F60707D553464A469B5C424613435246D4
:100DB0004946535443465B08984605D14B46013398
:100DC000DBB29946802398460135522D02DC00247F
:100DD0000026E3E7E0BCBA46B146A846F0BDC046EF
:100DE0007C8D001070B58AB00D0007AC210000F0BA
:100DF0006BF801A92000FFF7ABFF00220020802341
:100E00000FE02049895CA9540AE01E4C615CA9549A
:100E100006E01C4C615CA95402E01B4C615CA955C6
:100E200001324E2A2CDC1600062AEAD91100243998
:100E30000629EAD9110048390629EAD901A90C5C2A
:100E400019002140234200D004215B0801D1013068
:100E5000803301AC245C234202D002242143C9B276
:100E60005B0801D10130803301AC245C234202D005
:100E700001242143C9B25B08CFD101308033CCE7D4
:100E80000AB070BD689100106091001030B5050087
:100E90000C0000220021002302E05B009BB2013223
:100EA000A2420CDA500703D1685C80014340013153
:100EB0009804F2D55B00034843409BB2EFE79804E7
:100EC000800C30BD5727000070B50C00002302E0F5
:100ED000C25CE2540133092BFADD657A07239D4396
:100EE00065720023A37252212000FFF7CFFFC30ACF
:100EF000DBB21D436572C308A3724001E07270BD8E
:100F000010B58300084A9A18126840245440C02241
:100F10002240064CA44663441A60C000044B9C4621
:100F20006044416010BDC04604C0014004D001408F
:100F30000040014010B501238340D0221206936285
:100F400093610521FFF7DCFF10BD000010B5802381
:100F5000DB05186803051B0D0B4A934207D10B4BA9
:100F6000034080229201934207D1000F10BD084B2D
:100F7000084A0948132103F03BFB084B054A064881
:100F8000142103F035FBC0462709000000F0FF0FD5
:100F90001C80001014920010408000108880001007
:100FA0000FB400B583B0084803F06EFC049B002B1F
:100FB00007D005A90191180003F076FC034803F05F
:100FC00063FC012003F00EFB9C800010AC8000103D
:100FD000EFF3108072B6034B1B68002BFBD0BFF3FE
:100FE0005F8F70472C0100D0BFF35F8F024B002250
:100FF0001A6080F3108870472C0100D070B505008E
:101000000C001600FFF7E4FFE308EA189446E95CD9
:1010100007222240012393400B4206D1DBB20B434F
:1010200062461370FFF7E0FF70BD21003000FFF74C
:10103000B7FFF0B583B00500019114001E00FFF763
:10104000C7FF00E00134B4420CD8E308EF18EB5CB2
:101050000721214001228A401A42F3D1D2B21A4319
:101060003A7001E001246442FFF7BEFF002C02DB6E
:10107000200003B0F0BD019B002BF9D00898FFF7CA
:101080008FFF0000054A1078431CDBB21370172B4A
:1010900002D9130010221A707047C0464C0C002071
:1010A00000B583B001000448044B00931F231822AD
:1010B000FFF7BFFF03B000BDA4150020B0800010F3
:1010C000002307E0054A9A189200BFF35F8F0021C2
:1010D000116001331F2BF5D97047C0464000003422
:1010E000074B9B68103080001950BFF35F8FBFF330
:1010F0005F8F044B0021196082F310887047C0464F
:1011000000ED00E0240100D00048704700E400E05A
:1011100010B5FFF7F9FF002302E0034A04C00133D2
:10112000072BFAD910BDC0468080808010B5038897
:10113000DA0A1C2A05D15B055B1502335B00C01877
:1011400010BD034B034A8E210348490003F050FAB7
:10115000CC80001050920010E480001010B5091AE5
:101160000B1F0A4A88180A4A904208D8C90706D4B1
:101170005B105B055B0D0748184380B210BD064B42
:10118000064A87210648490003F032FAFC070000AE
:10119000FE0F000000E0FFFF2881001044920010C5
:1011A000E480001001238340034A10681840431E66
:1011B0009841C0B27047C04600E100E0002A05D067
:1011C000044BC0225200995019607047014A802395
:1011D000D150FAE700E100E010B50A001F230340F8
:1011E000012199404009FFF7E9FF10BD0123834029
:1011F000014A13607047C04600E200E0024B9B6862
:1012000010308000C058704700ED00E010B5FFF7C7
:10121000F5FF044BC31A00202F229A424041C0B26E
:1012200010BDC046500C002070B505000E00EFF355
:10123000108472B60C4B1B68002BFBD0BFF35F8F82
:101240002800FFF7DBFF094B984201D0B04205D1DF
:10125000220031002800FFF743FF70BD044B054A10
:101260000548ED2103F0C4F9240100D0C1010010AC
:101270005881001078920010E4800010F0B5DE462E
:1012800057464E464546E0B589B081460191150066
:10129000EFF3108372B69A466E4B1B68002BFBD09F
:1012A000BFF35F8F6C4B00269E57002E40DB74000F
:1012B000A419A400694823189B4606229A56664B37
:1012C0001A70674B9A684B4610339B00D7583B1AED
:1012D0002F2B3BD9634B9F4231D105AF624B3B80F3
:1012E000624973000293981980005C4C0019023027
:1012F000FFF734FF78805E4BBB80FF23BB71FD712D
:10130000019A0792029B9B199B00E31807CF07C322
:1013100001275B463B431F00524639004846FFF712
:10132000DFFE09B0F0BCBB46B246A946A046F0BD00
:10133000504B514ABE215148490003F059F9504BD6
:101340004D4A84214D48FF3103F052F901233A0000
:101350009A439046101A0C2101F04EF900290FD142
:1013600043460024DA79AA4212D9062159560029A7
:101370000DDB4A005218920038491C008B18F1E727
:10138000404B3D4ACA213D48490003F031F91C0059
:10139000002C2DD005AB3C4A1A80813A5A80062396
:1013A000E3569846002B16DA384804AB18814246BB
:1013B0009A72DD72019B0793201D5946FFF7CEFEFE
:1013C000A080A671254B7200921992009B1805AA65
:1013D00013CA13C3A0E7201DFFF7A8FE0100700089
:1013E000801980001D4BC0180430FFF7B7FEDCE702
:1013F00005AF1D4B3B801D49730002939B199B0059
:10140000164C1800A446604403900230FFF7A6FE75
:101410007880039A101D4146FFF7A0FEB8801C4B50
:101420004246121B524153431B0DBB71FD71019982
:101430000791029B9B199B00A446634407CF07C3F7
:10144000114B42461380813B538001275B463B434F
:101450001F0061E7240100D0211D0020500C002056
:1014600000ED00E0C101001000A1FFFF800C002092
:1014700001BDFFFF9081001060920010E480001019
:10148000B8810010E08100100148000001BD00009B
:10149000AAAA000070B5012202432D4BD31A2F2BAC
:1014A00029D8EFF30583002B2BD0EFF3108172B610
:1014B0008C46284909680029FBD0BFF35F8F244C74
:1014C000254905002D1B6D416943090D4CB2234987
:1014D00089689B00C958914219D00021032930D84E
:1014E0001B4B4A00521892009B189B795BB2A34297
:1014F0001DD00131F2E71A4B1A4A1B481B4903F071
:1015000077F81B4B174A18481A4903F071F8134A29
:1015100092681949D150194B1A7882711C70BFF327
:101520005F8F0C4B00221A608CF3108870BD084B43
:101530004A005518AD005D19FF26AE71104AAA8009
:10154000E9E7104B074A08480F4903F051F8C04635
:10155000500C0020240100D0AAAA000000ED00E0F9
:101560006482001028920010E48000107F020000C6
:101570008C82001082020000C1010010211D002099
:1015800001BDFFFF988200109302000000B583B0F8
:1015900001000648064B009305230022FFF749FD92
:1015A000002801DB1F23181A03B000BD251D0020F1
:1015B000A0820010024B9C46614489000160704784
:1015C0004000003410B50400FFF75CFD010020006E
:1015D000FFF7F0FFFF232371BFF35F8F10BD10B53E
:1015E0000400FFF74FFD01002000FFF7E3FFFF239A
:1015F000237100236371BFF35F8F10BD10B50D4CD5
:1016000009E00D4B0D4A0E481A2102F0F1FF2000AF
:10161000FFF7D8FF08340B4B9C4209D22368002BFC
:10162000F5D0012BEDD12000FFF7D9FF0834F2E708
:1016300010BDC046080D0020BC820010B8920010FA
:10164000DC820010180D0020034B9C466144890089
:101650000160BFF35F8F70474000003410B5040095
:101660000120FFF71DFD01002000FFF7EDFF10BD79
:1016700030B5836A9C46D41A0B1D9B001B586546E7
:101680005B1B9C4204D3046A01238B40234202D19A
:10169000043189000A5030BD00040843704700003F
:1016A0000A4B1968EFF3108372B60A68002AFCD05F
:1016B000BFF35F8F054A1268BFF35F8F002111608F
:1016C00083F3108840BF002000217047B01C002029
:1016D000F0B5DE4657464E464546E0B583B0EFF3DB
:1016E000058303221A4011000192AF4B9200D35898
:1016F00098461B788B4207D10123019A93400093AF
:10170000AA4B009A1A601FE1A94BAA4AAA48922143
:1017100002F06EFF43465A694B465B004B44DB00C8
:1017200093469B445B469E68DF68A44800F0ACFB90
:10173000801BB941002900DA10E1002F61DB5B4614
:101740001C699F4B9C4247D043460820185E5B466D
:10175000598889B2FFF7A0FF5B465969A04704008A
:101760000D0023002B434CD0002D3EDA3000390011
:10177000001BA9415B469860D96000241C5F002CC7
:1017800000DAEBE043465A69924663001B19DB001E
:1017900053449A68DB6805000E00AD1A9E41002E86
:1017A00000DADBE043461C8147460837BC46002C84
:1017B00021DB634600229B5E5D00ED18ED00554481
:1017C000AA68EB6806000F00B61A9F41002F12DBD3
:1017D000AC460023EC5EEAE75B465C6923692000C7
:1017E000984700280DD030CCBBE7744800F04CFB84
:1017F00000196941BEE75B461C804B466246138078
:10180000ACE05B4600229B5E424613811269EFF317
:10181000108372B611680029FCD0BFF35F8F424677
:101820000221525E59460A80424649465180126959
:10183000BFF35F8F0021116083F310888EE0434671
:101840001969EFF3108372B60A68002AFCD0BFF35F
:101850005F8F4246928812B291460122524241461F
:101860008A800A69BFF35F8F0021116083F31088BB
:101870001CE09B4600229A5E002A0EDB5B4600219C
:10188000595E4B005B18DB0053449868D96826000A
:101890002F00361A8F41002FEBDA4B4659460B804A
:1018A000634600215B5E994663461A804B46002BD7
:1018B0005ADB43465A6992464B465B004B44DB0079
:1018C0009C46D44463469C68DD6846460836B34669
:1018D000434608229A5ECFE7002342469371414671
:1018E000083143460820185E11E001225242D31706
:1018F000A260E360434608229B5E834206D00D80CF
:10190000434608229B5E2380434618812800431CDF
:101910002ED043465A6943001B18DB00D418D55E0D
:1019200063881BB2002BE0DB2100EFE722002B00D5
:1019300001992248FFF79CFE204800F0A5FA241ADE
:101940008D41002D28DC25D01C4B009A5A6343465C
:1019500008229B5E9946002B00DBDBE643469B8812
:101960001BB2002B00DB6AE743469B79002BB3D107
:10197000434608229A5E002A0EDB4346596953000B
:101980009B18DB00CB189C68DD68631CCED16B1CF8
:10199000D2D0CBE7002CD7D040BF03B0F0BCBB46C1
:1019A000B246A946A046F0BD901A00203C70054002
:1019B00070830010E49200109C83001000400540EA
:1019C000D116001070B504000D0011000126AE40C4
:1019D00006622800FFF728FC01212800FFF7FCFB26
:1019E000024B9C466444266070BDC046382000000F
:1019F000F8B504000F0016001D00C160FFF742FBA0
:101A0000124B9C466044800020612670ABB263811B
:101A1000D022120612786270012252422281A280E4
:101A20009B186380002306E0581E61695A00D21893
:101A3000D20088520133AB42F6D3054BB200D450EA
:101A4000044A31003800FFF7BDFFF8BD4000003404
:101A5000901A0020D116001010B5064B1B69002B00
:101A600001D0044810BD044B044A0548652102F02A
:101A7000BFFDC046980C0020DC830010CC92001003
:101A80009C830010F8B504000569EFF3108072B66E
:101A900029680029FCD0BFF35F8F0221665E65696B
:101AA00071008919C9006D18002E02DB0027E95F5B
:101AB00061802169BFF35F8F00270F6080F310887A
:101AC000002E2CDB0699296107996961AA60EB60F9
:101AD0006B8801335B04590C002B00D10121698014
:101AE0003000FFF7D9FD2169EFF3108372B60A6861
:101AF000002AFCD0BFF35F8FA2882A80A6802269CB
:101B0000BFF35F8F0021116083F31088E3682178B1
:101B100001228A4003498C4663441A60F8BD0120C3
:101B20004042FBE73C20000070B582B00600140084
:101B30001D0008AB1B78002B07D100F0BBF9220079
:101B40002B00121A8B41002B0ADB079B0193069B8B
:101B5000009322002B003000FFF794FF02B070BD0D
:101B60000020FBE7F0B5C64600B584B080460F0004
:101B700016001D000AAB1C78FFF76EFF029401955A
:101B8000009642463B00FFF7CFFF04B080BCB8464A
:101B9000F0BD000030B504000A1443899A4230DADF
:101BA000406953009B18DB00C31822699446EFF389
:101BB000108272B6604600680028FBD0BFF35F8FCA
:101BC000588885B20904090C884212D00020236984
:101BD000BFF35F8F0021196082F31088002811D0B5
:101BE000E368217801228A4007498C4663441A60E1
:101BF00008E00649294389B259800123A3710120D5
:101C0000E5E7002030BDC0463C2000000080FFFF1B
:101C100010B50400FFF720FF2100FFF7BBFF10BD48
:101C200040787047F0B583B006000F00EFF30583EE
:101C3000002B1AD106246442E517A4197D418D4278
:101C400002D803D1844201D90024002500F032F9E2
:101C500022002B00121A8B41002B0BDC08D0300025
:101C6000390000F02FF903B0F0BD1648FFF798F9DE
:101C7000002AF4D0144A0023009320002900FFF723
:101C800071FF002813DAEAE7104B1968EFF31083AD
:101C900072B60A68002AFCD0BFF35F8F0B4A126845
:101CA000BFF35F8F0021116083F3108820BF084BC2
:101CB0005B6A9D42E8D80649896AA142CFD29D421B
:101CC000CDD1E1E700840010A1160010B01C002067
:101CD0000040054070B504000D0000F0EBF8220054
:101CE0002B0012184B411000191E02DBFFF79AFF60
:101CF00070BD012040420149F8E7C046FFFFFF7F69
:101D000010B5FA2292000023002101F0B1FAFFF78A
:101D1000E1FF10BDF0B585B003900291EFF30583AC
:101D2000002B13D00B00414A526A8A4209D33F4923
:101D3000896A814208D29A4201D0012002E0002043
:101D400000E0002005B0F0BD0120FBE7FFF784FEB6
:101D5000C3681F000678039A1400029A1500180041
:101D600000F092F802000B00A41A9D412200311DE0
:101D70008900C959091A0020A84211DC0ED020BFE1
:101D8000029A2A4B5B6A9A4234D82849896A039896
:101D9000814231D29A422BD00120D3E79142EED931
:101DA000234A00230093039D2800029C2100FFF793
:101DB000D9FE002822DD02990D001C4B5B6A994276
:101DC00006D81A4A926A039CA24202D2994200D1D2
:101DD00020BFFFF71DFF154B5B6A9D4222D8134AB7
:101DE000926A039882421FD29D4219D00120A9E72E
:101DF0000020A7E70020A5E70120A3E70B4B5B6AC3
:101E00009C4209D80949896AA94207D29C4201D05B
:101E1000012097E7002095E7002093E7012091E754
:101E200000208FE700208DE701208BE70040054070
:101E3000A1160010004870470040054010B50B4B3C
:101E40001B69002B04D00A480A21FFF7B3FB10BD21
:101E5000FFF7F0FF0400032100F00CF80348102303
:101E600003222100FFF7C4FDEDE7C046980C0020D7
:101E7000B01C002010B5024A0248FFF7BFF810BDA1
:101E800050840010A81500200200436A906A1900CF
:101E9000536A9942FAD17047416A00E0416A994217
:101EA000FCD300E0416A994202D1816A9142F9D3A0
:101EB0007047000010B50248FFF7E6FF10BDC046AE
:101EC0000040054010B502000B000248FFF7E4FF98
:101ED00010BDC04600400540F8B5CE46474680B527
:101EE00005000E009046994644002418A400284B93
:101EF0009C4664446368089A934200D262602F1F34
:101F0000FFB2012F2ED980221201C0239B01E318BA
:101F10001A60204BAA00D158002907D0586900F058
:101F20006BFB013043001B18033BFDD243465B01B2
:101F300022685340E022134080225201A21813600D
:101F4000012F1AD980239B01E318802212011A6005
:101F5000089B63600F4BAD004A46EA50C0BCB946CF
:101F6000B046F8BD012ECED10322C0239B01E31859
:101F70001A60A368DB07FCD5D8E72168714003230A
:101F80000B401360A3680122B2401A42FAD0D9E78D
:101F900000800040B015002070B582B006000D0032
:101FA00014001800069900F027FB0300069A11029E
:101FB0000091220029003000FFF78EFF02B070BDB3
:101FC00010B582B0802464000094FFF785FF02B052
:101FD00010BD0000014B8000C0587047B0150020B4
:101FE000F0B583B007000D001400144E3300012239
:101FF00001210520FFF7E4FF00942B003A000121A6
:102000000F4800F073F821006943380000F0F4FA3B
:1020100004000C4B002202210420FFF7D1FF230013
:10202000002201210520FFF7CBFF3300022200210F
:102030000620FFF7C5FF03B0F0BDC046006CDC0210
:1020400000800240001BB700F0B5DE4657464E4602
:102050004546E0B583B080468A4693460193A02367
:102060005B0099462AE0013C002C1ED025007D43F0
:102070002900300000F0C0FA4045F4D129003000BA
:1020800000F0BAFA0029EED1144B4A4653435246A7
:1020900013605B461F60019B1C60012003B0F0BC15
:1020A000BB46B246A946A046F0BD013F002F01D075
:1020B0003C00D9E701235B429C46E1444B460F2B91
:1020C00009D9074E4B465E43064BF218064B9A421F
:1020D000F0D80727EAE70020E0E7C046001BB7007A
:1020E000E02E0000508EF4FF50F80C00F0B5C6460C
:1020F00000B504000E0017001D00374800F07CFA00
:102100008046364BFA18364B9A4239D801003800CF
:1021100000F072FA0200103A98235B009A4235D818
:102120006B1E062B38D8069B013B062B34D83F0983
:10213000474537D32D04069B1B031D432368002B03
:1021400036DB284B9C4244D00C2201239340264A84
:102150001360264A1360264A1268190091430A1E2A
:10216000F9D12660A060234BE31821321A6022685F
:10217000002AFCDAE56008221A6080BCB846F0BD8F
:102180001D4B1E4A1E48112102F032FA1D4B1B4AFC
:102190001B48192102F02CFA1B4B184A18481C2125
:1021A00002F026FA194B154A1548232102F020FAAD
:1021B00022683F231340B342C3D1A3681B051B0D04
:1021C0008342BED1E368EE22D2021340AB42B8D1C3
:1021D000D3E70D22B9E7C046001BB70080E84BD318
:1021E00080F8A93200C0024000E0004000F000404A
:1021F00008C000400430000074840010FC920010FD
:10220000C48400100885001024850010708500101B
:10221000024B1A68024B5A607047C0465C1A002095
:102220000080054010B5174B8022D2051A60164B6E
:10223000164A1A6000290AD0154BE022D2041A600F
:10224000002809D1124B802212061A6010BD0D4BD6
:10225000E022D2041A60F3E743011B1A9B0018180E
:1022600000010C4B186080235B04984202D3094B99
:10227000094A1A60FFF7CCFF054B8022D2051A608D
:10228000E4E7C04600B0054008200140FCFF010023
:1022900000A005405C1A0020FFFFFF0010B50300FE
:1022A0000C0010000B4A8021C9051160002B0DD0D5
:1022B00001221343084A0949D16109495940116271
:1022C000546293620021FFF7ADFF10BD024B002264
:1022D000DA61F7E700B0054000800540D3C007B0E1
:1022E0002D3FF84F80239B000B43014AD362704778
:1022F0000080054010B5010018231B8814221088A7
:10230000984710BD10B5010018231B8816221088AD
:10231000984710BDF0B5C64600B507000E00002571
:102320000123984600E00135B5420AD2AC003C19C1
:102330002068FFF7DFFF20600028F4D100239846D3
:10234000F1E7404680BCB846F0BD000070B504001F
:102350000D000648FFF7CEFF0300002C03DB012031
:10236000A040290098470020FBE7C04655420000E6
:10237000074BAA2212011A608D225200DA60054B27
:10238000054A1A60024B5B68002BFBDA7047C046B7
:10239000004002400060024000B0FA0010B50400A6
:1023A00001E008CC9847024B9C42FAD310BDC046CE
:1023B000CC7E00107047000010B50248FFF7EEFF1A
:1023C00010BDC046907E001010B50248FFF7E6FF32
:1023D00010BDC046C47E0010054B064A1A60064B6D
:1023E000064A1A60064B1A68044B9343FAD17047A9
:1023F00000E00040BFCDFBFE00F00040FE7F3C004F
:1024000008C00040044BDB6C002B03D1034B80223F
:10241000D2021A607047C046000011504C20115083
:10242000044B054A1A60054B1B68DB43DB01FAD1FC
:102430007047C04600F00040FFFFFF0108C00040A9
:10244000034B40229A675A671A67DA667047C0469C
:1024500000F0014010B5FEF733FE10BD10B50C4A78
:102460000C4BD21A92101400302A00D9302292005C
:102470000948084900F0BCFF04E0084A064BA100E7
:10248000CA5001342F2CF8D9034B054A936010BD74
:10249000C00100100001001000000020C101001068
:1024A00000ED00E070B50420FFF794FD064900F050
:1024B000A3F805000024002C00DD70BDE0B2290067
:1024C000FFF710FF0134F6E740420F0030B583B04C
:1024D000274B00229A67FFF74BFF264B01221A6019
:1024E000234B5B6C012BFBD1234B03221A60204B47
:1024F0009B6B012BFBD10133009304331F4A012155
:102500001F48FFF7F3FD052300931E4A01211E48D3
:10251000FFF7ECFD1D4B002202210420FFF750FDC8
:102520001B4D2B00002201210520FFF749FD194C0E
:102530002300002200210720FFF742FD2300002294
:1025400000210820FFF73CFD8023DB0000932300DF
:10255000002200210920FFF71FFD2B00002200218F
:102560000620FFF72DFDFFF79DFF03B030BDC046ED
:10257000008000403CB0004030B00040002F68595F
:1025800000800240008C864700C00240001BB7005C
:1025900040597307006CDC0201480421014B1847C5
:1025A000B00C002015230010124A936F9B0815D21F
:1025B0009066D166002905D0FFE7FFE7FFE7516F7E
:1025C000106F704704B580210906C21751400028DA
:1025D00000D0C84305F01CFC002104BDF0B5146E0A
:1025E000556E576F166FFFF7E3FF14665566576712
:1025F0001667F0BD000000D0114A936F9B0813D2FC
:1026000010665166002905D0FFE7FFE7FFE7516F2D
:10261000106F704704B5002801D00020C04305F0BA
:10262000F7FB002104BDC046F0B5146E556E576F20
:10263000166FFFF7E5FF1466556657671667F0BD1E
:10264000000000D094464A4A926F9208624601D236
:1026500028E0C046F0B5464E346E756E776F366F23
:1026600000F020F89446424A14665566576716678C
:102670006246F0BD94463E4A926F9208624601D28D
:1026800054E0C046F0B53A4E346E756E776F366FD3
:1026900000F04CF89446364A14665566576716673C
:1026A0006246F0BD002B24DB11D000293EDA00B5D4
:1026B000C943404200D1013100F038F8C9434042DB
:1026C00000D10131DB43524200D1013300BD002A69
:1026D000EBD1002801D1002905D00020C90FC9077E
:1026E00001D1C043410800B505F072FB0022002370
:1026F00000BD00B500290ADBDB43524200D10133A3
:1027000000F014F8C943404200D1013100BDC94373
:10271000404200D10131DB43524200D1013300F08D
:1027200005F8DB43524200D1013300BD002923D11B
:10273000002B18D1002A0CD0BC460D4F38667A66A3
:1027400000210023FFE7FFE7FFE77A6F386F674656
:102750007047002801D00748010000B505F038FB9C
:102760000022002300BD02000B0000200021704762
:10277000000000D0FFFFFFFF002B00D0BFE0130CD4
:1027800028D1002AE7D080B4114F39667A66FFE776
:10279000FFE730B4040C7B6F396F1B0423433B66A7
:1027A0007A66FFE7FFE7FFE7C04684B27B6F3D6FC5
:1027B0001B0423433B667A66FFE7FFE7C04600231E
:1027C0002C042D0C7A6F386F00196941B0BC70472A
:1027D000000000D0F0B594460025140E01D112027D
:1027E0000835140F01D112010435940F01D1920064
:1027F0000235D40F01D152000135D40B0134254FDD
:102800007C66254C3C660E0C93B2FFE7FFE7FFE7C2
:102810003C6F6643360C7703BE467343DF0B5B04A5
:10282000C01AB941130C7343DB18C91ACE086643AA
:10283000360CB64493B273431F0F1B01C01AB94143
:10284000130C73431F0B1B05C01AB941860D8F0271
:102850003E436643360C092D24DB520A7243801A2C
:102860007703460A6643360C16235B1BDE40DF40C7
:10287000BF1964466643821B704604350633010067
:10288000D940A840C01900D30131A24206D200238A
:10289000F0BD0000000000D0FFFFFFFF121B013061
:1028A000F3D3F1E709277F1BFE406446A2B27243CF
:1028B000801A00D20139220C7243130C1204821ABE
:1028C00099410B007046043513370100F940A840C8
:1028D000801900D30131002B02D1A2420AD2F0BDEF
:1028E000013000D30131121BFAD2013BF8D1A242D0
:1028F00000D2F0BD013000D30131121BF7E7F0B573
:102900001C0C00D080E00CB400251C0A04D11B0272
:10291000160E3343120208351C0B04D11B01160F8F
:102920003343120104359C0B04D19B00960F3343B3
:1029300092000235DC0B02D192185B4101351C007C
:10294000971864410134464F7C66464C3C660E0C39
:10295000FFE7FFE7FFE7C0463C6F6643360C7703AF
:10296000BE4697B27743C01B00D20139C01B00D2CC
:1029700001399FB27743C91BC91B170C77437E04EB
:10298000FF0B801BB941CE086643360C0C2D33DBA0
:10299000B644120B1F053A431B0B97B27743C01B7B
:1029A00000D201399FB27743C91B170C77433E040D
:1029B0003F0C801BB941860D8F023E436643292799
:1029C0007F1BFE400C3D7746AF40BF1930BCA2B222
:1029D000ABB272437343801A9941220C7243130CB9
:1029E0001204801A994102000B000137001BA94113
:1029F000F9D2781E0021F0BD0C277F1BFE407746E0
:102A00007F0BAF40FF19E0E700245D1C07D0144F97
:102A10007D663966FFE7FFE7FFE7FFE73C6F95B2AA
:102A20009EB265436643401BB141150C1E0C6543C5
:102A3000664336042F0C3E432D04401BB14199429E
:102A400004D202000B0020000021F0BD01D1904211
:102A5000F7D3801A994101349942F2D3F6E7000086
:102A6000000000D0FFFFFFFF48404140484018B43D
:102A70001B4B5B68FC46019308BD04DF432D00102F
:102A800018B4174B1B68FC46019308BD00DF4D2DA1
:102A900000109446134A926F920809D2624618B405
:102AA0000F4BDB68FC46019308BD0CDF05300010BE
:102AB0000C4AF0B5146E556E576F166F6246FFF7ED
:102AC000EEFF084A1466556657671667F0BD18B4DE
:102AD000034B9B68FC46019308BD08DFA92E00103C
:102AE000A81A0020000000D0FFB5504042405040DE
:102AF00059404B40594000E0FFB5154F4C00640D64
:102B000003D0BC4204D10C0314D80020090D0905E0
:102B10005C00640D03D0BC4204D11C030AD800221F
:102B20001B0D1B0501264B4009D44B4003D58B429E
:102B300000D18242FFBD9942FCD19042FFBD0B43C0
:102B4000DB1803431343F5D0C9434918FFBD000008
:102B5000FF07000000B5FFF7CFFF804100BDC04672
:102B600000B5FFF7C9FF01D9002000BD012000BD5D
:102B700000B5FFF7B9FF01D9002000BD012000BD5D
:102B800000B5FFF7B1FF804100BD012040054A00BC
:102B9000121804D85A00121801D8002070470120DA
:102BA000704700000021002805D17047C117484038
:102BB000401AFAD0C90713B5064B1B6898470CBCDE
:102BC000441CA2401005120B0349091B09051943B7
:102BD000114310BDA81B00201F04000010B54C00BD
:102BE000620D8023D218DB00D21A5B057E2A10DD2D
:102BF0009E3A13DACC170903490819435242D140CF
:102C0000640001341532202A05DAD04008436043BD
:102C100010BD002010BD0846604310BDC80FC0188D
:102C2000013810BD18B4044B5B6AFC46019308BD23
:102C300024DFB53100100000A81A002070B513235E
:102C40001C78012C12D0012C12DC214B214A9364F8
:102C50002148FFF74FFB214B186070BD1C491D4AEE
:102C60009800815001331F2BF8D9ECE70023FAE7D5
:102C70001B48FFF747FB05001A48FFF743FB0238E4
:102C800003789B007F2B09DD12488022290000F089
:102C9000AFFB022C08D0022CDADCD6E7124B134A29
:102CA0001348332101F0A4FC124B1A88B5231B02F0
:102CB0009A4209D1104B1A88104B9A4204D1104BFA
:102CC0001A88104B9A42E6D00020FEF769F9C046F8
:102CD000092D0010A81A00204C330000A81B00206A
:102CE00053440000534600008C85001008930010E8
:102CF000D085001054380000D83800004946000044
:102D00009C3800005946000007B56046002800D1F5
:102D100000BE01880A0A0230DF2AFAD1C9B282084D
:102D200004D3028840880004104300E00068024A8F
:102D30005050039007BD0000A81A00200FB403BC38
:102D40000CBCF0B50124E407634000E0F0B50C0DC5
:102D5000CF0F661E3605891B640503D3C943404265
:102D600000D30131640D03D0661CF60A07D0E41BC2
:102D700000207F00791C89078912803C24031D0DE7
:102D8000DF0F6E1E36059B1B6D0503D3DB435242DE
:102D900000D301336D0D03D06E1CF60A07D0ED1B76
:102DA00000227F007B1C9B079B12803D2D032F1B65
:102DB000661B58D4A446202E46DA20371400BC40A7
:102DC0001D00BD40F24033412A4380185941CB0FCA
:102DD00005D0C943C043002264425041514162467C
:102DE0004D0D28D10D0D07D100281FD024194041C9
:102DF0004941013A0D0DF9D0640006D3013000D3EA
:102E00000131002C01D140084000013A0BD4941C40
:102E1000E40A04D112051144DB071944F0BDD907B7
:102E2000204B194300E0D9070020F0BD0029DDD177
:102E3000002CDBD1F0BD0132C6074008CD07284386
:102E40004908002EE1D0D9E73C2E29DA203E403750
:102E50001400BC4000D00124F24014431A00BB40CF
:102E60001C43D317ACE7AC46202F08DA2036040009
:102E7000B4400D00B540F84039412843A5E73C2F48
:102E80000CDA203F40360400B44000D00124F84062
:102E900004430800B1400C43C117EAE710001900D1
:102EA000002494E70000F07FF0B50C0D661E360597
:102EB000891BE60A6405640D02D0651CED0A04D086
:102EC000002001210905803C2403A4461C0D671E37
:102ED0003F05DB1BE70A6405640D02D0651CED0AA3
:102EE00004D0002201231B05803C24037740644466
:102EF00097B484B296B27443070C7E43150C6F43AB
:102F000080B26843361802D3012000043F18300411
:102F1000350C00197D41844688B29AB250430C0C9E
:102F200062431F0C7C438EB27E43921902D301266A
:102F30003604A4191604170C3618674101BC81B277
:102F40009AB25143040C62431B0C5C4380B2584359
:102F5000121802D30120000424181004130C401886
:102F600063412D185E410020474106BC88B293B2F0
:102F700058430C0C6343120C544389B251435B1801
:102F800002D301210904641819041A0C09186241BA
:102F90006D1856410020474118BCF902720D1143CB
:102FA000F0026A0D1043ED020A0D03D16D19404184
:102FB0004941013B124E9B1B7600B3420ED26D007D
:102FC00007D30130002671416646354301D14008E0
:102FD00040001B05C918E4072144F0BD0BDA01339A
:102FE00006D1013004D101314F0D01D04908F2E77B
:102FF000E1070020F0BD013631050020EBE70000BD
:10300000FF030000F0B51C0D671E3F05DB1BE70A40
:103010006405640D02D0661CF60A04D00022012368
:103020001B05803C2403D0252D060026F6432E6682
:103030001E096E66CE0FF619B44649004F0D02D038
:103040007E1CF60A03D000200021403F3F033E1BB8
:10305000B600B444013F7F05C91B49082E6F0136F5
:1030600076089C02950D25437543ED137543AD130A
:1030700001356D10F603761B0CB4CC02450D2C43C4
:10308000A2B2B3B25A43270C7B43350C6F43A4B2B0
:103090006C431B1902D3012424043F191C041D0C8A
:1030A000A4187D4124196D41009A91B2ACB26143DC
:1030B000170C7C432B0C5F4392B25A43A41802D3E3
:1030C00001221204BF182204230C52187B41019CD8
:1030D0006C431B19520ED9010A434401A01A81B254
:1030E000B2B2514303145A43360C734387B2774349
:1030F000D617D21900277E4136049B191704160CE7
:103100007F185E417316ED18F30100268033754178
:10311000A90F06D16400690AE8055B0A184309D2C1
:103120002FE00422944480337541A90AA8059B0A24
:10313000184326D3404149412404009A019B0D00C5
:103140005543641B4343E41A95B286B27543170C8A
:103150007E43030C5F4392B25A43B61802D3012256
:103160001204BF183204330C52197B4152429C4165
:10317000002C02D40022013051414008CA071043FC
:10318000490802B06246D7079210084BD218084B84
:103190009A4203D212058918C919F0BD0020002AED
:1031A00001DC3900F0BD01331905F5E7FD0300002E
:1031B000FE070000002200B5203200F004F80800ED
:1031C00000BD000000220B150AD410B5944600F093
:1031D00031F81414013400DA0021CB17144C2047C5
:1031E0000020002170476244343A0CD40C2A07DADC
:1031F00004009140904052422032D440214310BDFF
:10320000D843D94310BD203207D40C4694405242D3
:1032100020321141D040204310BD0800C917203290
:1032200003D452422032104110BD1800190010BDC5
:10323000E73100100A0DCC0F531E1B05C91A5205A9
:1032400003D3C943404200D30131520D03D0531C74
:10325000DB0A07D0121B00206400611C8907891259
:10326000803A1203014BD21A70470000FF0300009E
:1032700051434343C9188C46110C83B24B4310B4DD
:10328000040C614392B280B2504362431C041B0C95
:10329000001910BC59411304120CC018514161446B
:1032A0007047000070B513231C782A48FFF72AF8EE
:1032B0000500012C12D0012C0ADD2B00023B1B78EB
:1032C0009B007F2B40DD24488022290000F090F8ED
:1032D0002248FFF70FF8224B186070BD1E48542299
:1032E000290000F085F81F4B1A881F4B9A421CD109
:1032F000A7239B011A881D4B9A4216D11C4B1A8892
:103300001C4B9A4211D11C4B1A8894239B019A4260
:103310000BD11A4B1A881A4B9A4206D1194B1A68CC
:10332000194B9A4201D1152307E01848FDF738FEE2
:103330001749094A9800815001331F2BF8D9144BC3
:10334000054A1362D361B6E7124B134A1348422170
:1033500001F04EF953460000AC1B00204C33000036
:10336000A81B0020EE290000C40F0000C20D0000C1
:10337000962B0000C0B50000182B0000CC2A0000DE
:1033800010B50000FC2C000051ED87642C7F00106C
:10339000A1330010288600101C9300105C860010DA
:1033A00007B56046002800D100BE01880A0A023035
:1033B000DF2AFAD1C9B2820804D302884088000407
:1033C000104300E00068024A5050039007BD00001F
:1033D000AC1B002001480421014B1847C00C002001
:1033E00015230010014B1B6818470000C00C00207B
:1033F000014B5B6818470000C00C0020704710B5F7
:10340000002802D00B684968984710BD01000020D1
:1034100007E083001B185B00501C08601078C01880
:1034200030380A681378303BDBB2092BF1D970478A
:10343000F0B5D6464F464646C0B505000E00100012
:1034400091461F00099C0B9B0222110019408A46DD
:103450001A4234D1DB0716D50200B84637002E00D9
:103460001FE0551C330041462020B84701342A0094
:103470000A9B9C42F5D33D0037004646099CB8465E
:1034800037002E000DE00200B0463E002F000994E8
:10349000EEE7013C551C089B185D43463900B047D8
:1034A0002A00002CF5D135003E0047465346002B3C
:1034B00016D11000E0BCBA46B146A846F0BD0200E5
:1034C000B84637002E00ECE7541C330029002020BA
:1034D000B84722004B46D31A0A998B42F4D3E8E747
:1034E0003B002F0035001E00F4E7F0B5CE464746FE
:1034F00080B585B006000F00904699460C9A0D9B4A
:103500000EA909788C46109D119C129988071CD42D
:10351000002C0CD0C8070AD56046002802D10C3018
:10352000084204D0013C02E03020D0540133AB42C9
:1035300001D21F2BF8D9C80707D5A34205D21F2BEC
:1035400003D83020D0540133F5E7C80612D548051A
:1035500005D4002B03D0AB4223D0A34221D00F9837
:10356000102831D00F98022838D01F2B0AD83020CD
:10357000D05401331F2B05D86046002834D02D20AD
:10358000D054013303910294019300924B4642467A
:1035900039003000FFF74CFF05B0C0BCB946B0465B
:1035A000F0BD581E012B17D00F9D102D0BD003001E
:1035B0000F981028D6D18806D4D51F2BD2D85820E2
:1035C000D0540133D1E7023B8806F1D41F2BEFD84A
:1035D0007820D0540133C8E70300C0E71F2BD1D8AF
:1035E0006030D0540133C0E7480703D52B20D054B6
:1035F0000133C7E70807C5D52020D0540133C1E700
:10360000F0B5DE4657464E464546E0B593B0804697
:10361000894692469B461CAB10CB1B7809931E9D96
:10362000002C03D11023219A9A4321928023DB009E
:10363000219E1E40219A1A4218D0002C22D000262A
:1036400014E0219A92061BD54121C918C9B20A3942
:10365000C9B2771C0AAB995529002000FEF7CCFFB0
:10366000AC4210D31F2F0ED83E00040029002000CA
:10367000FEF7C2FFCBB2092BE3D83033D9B2E8E76B
:103680006121E2E72700219B0693209B05931F9B66
:1036900004930395099B029301970AAB00935B4641
:1036A000524649464046FFF720FF13B0F0BCBB46E8
:1036B000B246A946A046F0BDF0B5DE4657464E4696
:1036C0004546E0B595B08346089109920A931E9B42
:1036D00099461F9F20AB1B780B93229B9846239CF7
:1036E0004B463B4303D11033269A9A4326928023BC
:1036F000DB00269D1D40269A1A4208D04B463B43CC
:1037000039D000254E4623002C001D001FE04E46F8
:1037100023002C001D001AE0269A920623D5412290
:10372000D218D2B20A3AD2B2631C9A460CAB1A55DE
:1037300042462B0030003900FEF79CFFBD421CD8EA
:1037400013D053461F2B14D8544606000F00424690
:103750002B0030003900FEF78DFFD3B2092BDBD8E8
:103760003033DAB2E0E76122DAE7B045E9D956460C
:1037700004E0564602E0002600E05646269B0693EB
:10378000259B0593249B0493434603930B9B029331
:1037900001960CAB00930A9B099A08995846FFF7CB
:1037A000A4FE15B0F0BCBB46B246A946A046F0BD8B
:1037B000F0B5DE4657464E464546E0B595B00400A6
:1037C0008A46934699461E9E1F9F32003B0030005A
:1037D0003900FFF7DAF9002800D0FBE0012252425D
:1037E000D64B30003900FFF7CBF9002800D0F1E0CC
:1037F00001225242D24B30003900FFF7ABF90028CA
:1038000000D0E7E00022002330003900FFF7A2F9E2
:10381000002800D0F3E0069607978023DB00229A69
:103820001A401192229A1A4201D106232093069837
:10383000079902000B000A920B9303000A0002434F
:1038400000D1E8E0080D4005400DBE4DAC46604497
:10385000050007980203120B00200021089009912F
:103860000893B94B134309932800FFF79FF9B74A10
:10387000B74BFFF72CF9B74AB74BFFF701F90A909E
:103880000B910022B54B08980999FFF7F0F8B44A5C
:10389000B44BFFF71CF902000B000A980B99FFF7D5
:1038A000EFF8FFF79BF980460890FFF77FF9AE4AE3
:1038B000AE4B0A900B91FFF70AF90022AC4BFFF7D1
:1038C000DFF8FFF78BF90500AA4AAB4B0A980B9972
:1038D000FFF7FDF80A900B912800FFF767F9A74A58
:1038E000A74BFFF7F4F802000B000A980B99FFF7BB
:1038F000BEF802000B000A900B91FFF7E8F80E905B
:103900000F912B009F4DAC466344002100220C9187
:103910000D921B050D9300230C930A980B9902003E
:103920000B00FFF7ADF8129013910A9A0B9B002041
:103930008021C905FFF79BF80A900B910022924B5A
:103940000E980F99FFF7A5F80022904BFFF798F813
:1039500002000B000E980F99FFF79BF800228C4B8A
:10396000FFF78EF802000B000E980F99FFF791F801
:1039700002000B000A980B99FFF782F802000B0077
:1039800012981399FFF785F800226F4BFFF778F82C
:103990000C9A0D9BFFF79BF802000B000A920B9309
:1039A000069A079B0C900D91FFF7EAF800280AD0C1
:1039B0004346013B08930022744B0C980D99FFF786
:1039C00068F80A900B91089B6333C62B49D80423EF
:1039D0001D0024E0229B0493219B0393209B0293D0
:1039E000009601974B465A465146200000F004F9D4
:1039F00015B0F0BCBB46B246A946A046F0BD0021BA
:103A0000002206910792069680231B069C46BC4422
:103A10006346079301E70023089304331D00229BAC
:103A20001B052BD50A9A0B9B1900114311D0594A3B
:103A3000594B06980799FFF79BF8002800D1B1E091
:103A40000022564B06980799FFF784F8002800D10A
:103A5000A8E0209A089B9A4206DDD31A013B2093E6
:103A600004E005231D00DAE7002320938023DB0018
:103A7000229A1A43229200231D000893219A95420C
:103A800000D39BE0531B98460223229A1A400C92C3
:103A9000229A134203D0002D01D000239846089BA0
:103AA000002B07D00A9A0B9B06980799FEF7F1FFA7
:103AB000069007910022002330003900FFF74AF8F2
:103AC000002800D07DE0364B229A134004934346F1
:103AD0000393209B0293069A079B009201934B4607
:103AE0005A465146200000F087F8002D00D17FE7AC
:103AF000229B9B0671D54527461C4B46020051462A
:103B00003800A0470898C317C2185A4005230593E8
:103B1000013D0495002303930A330293C30F0193DD
:103B200000924B46320051462000FFF769FD0C9B86
:103B3000002B00D15CE70200219F56E0FFFFEF7FE2
:103B4000FFFFEFFF01FCFFFF0000F03FFB799F50FC
:103B50001344D33FB3C8608B288AC63F0000F83FA8
:103B600061436F63A787D23F71A379094F930A40DE
:103B70000000E03F1655B5BBB16B0240EF39FAFECD
:103B8000422EE63FFF03000000002C4000002440CE
:103B9000000018402D431CEBE2361A3F80842E4172
:103BA000FFF7FFFF209B002B00D167E7119B002B45
:103BB00000D163E7209B013B20935FE700239846F9
:103BC00062E7069E079F3200390080200006844687
:103BD00061440B000692079375E765278CE7561C36
:103BE0004B4651462020A04732005B46D31ABB42C9
:103BF000F5D31000FCE6C046F0B5DE4657464E460B
:103C00004546E0B595B081468A4693460A93209F83
:103C10001E9A1F9B10001900FEF7B7FF002831D134
:103C200001225242BA4B1E981F99FEF793FF0028BB
:103C300037D101225242B74B1E981F99FEF7A0FFC1
:103C400000283DD10022B44B1E981F99FEF798FF23
:103C500000284AD10022B14B1E981F99FEF77AFF27
:103C6000002842D1002200231E981F99FEF772FF00
:103C700000284AD100230B93229B5B0500D4AFE0C0
:103C8000002452E0229B0393219B02930323019380
:103C9000A34B00930A9B5A4651464846FFF7C8FB80
:103CA0001FE1229B0393219B0293042301939D4BCD
:103CB00000930A9B5A4651464846FFF7B9FB10E16C
:103CC000229B5B070ED5984B0422229903912199E0
:103CD0000291019200930A9B5A4651464846FFF7CB
:103CE000A7FBFEE0914B0322EFE7229B0493219B6D
:103CF000039302971E9B1F9C009301940A9B5A46B4
:103D000051464846FFF754FDEBE01E9A1F9B0020EA
:103D10000021FEF7ACFE1E901F9101230B93ABE731
:103D20000CAB30221A55013F01341F2C01D8092F4A
:103D3000F6D81E981F99FEF751FF0500FEF736FFD3
:103D400002000B001E981F99FEF791FE784BFA00B7
:103D50009B180CCB08920993FEF7B9FE06900791C9
:103D6000FEF760FF0600FEF71DFF02000B0006983D
:103D70000799FEF77CFE0690079100226D4BFEF737
:103D8000FFFE00282ED001363000FEF70BFF0200A8
:103D90000B0008980999FEF7E3FE002801D00135D1
:103DA0000026002F2CD12800FEF700FF02000B0098
:103DB0001E981F99FEF75BFE06000F0000225D4B68
:103DC000FEF7C8FE002846D100225A4B30003900C9
:103DD000FEF7D6FE00283ED1EB073CD501353AE090
:103DE00006274DE70022534B06980799FEF7B2FECF
:103DF0000028D6D1002E01D0F307D2D50136D0E766
:103E0000A8461F2C11D8013F0A213000FEF7F4FB11
:103E1000651C30310CAB19550A213000FEF7ECFB64
:103E2000092E0ED906002C00EBE745461F2C0CD8B6
:103E30007B1E002F09D00CAA302111551F00013420
:103E4000F4E72B0045461C00F0E71F2C03D80CAB11
:103E50002E221A5501341F2C10D80A212800FEF7F3
:103E6000A3FB661C30310CAB19550A212800FEF764
:103E70009BFB051E01D03400EDE73400229B9B071D
:103E800019D4229BDB0716D5219B002B0ED00B9B50
:103E9000002B03D10C33229A134207D0219B013B04
:103EA000219303E00CAB30221A550134219B9C4234
:103EB00001D21F2CF6D91F2C06D80B9B002B17D034
:103EC0000CAB2D221A550134229B0393219B0293A4
:103ED00001940CAB00930A9B5A4651464846FFF7A3
:103EE000A7FA15B0F0BCBB46B246A946A046F0BD45
:103EF000229B5B0704D50CAB2B221A550134E3E758
:103F0000229B1B07E0D50CAB20221A550134DBE7BE
:103F1000FFFFEFFFFFFFEF7F65CDCD4165CDCDC149
:103F2000F8860010FC860010EC860010F486001065
:103F3000889300100000E03FF0B5DE4657464E463D
:103F40004546E0B593B083468A46904611930029D2
:103F500000D11AE300255E46119B1878002800D195
:103F600016E3252809D06C1C43462A005146B04769
:103F7000119B013311932500EEE7013311930027C4
:103F800012E0202A25D0232A05D11022174301331D
:103F90001193012406E0002404E0022217430133B8
:103FA00011930124002C1CD0119B1A782B2A0AD0C3
:103FB000E7D92D2AF1D0302A11D12F3A17430133F6
:103FC00011930124EEE704221743013311930124D6
:103FD000E8E708221743013311930124E2E70024A4
:103FE000E0E7119B1A781300303BDBB2092B15D99F
:103FF0002A2A18D00B94119B1A782E2A23D0119BB1
:104000001A786C2A47D03CD9742A62D07A2A65D1B2
:10401000802252001743013311935FE011A8FFF78C
:10402000F5F90B90E7E71C9B1A1D1C921B68002BEF
:1040300004DB0B93119B01331193DCE7022217433E
:104040005B420B93F6E78022D20017435A1C119271
:104050005A781300303BDBB2092B0BD92A2ACED178
:104060001C9B1A1D1C921C68002C08DB119B013341
:104070001193C4E711A8FFF7C9F90400BFE70024B2
:10408000F4E7682A17D06A2A28D1802292001743C1
:104090000133119322E0802252003A43591C1191BE
:1040A00059786C2901D0170018E0C02292001743FC
:1040B0000233119312E080223A43591C119159782E
:1040C000682901D0170009E0C02217430233119379
:1040D00004E080225200174301331193119B18789A
:1040E000652840D077D8462800D18BE01BD96328BB
:1040F00031D102231A003A4091463B4200D1B0E14F
:1041000001241C9B1A1D1C926F1C187843462A0020
:104110005146B0474B46002B00D0A6E1119B01331E
:1041200011933D0018E7252809D16C1C43462A004D
:104130005146B047119B0133119325000CE74528E8
:1041400011D06C1C43462A005146B047119B0133E5
:104150001193250000E763282BD858282BD062281C
:1041600029D04728EDD1672801D0472802D18023E4
:104170001B011F43452801D0472801D120231F439D
:104180001C9B0733072293431A0008321C920497A2
:104190000B9A039202940CCB0092019343462A009F
:1041A00051463000FFF704FB0500119B01331193CA
:1041B000D2E66428C5D178284DD0582800D17CE0BB
:1041C0006F2800D17CE0622800D17CE010239F435F
:1041D000063B9C4641E0702800D1BCE10DD9732814
:1041E00031D11C9B1A1D1C921B689B46002C00D0D1
:1041F0006EE1012252425B464AE16728B3D01DD8E6
:1042000066289ED1462800D11CE11C9B073307225B
:1042100093431A0008321C9204970B9A039202945B
:104220000CCB0092019343462A0051463000FFF721
:10423000E3FC0500119B013311938DE66928BAD088
:104240006F28B8D07DE7732800D27AE77528B2D0FE
:104250007828B0D075E710239C46582836D06928B6
:1042600003D0642801D00C2297437A0501D501229E
:10427000974369282DD064282BD0BA0500D5A3E038
:10428000FA0500D5BBE07A0600D4CDE01C9A111DDA
:104290001C911168FF220A4005970B9B049303941D
:1042A0006346029300230193009243462A0051463D
:1042B0003000FFF7A5F905002AE010239C46CCE763
:1042C00008239C46C9E702239C46C6E720221743E1
:1042D000C5E7BA0520D4FA0551D47A0667D51C9AE9
:1042E000111D1C911168FF220A40D017111841407E
:1042F00005970B9B0493039463460293D20F01929C
:10430000009143462A0051463000FFF779F9050035
:10431000119B013311931FE61C9A073207218A4330
:10432000110008311C91116853689946DB170C93F2
:104330000D930C9A0D9B100048400E900D9B494622
:104340004B400F930E980F990C9A0D9B801A994130
:104350000E900F9108970B9B079306946346049366
:10436000002305934B46DA0F0292009001914346D9
:104370002A0051463000FFF79FF90500C8E71C9A54
:10438000111D1C911268D0171118414005970B9B05
:104390000493039463460293D20F01920091434623
:1043A0002A0051463000FFF72BF90500B0E73A0626
:1043B00005D51C9A111D1C910023D25E95E71C9A0D
:1043C000111D1C91126890E71C9A073207218A433D
:1043D000110008311C9108970B9B079306946346C4
:1043E00004930023059302930CCA00920193434661
:1043F0002A0051463000FFF75FF9050088E71C9A54
:10440000111D1C9105970B9B049303946346029323
:10441000002301931368009343462A00514630005D
:10442000FFF7EEF8050073E73A0606D51C9A111D52
:104430001C9112681204120C2EE71C9A111D1C917B
:10444000126829E720231F43DFE6571C43465146E5
:104450002020B04723003A005C1C9D42F5D815008F
:104460004FE601232A000B9DF6E73A00B1460B9E6A
:1044700006E0571C434651462020C8472C003A000E
:10448000651CA642F5D817004E4647E601330A00E0
:104490001978002902D0511E002AF7D15A469B1ADA
:1044A0008022D200390011408946174202D0A3422F
:1044B00000D9230002221100394010913A4209D05C
:1044C0002A0025005F469B4633004E46994621E070
:1044D000220090E62A005546A24606E0541C4346B8
:1044E00029002020B0473B0022005F1C0B99994215
:1044F000F4D85446AA463B0025005F469B4633004D
:104500004E46994606E01D000137541C434651466D
:10451000C84722003878002804D0002EF4D06B1E43
:10452000002DF0D115005B464E46109A002A03D1AB
:10453000119B013311930FE52A000B9F06E0551CD8
:10454000434651462020B04723002A005C1C9F426E
:10455000F5D81500ECE721233B431C9A111D1C9153
:1045600012680593082304930394083302930023ED
:104570000193009243462A0051463000FFF740F86D
:104580000500119B01331193E6E40B4B9B46E1E4DC
:10459000B34645450DD343465A1E43465146002077
:1045A000D847280013B0F0BCBB46B246A946A04687
:1045B000F0BD2A00F1E7C046FD33001000B585B01C
:1045C0008C4602A902906046486001208446044857
:1045D0000093130062465242FFF7AEFC05B000BDE7
:1045E000FF33001000BEFDE710B5FFF7FBFF000032
:1045F00010B582B084460C001900002A0AD0074B7F
:104600000748019200932300624600F06DF90120F3
:10461000FFF7E8FF034B1A00F2E7C04604870010DB
:10462000148700102C7F001010B5EFF30583002BCA
:1046300000D000BEFDF7C0FE034C01E008CC984757
:10464000024B9C42FAD310BDCC7E0010D47E0010E9
:1046500010B50300080011001B68984710BD00004A
:10466000F8B507000D001600437D002B02D0002492
:1046700000200CE003681100280098472BE03B7DE8
:104680000FE03B68144802219847601C0134B44293
:1046900013DA002CF3DD631EEB5C0D3B5A425341F1
:1046A000DBB22A5D0A2AF1D1002BEFD1A042E8DA71
:1046B0003B68211A28189847E3E7B04203DA3B68C1
:1046C000311A28189847002E05DD013EAB5D0D3BE1
:1046D0005A4253413B75F8BDD893001070B50500A0
:1046E0000368002B16D00C4B1C6805E0290004C998
:1046F0002000FFF7B5FF2469002C09D02368002BA8
:10470000F9D0064B1B68002BF0D0A342F3D1EDE7A4
:1047100000232B6070BDC046001600200816002044
:1047200070B505000C000B68802B05D023685A1C5F
:104730002260E418257170BD0800FFF7CFFFF5E790
:1047400010B5FDF7B7FB074A002312184B41002BA9
:1047500003DB054803F074FB10BD01225242034BFA
:10476000F7E7C04640420F00100D0020FFFFFF7F1B
:1047700010B5024803F024FB10BDC046100D002008
:10478000F0B5CE46474680B583B080460D00160092
:104790001C00FFF7D5FF81466B1C05D0002C08D00C
:1047A000184F194B1C6807E0404603F0C7FA050094
:1047B000F4E7164FF5E72469002C16D02368002B88
:1047C000F9D0134B1B68002B01D0A342F3D12A0070
:1047D00041462000B847002EEDD06B46D91D0A2374
:1047E0000B7001222000B847E5E74B46002B05D1AE
:1047F000280003B0C0BCB946B046F0BDFFF7B8FF13
:10480000F6E7C04661460010001600205146001031
:10481000081600200A4A136802E01A0010321B69C9
:10482000002B09D013688342F7D1002907D103690F
:1048300013600023036102E0002900D0106070477C
:104840000016002010B5064B1C6800E02469002CFF
:1048500004D06368002BF9D09847F7E710BDC04635
:104860000016002010B500F0DDF910BD10B582B0C3
:1048700004006B46D81D0470012300220121FFF7BC
:104880007FFF200002B010BD70B5050003F056FA9E
:1048900004000123012201002800FFF771FFFFF748
:1048A000D1FF200070BD0000F0B5A3B007000E00DE
:1048B000FFF746FF050001AC0023019309483300D0
:1048C0003A002100FFF77AFE06002000FFF706FFFE
:1048D000FFF7B8FF002D02D1300023B0F0BDFFF785
:1048E00047FFF9E7214700100FB400B583B004A9D2
:1048F00001C90191FFF7D8FF03B008BC04B0184705
:1049000070470000014B00221A707047221D0020E2
:104910004B79FF2B0CD18B79002B0BD1CB79012B51
:104920000AD1082A0AD98A78054B1A70092000E0B2
:10493000002070470020FCE70020FAE70020F8E79D
:10494000221D00200120704710B5012927D11179BF
:1049500053791B020B43134909788B4201D0002085
:104960001EE05378012B03D0022B11D0002017E05A
:104970009178D3781B021943DB0506D5480A8A05CE
:10498000D20F7F231940FDF7E1FC01204042F6E7FA
:10499000642200210020FDF781FC012000E00120BD
:1049A00010BDC046221D002000487047A49400108E
:1049B00010B504001000012911D15378012B10D13A
:1049C000127943791B021343072B01D0002007E023
:1049D000054A9F330100200001F0B8FB00E00120F0
:1049E00010BD0020FCE7C046FC93001001230370BB
:1049F00000487047DC93001010B50A784B781B0212
:104A000013438A7812041A43CB781B061343962269
:104A1000D200934200D010BD01200022110040427C
:104A2000FDF794FC024B1860024B19607047C046BA
:104A30009C150020A015002010B5FDF73BFA0E4A8A
:104A4000002312184B41002B12DB0C4803F0F8F93D
:104A500000280CD001200021404201F031FA002052
:104A600001F0E2FC0028F5D1044803F0A9F910BDDB
:104A700001225242024BE8E740420F00B41C0020E2
:104A8000FFFFFF7F10B5024B1878FCF7AFFB10BD9E
:104A9000231D002070B51A4B1B68002B24D0EFF3A8
:104AA000108272B6100019680029FCD0BFF35F8F26
:104AB00013494A60134B00221A700B68BFF35F8FD3
:104AC0001A6080F310880022002314001D000E4B92
:104AD0001878FCF767FB00280CD100220023140093
:104AE0001D002000290070BDFA229200002314004E
:104AF0001D00ECE7044B1878FCF778FBF1E7C046A3
:104B00007C1A0020241D0020231D0020F0B585B054
:104B1000070015001E000CAB1C78FDF7CBF92A002E
:104B2000330012184B41002B09DB02940B990191C1
:104B30000A9900913800FCF7F7FF05B0F0BD01229B
:104B40005242014BF1E7C046FFFFFF7FF0B5C6467A
:104B500000B584B080460F0016001D000AAB1C781B
:104B6000FCF77AFF02940195009642463B00FFF75E
:104B7000CDFF04B080BCB846F0BD000010B582B0D7
:104B80002248002103F04CF900281ED1204B1B685D
:104B9000002B18D0EFF3108172B608001A68002AB3
:104BA000FCD0BFF35F8F1A4A51601A490B78DBB211
:104BB00001240C701268BFF35F8F0021116080F335
:104BC0001088002B17D002B010BD012000214042F8
:104BD00001F076F9002001F0FFFB04000B4803F020
:104BE000EFF8002CEFD00C4B1B68002BEBD00B4ADE
:104BF00010689847E7E70A4A013300930023FA2038
:104C000080000021FFF7A2FFDDE7C046B41C0020B2
:104C10007C1A0020241D00209C150020A0150020D7
:104C2000954A001010B582B0D0231B061C68FCF713
:104C300013FFFCF7F5FFA04230D1274B1B78002172
:104C4000002002F0ADF8254B1B68002B2CD0012072
:104C5000FCF79CFC224C20702249FF231840FCF7F3
:104C6000E3FA20780121FCF7B7FA0520FCF7CEFA29
:104C7000041E1DD00120FCF713FA01001A4B180086
:104C8000FCF7E2FC194900220520FCF7F7FA184866
:104C90000121FFF7BFFD200002B010BD154B164AE1
:104CA0001648C621FFF7A4FC0C48FCF78BFCCEE7A6
:104CB0000D4808220021FEF795FB114A01230093BD
:104CC0000023FA2080000021FFF740FFC043C40FFB
:104CD0000028E0DADBE7C04638980010B41C00205A
:104CE000231D00207D4B00107C1A0020854A0010F7
:104CF000D00C002044870010D49400104C87001082
:104D0000954A001010B5002001F04CFB10BD0000CA
:104D100070B504000D00FFF7F5FF002836D0002025
:104D200001F05AFB002835D0FDF7C4F81D4A0023D6
:104D300012184B41002B1ADB1B4803F081F80028A6
:104D40002CD0FFF7DFFF002804D0002001F044FB47
:104D5000002810D101200021404201F0B1F80323C6
:104D60005B421C00104803F02BF8200070BD0122AC
:104D700052420E4BE0E72A002100002001F038FBF0
:104D8000041EEFD103235B421C00EBE703235B42CD
:104D90001C00EAE703235B421C00E6E703235B42B7
:104DA0001C00E2E740420F00B41C0020FFFFFF7F21
:104DB000F0B583B005000C00FDF77CF8314A002304
:104DC00012184B41002B06DB2F4803F039F800285E
:104DD00005D103B0F0BD012252422C4BF4E7FFF79E
:104DE00091FF00284BD12A4B002000211860596008
:104DF000254802F0E5FFECE701200021404201F0E8
:104E00005FF8002001F010FBFFF77CFF0028EFD0D7
:104E1000002001F081FB00281FD0A642E8DAA71B82
:104E2000002001F079FB0200874200DC3A00002AF2
:104E3000E2D0A919002001F04BFB0700012000215E
:104E4000404201F03DF8002001F0EEFAF619FDF7BE
:104E500031F80F4B18605960DFE7FDF72BF8019030
:104E60000F000B4B186859680A4A002312184B416F
:104E70009F42BDD8D1D101999142CED9B8E7002641
:104E8000CBE7C04640420F00B41C0020FFFFFF7F6D
:104E9000980E002020A10700004870475095001090
:104EA00000487047FC94001010B50400154B1B78A7
:104EB000002B0ED0002C11D1134B144A5A80012321
:104EC00001335B009BB21048C02292001343038061
:104ED00010BD0C48112100F025F8EBE7052C0ED889
:104EE0000B4BA400E4580023122BE9D8E15C002905
:104EF000E6D00133044A58008152DBB2F4E70020C7
:104F0000E6E7C0460C1D0020D8150020090400006B
:104F1000E494001010B5024800F030F810BDC0460F
:104F2000A01A002010B50C1E01D0002308E00F4B82
:104F30000F4A10483B21FFF75BFB3732C254013365
:104F4000621E9A420ED90F2B0CD85A080A49895C66
:104F500001229A43920011410F220A40092AECDCF7
:104F60003032EBE7C0180023037010BDD887001063
:104F700064950010E0870010A01A002070B588B07A
:104F8000040004AD0D2200212800FEF72BFA0D22AB
:104F900000216846FEF726FA4B232B700D22694646
:104FA000280002F005FF002304E05A1D69468A5CD0
:104FB000E2540133072BF8DD08B070BD30B583B083
:104FC00004000D0094467F230340C209294859007C
:104FD00089184901401884705142514141700021A3
:104FE000C17005836146C176012A1ED0DC002249CA
:104FF0008C4664441F4958008018400109188C6091
:105000001C49580080184001091889680020086070
:10501000002B15D117495B009B185B01CB180022B0
:105020005A60164ADA6003B030BDDC0014498C4681
:105030006444104958008018400109188C60DFE76B
:10504000012A0BD0581EC0000E498C466044094905
:105050005B009B185B01C9184860E4E7581EC0005C
:1050600009498C46604403495B009B185B01C918E1
:105070004860D8E75C1600208400105000011050F2
:10508000800010500C0010500800105010B5038B19
:105090003F339B099901C27E022A08D0084A13684F
:1050A000C3605B181360074A934202D810BDD90150
:1050B000F4E7054B054A06485221FFF799FAC04626
:1050C000601A0020FF0F1050308A0010C4950010A5
:1050D000748A0010F8B57F240440C50963005B1989
:1050E0005B010F4EB44663441E00FFF767FF002CC0
:1050F00000D1F8BD0A4B6400641964011C19218BAE
:105100003000FFF7C3FFE37E9B06E168054A4A4093
:10511000134380221206134362681360E9E7C04616
:105120005C1600200000105010B503007F201840CE
:10513000DB099C46400060444001024BC01800F06F
:105140002FF910BD5C16002010B5002804D10121F4
:105150000520FCF741F810BD034B044A9821044890
:10516000FF31FFF745FAC046E48A0010B4950010FD
:10517000748A001010B5002805D10022002180207B
:10518000FFF7D2FF10BD034B034AA2210348FF31B2
:10519000FFF72EFAE48A0010A4950010748A00101C
:1051A000024B80225202DA647047C0460020115040
:1051B00070B5041E27D100F0D1F8164D0C23AB6753
:1051C0001549FF220520FCF759F814484022002118
:1051D000FEF708F9002240210020FFF77BFF0022A4
:1051E00040218020FFF776FF02F0FAFD01232B64B7
:1051F00080239B05EB649023094AEA502000FFF7C7
:10520000CFFF012070BD074B074A64210748FF31DB
:10521000FFF7EEF900001150FD0400205C1600209D
:1052200010D00100E48A0010D8950010748A001094
:10523000044B1970002904D0034A9023802189026D
:10524000D15070471E1D0020002011500B78DA0647
:1052500005D160221A4202D14B78052B00D070474D
:105260008A78CB781B021343FF221340014A136054
:10527000F5E7C0460000115010B5CA789207920FAA
:10528000012A0AD088780B7949790902194349051E
:10529000490DFFF71FFF012010BD0020FCE710B5EE
:1052A00002F09EFD10BD000010B5844608001100FC
:1052B0001A006346002B03D1FFF736FF012010BD13
:1052C000034B044A812104488900FFF791F9C04645
:1052D000E48A001094950010748A001010B57F23A2
:1052E000180008400B4205D1CB09012B0ED0022239
:1052F000074B9A66C909400040184001054BC01889
:1053000080221201002102F0B3FD10BD0122EFE75F
:10531000002011505C16002010B57F2210000840BC
:105320000A4200D110BDC909400040184001044B99
:10533000C0180023C3700022024902F099FDF1E772
:105340005C160020FFF7FFFF04E00A7802700131CD
:1053500001301A00531E002AF7D1704710B5802380
:105360005B040A4A13600A4A13600A4B1A688023D6
:105370005B049343F9D18022520100210648FEF7D5
:1053800031F8064B09225A6710BDC04600E00040C4
:1053900000F0004008C00040000010500000115014
:1053A00070B504000D001600837E002B17D1A68275
:1053B0000023E3820133A3762561200002F060FD23
:1053C000002804D00C4A902380218902D15020006B
:1053D00002F00EFD00280AD00123237770BD8178EA
:1053E0000648FFF781FA200002F03AFDDFE72000CF
:1053F00002F02EFDF2E7C04600201150D48B0010C1
:1054000070B50500002408E09B1A5B01164A9B1842
:10541000DB68280098470134E4B2144B1A78230063
:10542000511CA1420DDBA242EED9114B1B68620157
:105430009B18002BECD10F490F48104AFFF754FA84
:1054400010E00F4C542200212000FDF7CBFF201D5F
:105450001022FF21FDF7C6FF200014302022FF217B
:10546000FDF7C0FF70BDC046AC9600101D1D0020AA
:10547000FC0E0020789600100C8C00102502000015
:10548000AC10002010B5FFF7BBFF00F0ABFE10BD65
:1054900070B506000C001500486900F0ADFE6369A8
:1054A0002A0001213000984770BD0000F0B5DE46AB
:1054B00057464E464546E0B583B082460139C8B2EC
:1054C000FFF7EEFC002803D043789946022B0CD05E
:1054D00055495648564AFFF707FA002003B0F0BC7A
:1054E000BB46B246A946A046F0BDC5796C11012263
:1054F000504B1440240119781026B14321431970F0
:10550000AD112A405201C9B22024A1430A431A70A6
:10551000060009368278C3781B021343C3189B46E2
:105520004B460093370064E0FB7899463A78BF1801
:1055300066E03D493D48404AFFF7D6F90020CDE7F7
:10554000341B64013D4BE41823693A004146504640
:105550009847082801D9874216D20135EDB2384B59
:105560001C782E00621CAA423DDBAC42E8D9354BC8
:105570001C686A01A418002CE6D12B492B48324A3A
:10558000FFF7B2F90020A9E7474601904B46012BEF
:1055900011D00020494681421BD9BB781B18DBB2D1
:1055A000244AD2181279FF2A0CD1224AD3181D712D
:1055B0000130C0B2EFE72169244A9142E9D1009B52
:1055C0009946E6E718491948214AFFF78DF9002066
:1055D00084E720482B00019C2200390001F0C0FC28
:1055E000A446674400E04746154B1B7801339E42B2
:1055F00010DC5F4516D27B780B2B95D001239946A2
:105600007A78042A95D15B46DA1B93B20025B84616
:105610001F00A4E7852204490448D200FFF764F97B
:1056200000205BE7012059E74C9600100C8C00101D
:10563000D6030000AC100020F1030000AC9600106F
:105640001D1D0020FC0E0020FA03000091660010D2
:1056500019040000C01000207047704700207047F8
:105660000020704770B505000C008878CB781B02CD
:105670001A0A1300062A54D011D8022A29D0032A64
:1056800041D0012A09D1FFF707FC021E1AD01223CC
:105690002100280000F05AFD29E0002027E0072A19
:1056A00017D00F2A0CD1FFF77FF9021E43D0817863
:1056B000C3781B020B432100280000F047FD16E0D1
:1056C000002014E020492148214AFFF70DF900206D
:1056D0000DE0022B0CD0FFF7C3FF021E2DD09178F6
:1056E000D3781B020B432100280000F02FFD70BD72
:1056F000FFF7D6FB021EF2D113491448154AFFF7F3
:10570000F3F80020F3E70B79497909021943FFF711
:10571000CBFB021E13D003782100280000F016FDF9
:10572000E5E7FFF79BFF021E0BD00378210028005E
:1057300000F00CFDDBE70020D9E70020D7E70020D0
:10574000D5E70020D3E7C046349600100C8C00103B
:105750003A040000610400007047704770477047CA
:10576000024B5878431E9841C0B27047AC100020DD
:10577000024B18784007C00F7047C046AC1000209D
:10578000034B1878FF38431E9841C0B27047C0469B
:10579000040D0020F8B506000C000F00FFF7F0FF25
:1057A000051E48D1002C21D02D4854220021FDF7A0
:1057B00019FE2C4B00221A702B4C2000FBF702FF25
:1057C0002A4B1C602A4C2000FBF748FF143C2000A9
:1057D00001F07BFF274B1C60274B002B04D0274890
:1057E000FFF704F9264B1860002410E0E922254950
:1057F00025485200FFF778F81DE09B1A5B01234A09
:105800009B185B68002B10D098470134E4B21B4B07
:105810001A782300511CA1420FDBA242EDD9184B8C
:105820001B6862019B18002BEBD1F8221549164822
:105830005200FFF759F82800F8BD154B1E703900CB
:105840003000FFF7B5FC051E03D03000FFF77CFCED
:10585000F1E7FC220B490C485200FFF745F8EAE754
:10586000AC1000201F1D0020A410002000110020FB
:10587000FC0C002004110020ED4900101D1D00202B
:10588000FC0E00209C9600100C8C0010AC960010B2
:10589000040D002070B50C00114B1B781E008B7896
:1058A00070221A420DD10F4B9978200001F002FBB3
:1058B000051E0ED021003000FFF7DEFC0500280099
:1058C00070BD094909480A4AFFF70EF800231D0078
:1058D000F5E705490548074AFFF706F8EFE7C04630
:1058E000040D0020AC100020049600100C8C001059
:1058F0000B0500000C050000F8B5CE46474680B504
:1059000080460C0016009946002516E017491848F5
:10591000184AFEF7E9FF00273800C0BCB946B04678
:10592000F8BD9D2211491248D200FEF7DDFFF3E7D2
:10593000099A13702378E4180135AE4214DD6378B8
:10594000052BE3D1E1788907890F4945DED1210094
:105950004046FFF79FFF071EE3D0A378DA09012A2C
:10596000E6D0089A1370E5E70127D5E714960010F2
:105970000C8C0010E704000010B57F200840C90916
:10598000400040183030044BC0180430034B1968F5
:1059900001F044FA10BDC046AC10002000110020F8
:1059A00010B57F200840C909400040183030044B32
:1059B000C0180430034B196801F05BFA10BDC046F3
:1059C000AC10002000110020F0B583B00193194BFA
:1059D00018787F240C40CD09174B6600B446634409
:1059E0005B1930331B79DB071CD4134B6600B446BC
:1059F00063445B1930331E7901273E431E71019BBE
:105A0000FFF752FC002813D10B4B64001B195B19E4
:105A100030331A7901218A431A711A7903318A4382
:105A20001A7105E005490648064AFEF75DFF0020A9
:105A300003B0F0BD040D0020AC100020F495001060
:105A40000C8C00103905000070B50A4B18787F24C3
:105A50000C40CD09FFF742FC074A640013195B199B
:105A600030331A7902210A431A711A7901210A4343
:105A70001A7170BD040D0020AC10002070B50A4BE7
:105A800018787F240C40CD09FFF746FC074A6400D4
:105A900013195B1930331A7902218A431A711A7962
:105AA00001398A431A7170BD040D0020AC1000202A
:105AB0007F220A40C909044B52009B185B183033FF
:105AC00018798007C00F7047AC100020F0B5C646AB
:105AD00000B584B001900C00002000F08DFB23780D
